{
  "contractName": "CopyOnWriteToken",
  "abi": [
    {
      "constant": true,
      "inputs": [],
      "name": "mintingFinished",
      "outputs": [
        {
          "name": "",
          "type": "bool"
        }
      ],
      "payable": false,
      "stateMutability": "view",
      "type": "function"
    },
    {
      "constant": false,
      "inputs": [
        {
          "name": "_spender",
          "type": "address"
        },
        {
          "name": "_value",
          "type": "uint256"
        }
      ],
      "name": "approve",
      "outputs": [
        {
          "name": "",
          "type": "bool"
        }
      ],
      "payable": false,
      "stateMutability": "nonpayable",
      "type": "function"
    },
    {
      "constant": true,
      "inputs": [],
      "name": "totalSupply",
      "outputs": [
        {
          "name": "",
          "type": "uint256"
        }
      ],
      "payable": false,
      "stateMutability": "view",
      "type": "function"
    },
    {
      "constant": false,
      "inputs": [
        {
          "name": "_value",
          "type": "uint256"
        }
      ],
      "name": "burn",
      "outputs": [],
      "payable": false,
      "stateMutability": "nonpayable",
      "type": "function"
    },
    {
      "constant": false,
      "inputs": [
        {
          "name": "_spender",
          "type": "address"
        },
        {
          "name": "_subtractedValue",
          "type": "uint256"
        }
      ],
      "name": "decreaseApproval",
      "outputs": [
        {
          "name": "",
          "type": "bool"
        }
      ],
      "payable": false,
      "stateMutability": "nonpayable",
      "type": "function"
    },
    {
      "constant": true,
      "inputs": [
        {
          "name": "_owner",
          "type": "address"
        }
      ],
      "name": "balanceOf",
      "outputs": [
        {
          "name": "",
          "type": "uint256"
        }
      ],
      "payable": false,
      "stateMutability": "view",
      "type": "function"
    },
    {
      "constant": false,
      "inputs": [],
      "name": "renounceOwnership",
      "outputs": [],
      "payable": false,
      "stateMutability": "nonpayable",
      "type": "function"
    },
    {
      "constant": false,
      "inputs": [],
      "name": "finishMinting",
      "outputs": [
        {
          "name": "",
          "type": "bool"
        }
      ],
      "payable": false,
      "stateMutability": "nonpayable",
      "type": "function"
    },
    {
      "constant": true,
      "inputs": [],
      "name": "owner",
      "outputs": [
        {
          "name": "",
          "type": "address"
        }
      ],
      "payable": false,
      "stateMutability": "view",
      "type": "function"
    },
    {
      "constant": false,
      "inputs": [
        {
          "name": "_spender",
          "type": "address"
        },
        {
          "name": "_addedValue",
          "type": "uint256"
        }
      ],
      "name": "increaseApproval",
      "outputs": [
        {
          "name": "",
          "type": "bool"
        }
      ],
      "payable": false,
      "stateMutability": "nonpayable",
      "type": "function"
    },
    {
      "constant": true,
      "inputs": [
        {
          "name": "_owner",
          "type": "address"
        },
        {
          "name": "_spender",
          "type": "address"
        }
      ],
      "name": "allowance",
      "outputs": [
        {
          "name": "",
          "type": "uint256"
        }
      ],
      "payable": false,
      "stateMutability": "view",
      "type": "function"
    },
    {
      "constant": false,
      "inputs": [
        {
          "name": "_newOwner",
          "type": "address"
        }
      ],
      "name": "transferOwnership",
      "outputs": [],
      "payable": false,
      "stateMutability": "nonpayable",
      "type": "function"
    },
    {
      "anonymous": false,
      "inputs": [
        {
          "indexed": true,
          "name": "_address",
          "type": "address"
        },
        {
          "indexed": false,
          "name": "_eventID",
          "type": "uint256"
        }
      ],
      "name": "EventStarted",
      "type": "event"
    },
    {
      "anonymous": false,
      "inputs": [
        {
          "indexed": true,
          "name": "_address",
          "type": "address"
        },
        {
          "indexed": false,
          "name": "_eventID",
          "type": "uint256"
        }
      ],
      "name": "EventFinished",
      "type": "event"
    },
    {
      "anonymous": false,
      "inputs": [
        {
          "indexed": true,
          "name": "burner",
          "type": "address"
        },
        {
          "indexed": false,
          "name": "value",
          "type": "uint256"
        }
      ],
      "name": "Burn",
      "type": "event"
    },
    {
      "anonymous": false,
      "inputs": [
        {
          "indexed": true,
          "name": "to",
          "type": "address"
        },
        {
          "indexed": false,
          "name": "amount",
          "type": "uint256"
        }
      ],
      "name": "Mint",
      "type": "event"
    },
    {
      "anonymous": false,
      "inputs": [],
      "name": "MintFinished",
      "type": "event"
    },
    {
      "anonymous": false,
      "inputs": [
        {
          "indexed": true,
          "name": "previousOwner",
          "type": "address"
        }
      ],
      "name": "OwnershipRenounced",
      "type": "event"
    },
    {
      "anonymous": false,
      "inputs": [
        {
          "indexed": true,
          "name": "previousOwner",
          "type": "address"
        },
        {
          "indexed": true,
          "name": "newOwner",
          "type": "address"
        }
      ],
      "name": "OwnershipTransferred",
      "type": "event"
    },
    {
      "anonymous": false,
      "inputs": [
        {
          "indexed": true,
          "name": "owner",
          "type": "address"
        },
        {
          "indexed": true,
          "name": "spender",
          "type": "address"
        },
        {
          "indexed": false,
          "name": "value",
          "type": "uint256"
        }
      ],
      "name": "Approval",
      "type": "event"
    },
    {
      "anonymous": false,
      "inputs": [
        {
          "indexed": true,
          "name": "from",
          "type": "address"
        },
        {
          "indexed": true,
          "name": "to",
          "type": "address"
        },
        {
          "indexed": false,
          "name": "value",
          "type": "uint256"
        }
      ],
      "name": "Transfer",
      "type": "event"
    },
    {
      "constant": false,
      "inputs": [
        {
          "name": "_to",
          "type": "address"
        },
        {
          "name": "_value",
          "type": "uint256"
        }
      ],
      "name": "transfer",
      "outputs": [
        {
          "name": "",
          "type": "bool"
        }
      ],
      "payable": false,
      "stateMutability": "nonpayable",
      "type": "function"
    },
    {
      "constant": false,
      "inputs": [
        {
          "name": "_from",
          "type": "address"
        },
        {
          "name": "_to",
          "type": "address"
        },
        {
          "name": "_value",
          "type": "uint256"
        }
      ],
      "name": "transferFrom",
      "outputs": [
        {
          "name": "",
          "type": "bool"
        }
      ],
      "payable": false,
      "stateMutability": "nonpayable",
      "type": "function"
    },
    {
      "constant": false,
      "inputs": [
        {
          "name": "_to",
          "type": "address"
        },
        {
          "name": "_amount",
          "type": "uint256"
        }
      ],
      "name": "mint",
      "outputs": [
        {
          "name": "",
          "type": "bool"
        }
      ],
      "payable": false,
      "stateMutability": "nonpayable",
      "type": "function"
    },
    {
      "constant": false,
      "inputs": [],
      "name": "startNewEvent",
      "outputs": [
        {
          "name": "",
          "type": "uint256"
        }
      ],
      "payable": false,
      "stateMutability": "nonpayable",
      "type": "function"
    },
    {
      "constant": false,
      "inputs": [
        {
          "name": "_eventID",
          "type": "uint256"
        }
      ],
      "name": "finishEvent",
      "outputs": [],
      "payable": false,
      "stateMutability": "nonpayable",
      "type": "function"
    },
    {
      "constant": true,
      "inputs": [
        {
          "name": "_eventID",
          "type": "uint256"
        },
        {
          "name": "_for",
          "type": "address"
        }
      ],
      "name": "getBalanceAtEventStart",
      "outputs": [
        {
          "name": "",
          "type": "uint256"
        }
      ],
      "payable": false,
      "stateMutability": "view",
      "type": "function"
    }
  ],
  "bytecode": "0x608060405260038054600160a860020a03191633179055610ec8806100256000396000f3006080604052600436106100fb5763ffffffff7c010000000000000000000000000000000000000000000000000000000060003504166305d2035b8114610100578063095ea7b314610129578063154b850b1461014d57806318160ddd1461018357806323b872dd1461019857806340c10f19146101c257806342966c68146101e6578063661884631461020057806370a0823114610224578063715018a6146102455780637984cd4a1461025a5780637d64bcb41461026f5780638da5cb5b14610284578063982fb7b8146102b5578063a9059cbb146102cd578063d73dd623146102f1578063dd62ed3e14610315578063f2fde38b1461033c575b600080fd5b34801561010c57600080fd5b5061011561035d565b604080519115158252519081900360200190f35b34801561013557600080fd5b50610115600160a060020a036004351660243561036d565b34801561015957600080fd5b50610171600435600160a060020a03602435166103d4565b60408051918252519081900360200190f35b34801561018f57600080fd5b5061017161044c565b3480156101a457600080fd5b50610115600160a060020a0360043581169060243516604435610452565b3480156101ce57600080fd5b50610115600160a060020a0360043516602435610471565b3480156101f257600080fd5b506101fe6004356104bc565b005b34801561020c57600080fd5b50610115600160a060020a03600435166024356104c9565b34801561023057600080fd5b50610171600160a060020a03600435166105b8565b34801561025157600080fd5b506101fe6105d3565b34801561026657600080fd5b50610171610641565b34801561027b57600080fd5b506101156106d8565b34801561029057600080fd5b5061029961075c565b60408051600160a060020a039092168252519081900360200190f35b3480156102c157600080fd5b506101fe60043561076b565b3480156102d957600080fd5b50610115600160a060020a03600435166024356107dd565b3480156102fd57600080fd5b50610115600160a060020a03600435166024356107f3565b34801561032157600080fd5b50610171600160a060020a036004358116906024351661088c565b34801561034857600080fd5b506101fe600160a060020a03600435166108b7565b60035460a060020a900460ff1681565b336000818152600260209081526040808320600160a060020a038716808552908352818420869055815186815291519394909390927f8c5be1e5ebec7d5bd14f71427d1e84f3dd0314c0f7b2291e5b200ac8c7c3b925928290030190a35060015b92915050565b60008281526004602052604081206001015460ff1615156103f457600080fd5b6103fe83836108d7565b15156104235750600160a060020a0381166000908152602081905260409020546103ce565b506000918252600460209081526040808420600160a060020a0393909316845291905290205490565b60015490565b600061045e848461090a565b610469848484610920565b949350505050565b60035460009060a060020a900460ff161561048b57600080fd5b600354600160a060020a031633146104a257600080fd5b6104ab83610a83565b6104b58383610aea565b9392505050565b6104c63382610be2565b50565b336000908152600260209081526040808320600160a060020a038616845290915281205480831061051d57336000908152600260209081526040808320600160a060020a0388168452909152812055610552565b61052d818463ffffffff610bf516565b336000908152600260209081526040808320600160a060020a03891684529091529020555b336000818152600260209081526040808320600160a060020a0389168085529083529281902054815190815290519293927f8c5be1e5ebec7d5bd14f71427d1e84f3dd0314c0f7b2291e5b200ac8c7c3b925929181900390910190a35060019392505050565b600160a060020a031660009081526020819052604090205490565b600354600160a060020a031633146105ea57600080fd5b600354604051600160a060020a03909116907ff8df31144d9c2f0f6b59d69b8b98abd5459d07f2742c4df920b25aae33c6482090600090a26003805473ffffffffffffffffffffffffffffffffffffffff19169055565b6000805b60148110156100fb5760008181526004602052604090206001015460ff1615156106cc576000818152600460209081526040918290206001818101805460ff19169091179055426002909101558151838152915133927ff77c6f27499b698205f54058c2914a340e1300c2bc0d9a819e7aebfbaabbbb9392908290030190a28091506106d4565b600101610645565b5090565b600354600090600160a060020a031633146106f257600080fd5b60035460a060020a900460ff161561070957600080fd5b6003805474ff0000000000000000000000000000000000000000191660a060020a1790556040517fae5184fba832cb2b1f702aca6117b8d265eaf03ad33eb133f19dde0f5920fa0890600090a150600190565b600354600160a060020a031681565b60008181526004602052604090206001015460ff16151561078b57600080fd5b600081815260046020908152604091829020600101805460ff191690558151838152915133927ff49d881e799e402df6d3d88bdea3729b3cc3f4f46bb9a70f9be9435f41d8185792908290030190a250565b60006107e9338461090a565b6104b58383610c07565b336000908152600260209081526040808320600160a060020a0386168452909152812054610827908363ffffffff610cd416565b336000818152600260209081526040808320600160a060020a0389168085529083529281902085905580519485525191937f8c5be1e5ebec7d5bd14f71427d1e84f3dd0314c0f7b2291e5b200ac8c7c3b925929081900390910190a350600192915050565b600160a060020a03918216600090815260026020908152604080832093909416825291909152205490565b600354600160a060020a031633146108ce57600080fd5b6104c681610ce1565b60008281526004602090815260408083206002810154600160a060020a0386168552925290912060010154101592915050565b61091381610a83565b61091c82610a83565b5050565b600160a060020a03831660009081526020819052604081205482111561094557600080fd5b600160a060020a038416600090815260026020908152604080832033845290915290205482111561097557600080fd5b600160a060020a038316151561098a57600080fd5b600160a060020a0384166000908152602081905260409020546109b3908363ffffffff610bf516565b600160a060020a0380861660009081526020819052604080822093909355908516815220546109e8908363ffffffff610cd416565b600160a060020a03808516600090815260208181526040808320949094559187168152600282528281203382529091522054610a2a908363ffffffff610bf516565b600160a060020a0380861660008181526002602090815260408083203384528252918290209490945580518681529051928716939192600080516020610e7d833981519152929181900390910190a35060019392505050565b6000805b6014821015610ae557610a9a8284610d5f565b90508015610ada57600160a060020a0383166000818152602081815260408083205486845260048352818420948452939091529020908155426001909101555b600190910190610a87565b505050565b600354600090600160a060020a03163314610b0457600080fd5b60035460a060020a900460ff1615610b1b57600080fd5b600154610b2e908363ffffffff610cd416565b600155600160a060020a038316600090815260208190526040902054610b5a908363ffffffff610cd416565b600160a060020a03841660008181526020818152604091829020939093558051858152905191927f0f6798a560793a54c3bcfe86a93cde1e73087d944c0ea20544137d412139688592918290030190a2604080518381529051600160a060020a03851691600091600080516020610e7d8339815191529181900360200190a350600192915050565b610beb82610a83565b61091c8282610d8d565b600082821115610c0157fe5b50900390565b33600090815260208190526040812054821115610c2357600080fd5b600160a060020a0383161515610c3857600080fd5b33600090815260208190526040902054610c58908363ffffffff610bf516565b3360009081526020819052604080822092909255600160a060020a03851681522054610c8a908363ffffffff610cd416565b600160a060020a03841660008181526020818152604091829020939093558051858152905191923392600080516020610e7d8339815191529281900390910190a350600192915050565b818101828110156103ce57fe5b600160a060020a0381161515610cf657600080fd5b600354604051600160a060020a038084169216907f8be0079c531659141344cd1fd0a4f28419497f9722a3daafe3b4186f6b6457e090600090a36003805473ffffffffffffffffffffffffffffffffffffffff1916600160a060020a0392909216919091179055565b60008281526004602052604081206001015460ff1680156104b55750610d8583836108d7565b159392505050565b600160a060020a038216600090815260208190526040902054811115610db257600080fd5b600160a060020a038216600090815260208190526040902054610ddb908263ffffffff610bf516565b600160a060020a038316600090815260208190526040902055600154610e07908263ffffffff610bf516565b600155604080518281529051600160a060020a038416917fcc16f5dbb4873280815c1ee09dbd06736cffcc184412cf7a71a0fdb75d397ca5919081900360200190a2604080518281529051600091600160a060020a03851691600080516020610e7d8339815191529181900360200190a350505600ddf252ad1be2c89b69c2b068fc378daa952ba7f163c4a11628f55a4df523b3efa165627a7a72305820d97a5f71b380053f7ba058ad2fb181eef1c007139eb7636e1ad1ed567b8e46880029",
  "source": "pragma solidity ^0.4.21;\n\nimport \"zeppelin-solidity/contracts/token/ERC20/MintableToken.sol\";\nimport \"zeppelin-solidity/contracts/token/ERC20/BurnableToken.sol\";\n\n\n/**\n * @title Copy-on-Write (CoW) token \n * @dev Token that can preserve the balances after some EVENT happens (voting is started, didivends are calculated, etc)\n * without blocking the transfers!\n *\n * Please notice that EVENT in this case has nothing to do with Ethereum events.\n *\n * Example of usage (pseudocode):\n *\t  token.mintFor(ADDRESS_A, 100);\n *   assert.equal(token.balanceOf(ADDRESS_A), 100);\n *   assert.equal(token.balanceOf(ADDRESS_B), 0);\n *\n *   uint someEventID_1 = token.startEvent();\n *\t  token.transfer(ADDRESS_A, ADDRESS_B, 30);\n *\n *\t  assert.equal(token.balanceOf(ADDRESS_A), 70);\n *\t  assert.equal(token.balanceOf(ADDRESS_B), 30);\n *\n *\t  assert.equal(token.getBalanceAtEvent(someEventID_1, ADDRESS_A), 100);\n *\t  assert.equal(token.getBalanceAtEvent(someEventID_1, ADDRESS_B), 0);\n*/\ncontract CopyOnWriteToken is MintableToken, BurnableToken {\n\tstruct Holder {\n\t\tuint256 balance;\n\t\tuint lastUpdateTime;\n\t}\n\n\tstruct Event {\n\t\tmapping (address => Holder) holders;\n\t\t\n\t\tbool isEventInProgress;\n\t\tuint eventStartTime;\n\t}\n\n\tmapping (uint => Event) events;\n\n\tevent EventStarted(address indexed _address, uint _eventID);\n\tevent EventFinished(address indexed _address, uint _eventID);\n\n\t// ERC20 interface overrides\n\t/**\n\t* @notice This function should be called only when token not paused\n\t* @param _to address\n\t* @param _value amount of tokens which will be transfered\n\t* @return true\n\t*/\n\tfunction transfer(address _to, uint256 _value) public returns (bool) {\n\t\tupdateCopyOnWriteMaps(msg.sender, _to);\n\t\treturn super.transfer(_to, _value);\n\t}\n\n\t/**\n\t* @notice This function should be called only when token not paused\n\t* @param _from address\n\t* @param _to address\n\t* @param _value amount of tokens which will be transfered\n\t* @return true\n\t*/\n\tfunction transferFrom(address _from, address _to, uint256 _value) public returns (bool) {\n\t\tupdateCopyOnWriteMaps(_from, _to);\n\t\treturn super.transferFrom(_from, _to, _value);\n\t}\n\n\t// MintableToken override\n\t/**\n\t* @notice This function should be called only by owner\n\t* @param _to address\n\t* @param _amount amount of tokens which will be minted\n\t* @return true\n\t*/\n\tfunction mint(address _to, uint256 _amount) canMint onlyOwner public returns(bool) {\n\t\tupdateCopyOnWriteMap(_to);\n\t\treturn super.mint(_to, _amount);\n\t}\n\n// BurnableToken override\n\t// @dev This is an override of internal method! public method burn() calls _burn() automatically\n\t// (see BurnableToken implementation)\n\t/**\n\t* @notice This function should be called only by owner\n\t* @param _who address\n\t* @param _value amount of tokens which will be burned\n\t*/\n\tfunction _burn(address _who, uint256 _value) internal {\n\t\tupdateCopyOnWriteMap(_who);\n\t\tsuper._burn(_who, _value);\n\t}\n\n//// \n\t// TODO: onlyOwner!\n\t/**\n\t* @return index of the new event\n\t* @dev should be called when new voting created\n\t*/\n\tfunction startNewEvent() public returns(uint) {\n\t\tfor(uint i = 0; i < 20; i++) {\n\t\t\tif(!events[i].isEventInProgress) {\n\t\t\t\tevents[i].isEventInProgress = true;\n\t\t\t\tevents[i].eventStartTime = block.timestamp;\n\n\t\t\t\temit EventStarted(msg.sender, i);\n\t\t\t\treturn i;\n\t\t\t}\n\t\t}\n\t\trevert(); //all slots busy at the moment\n\t}\n\n\t// TODO: onlyOwner!\n\t/**\n\t* @dev should be called when voting finished and dont need slot anymore\n\t*/\n\tfunction finishEvent(uint _eventID) public {\n\t\trequire(events[_eventID].isEventInProgress);\n\t\tevents[_eventID].isEventInProgress = false;\n\n\t\temit EventFinished(msg.sender, _eventID);\n\t}\n\t\n\t/**\n\t* @param _eventID id of voting\n\t* @param _for account\n\t* @return balance for account _for before starting voting\n\t*/\n\tfunction getBalanceAtEventStart(uint _eventID, address _for) public view returns(uint256) {\n\t\trequire(events[_eventID].isEventInProgress);\n\n\t\tif(!isBalanceWasChangedAfterEventStarted(_eventID, _for)) {\n\t\t\treturn balances[_for];\n\t\t}\n\n\t\treturn events[_eventID].holders[_for].balance;\n\t}\n\n// Internal methods:\n\t/**\n\t* @param _from account\n\t* @param _to account\n\t* @dev updates balances of the accounts before transfer\n\t*/\n\tfunction updateCopyOnWriteMaps(address _from, address _to) internal {\n\t\tupdateCopyOnWriteMap(_to);\n\t\tupdateCopyOnWriteMap(_from);\n\t}\n\n\t/**\n\t* @param _for account\n\t* @dev updates balances of the accounts before transfer\n\t*/\n\tfunction updateCopyOnWriteMap(address _for) internal {\n\t\tfor(uint i = 0; i < 20; i++) {\n\t\t\tbool res = isNeedToUpdateBalancesMap(i, _for);\n\t\t\tif(res) {\n\t\t\t\tevents[i].holders[_for].balance = balances[_for];\n\t\t\t\tevents[i].holders[_for].lastUpdateTime = block.timestamp;\n\t\t\t}\n\t\t}\n\t}\n\n\t/**\n\t* @param _eventID event(voting) id\n\t* @param _for account\n\t* @return true if balances map needs to be updated, when balances changed after voting started\n\t*/\n\tfunction isNeedToUpdateBalancesMap(uint _eventID, address _for) internal returns(bool) {\n\t\treturn events[_eventID].isEventInProgress && !isBalanceWasChangedAfterEventStarted(_eventID, _for);\n\t}\n\n\t/**\n\t* @param _eventID event(voting) id\n\t* @param _for account\n\t* @return true if balances changed after voting started\n\t*/\n\tfunction isBalanceWasChangedAfterEventStarted(uint _eventID, address _for) internal view returns(bool) {\n\t\treturn (events[_eventID].holders[_for].lastUpdateTime >= events[_eventID].eventStartTime);\n\t}\n}\n",
  "sourcePath": "@thetta/core/contracts/tokens/CopyOnWriteToken.sol",
  "compiler": {
    "name": "solc",
    "version": "0.4.24+commit.e67f0147.Emscripten.clang"
  },
  "schemaVersion": "2.0.1",
  "updatedAt": "2018-09-09T10:03:55.736Z"
}