{
  "contractName": "DaoBaseLib",
  "abi": [
    {
      "constant": false,
      "inputs": [
        {
          "name": "_daoStorage",
          "type": "DaoStorage"
        },
        {
          "name": "_new",
          "type": "IDaoBase"
        }
      ],
      "name": "upgradeDaoContract",
      "outputs": [],
      "payable": false,
      "stateMutability": "nonpayable",
      "type": "function"
    },
    {
      "constant": true,
      "inputs": [
        {
          "name": "_daoStorage",
          "type": "DaoStorage"
        },
        {
          "name": "_a",
          "type": "address"
        },
        {
          "name": "_permissionNameHash",
          "type": "bytes32"
        }
      ],
      "name": "isCanDoAction",
      "outputs": [
        {
          "name": "",
          "type": "bool"
        }
      ],
      "payable": false,
      "stateMutability": "view",
      "type": "function"
    },
    {
      "constant": false,
      "inputs": [
        {
          "name": "_daoStorage",
          "type": "DaoStorage"
        },
        {
          "name": "_tokenAddress",
          "type": "address"
        },
        {
          "name": "_to",
          "type": "address"
        },
        {
          "name": "_amount",
          "type": "uint256"
        }
      ],
      "name": "issueTokens",
      "outputs": [],
      "payable": false,
      "stateMutability": "nonpayable",
      "type": "function"
    },
    {
      "constant": false,
      "inputs": [
        {
          "name": "_daoStorage",
          "type": "DaoStorage"
        },
        {
          "name": "_tokenAddress",
          "type": "address"
        },
        {
          "name": "_who",
          "type": "address"
        },
        {
          "name": "_amount",
          "type": "uint256"
        }
      ],
      "name": "burnTokens",
      "outputs": [],
      "payable": false,
      "stateMutability": "nonpayable",
      "type": "function"
    },
    {
      "constant": true,
      "inputs": [
        {
          "name": "_s",
          "type": "string"
        }
      ],
      "name": "stringHash",
      "outputs": [
        {
          "name": "",
          "type": "bytes32"
        }
      ],
      "payable": false,
      "stateMutability": "pure",
      "type": "function"
    },
    {
      "constant": true,
      "inputs": [
        {
          "name": "_daoStorage",
          "type": "DaoStorage"
        },
        {
          "name": "_p",
          "type": "address"
        }
      ],
      "name": "getProposalVotingResults",
      "outputs": [
        {
          "name": "isVotingFound",
          "type": "bool"
        },
        {
          "name": "votingResult",
          "type": "bool"
        }
      ],
      "payable": false,
      "stateMutability": "view",
      "type": "function"
    }
  ],
  "bytecode": "0x6114bd610030600b82828239805160001a6073146000811461002057610022565bfe5b5030600052607381538281f30073000000000000000000000000000000000000000030146080604052600436106100755763ffffffff60e060020a6000350416630b0e7f15811461007a578063432600eb146100d8578063493554b51461010a5780636737fdb11461013f5780639419fd3414610166578063b456f94b14610196575b600080fd5b6040805160206004803580820135601f81018490048402850184019095528484526100c69436949293602493928401919081908401838280828437509497506101c79650505050505050565b60408051918252519081900360200190f35b8180156100e457600080fd5b50610108600160a060020a0360043581169060243581169060443516606435610291565b005b610124600160a060020a03600435811690602435166104b5565b60408051921515835290151560208301528051918290030190f35b81801561014b57600080fd5b50610108600160a060020a03600435811690602435166107dc565b81801561017257600080fd5b50610108600160a060020a0360043581169060243581169060443516606435610b36565b6101b3600160a060020a0360043581169060243516604435610d3d565b604080519115158252519081900360200190f35b6000816040516020018082805190602001908083835b602083106101fc5780518252601f1990920191602091820191016101dd565b6001836020036101000a0380198251168184511680821785525050505050509050019150506040516020818303038152906040526040518082805190602001908083835b6020831061025f5780518252601f199092019160209182019101610240565b5181516020939093036101000a6000190180199091169216919091179052604051920182900390912095945050505050565b60005b84600160a060020a0316633962f82d6040518163ffffffff1660e060020a028152600401602060405180830381600087803b1580156102d257600080fd5b505af11580156102e6573d6000803e3d6000fd5b505050506040513d60208110156102fc57600080fd5b50518110156100755783600160a060020a031685600160a060020a03166397988dce836040518263ffffffff1660e060020a02815260040180828152602001915050602060405180830381600087803b15801561035857600080fd5b505af115801561036c573d6000803e3d6000fd5b505050506040513d602081101561038257600080fd5b5051600160a060020a031614156104a65784600160a060020a03166397988dce826040518263ffffffff1660e060020a02815260040180828152602001915050602060405180830381600087803b1580156103dc57600080fd5b505af11580156103f0573d6000803e3d6000fd5b505050506040513d602081101561040657600080fd5b5051604080517fda1919b3000000000000000000000000000000000000000000000000000000008152600160a060020a038681166004830152602482018690529151919092169163da1919b39160448083019260209291908290030181600087803b15801561047457600080fd5b505af1158015610488573d6000803e3d6000fd5b505050506040513d602081101561049e57600080fd5b506104ae9050565b600101610294565b5050505050565b60008080805b85600160a060020a03166398e527d36040518163ffffffff1660e060020a028152600401602060405180830381600087803b1580156104f957600080fd5b505af115801561050d573d6000803e3d6000fd5b505050506040513d602081101561052357600080fd5b50518210156107cb5784600160a060020a031686600160a060020a0316638b979f51846040518263ffffffff1660e060020a02815260040180828152602001915050602060405180830381600087803b15801561057f57600080fd5b505af1158015610593573d6000803e3d6000fd5b505050506040513d60208110156105a957600080fd5b5051600160a060020a031614156107c05785600160a060020a0316638b979f51836040518263ffffffff1660e060020a02815260040180828152602001915050602060405180830381600087803b15801561060357600080fd5b505af1158015610617573d6000803e3d6000fd5b505050506040513d602081101561062d57600080fd5b5051604080517f1986d3760000000000000000000000000000000000000000000000000000000081529051600160a060020a0390921691631986d376916004808201926020929091908290030181600087803b15801561068c57600080fd5b505af11580156106a0573d6000803e3d6000fd5b505050506040513d60208110156106b657600080fd5b5051604080517f7b3529620000000000000000000000000000000000000000000000000000000081529051919250600191600160a060020a03841691637b3529629160048083019260209291908290030181600087803b15801561071957600080fd5b505af115801561072d573d6000803e3d6000fd5b505050506040513d602081101561074357600080fd5b505180156107b7575081600160a060020a031663983babb46040518163ffffffff1660e060020a028152600401602060405180830381600087803b15801561078a57600080fd5b505af115801561079e573d6000803e3d6000fd5b505050506040513d60208110156107b457600080fd5b50515b935093506107d3565b8160010191506104bb565b600080935093505b50509250929050565b60005b82600160a060020a03166362ea77966040518163ffffffff1660e060020a028152600401602060405180830381600087803b15801561081d57600080fd5b505af1158015610831573d6000803e3d6000fd5b505050506040513d602081101561084757600080fd5b505181101561094c5782600160a060020a031663601fc832826040518263ffffffff1660e060020a02815260040180828152602001915050602060405180830381600087803b15801561089957600080fd5b505af11580156108ad573d6000803e3d6000fd5b505050506040513d60208110156108c357600080fd5b5051604080517ffa34c84e000000000000000000000000000000000000000000000000000000008152600160a060020a0385811660048301529151919092169163fa34c84e91602480830192600092919082900301818387803b15801561092957600080fd5b505af115801561093d573d6000803e3d6000fd5b505050508060010190506107df565b82600160a060020a031663f2fde38b836040518263ffffffff1660e060020a0281526004018082600160a060020a0316600160a060020a03168152602001915050600060405180830381600087803b1580156109a757600080fd5b505af11580156109bb573d6000803e3d6000fd5b50505050600090505b82600160a060020a0316633962f82d6040518163ffffffff1660e060020a028152600401602060405180830381600087803b158015610a0257600080fd5b505af1158015610a16573d6000803e3d6000fd5b505050506040513d6020811015610a2c57600080fd5b5051811015610b315782600160a060020a03166397988dce826040518263ffffffff1660e060020a02815260040180828152602001915050602060405180830381600087803b158015610a7e57600080fd5b505af1158015610a92573d6000803e3d6000fd5b505050506040513d6020811015610aa857600080fd5b5051604080517ff2fde38b000000000000000000000000000000000000000000000000000000008152600160a060020a0385811660048301529151919092169163f2fde38b91602480830192600092919082900301818387803b158015610b0e57600080fd5b505af1158015610b22573d6000803e3d6000fd5b505050508060010190506109c4565b505050565b60005b84600160a060020a0316633962f82d6040518163ffffffff1660e060020a028152600401602060405180830381600087803b158015610b7757600080fd5b505af1158015610b8b573d6000803e3d6000fd5b505050506040513d6020811015610ba157600080fd5b50518110156100755783600160a060020a031685600160a060020a03166397988dce836040518263ffffffff1660e060020a02815260040180828152602001915050602060405180830381600087803b158015610bfd57600080fd5b505af1158015610c11573d6000803e3d6000fd5b505050506040513d6020811015610c2757600080fd5b5051600160a060020a03161415610d355784600160a060020a03166397988dce826040518263ffffffff1660e060020a02815260040180828152602001915050602060405180830381600087803b158015610c8157600080fd5b505af1158015610c95573d6000803e3d6000fd5b505050506040513d6020811015610cab57600080fd5b5051604080517f1dd319cb000000000000000000000000000000000000000000000000000000008152600160a060020a0386811660048301526024820186905291519190921691631dd319cb91604480830192600092919082900301818387803b158015610d1857600080fd5b505af1158015610d2c573d6000803e3d6000fd5b505050506104ae565b600101610b39565b604080517f079e53df00000000000000000000000000000000000000000000000000000000815260048101839052600160a060020a038481166024830152915160009286928492839283928392839288169163079e53df91604480830192602092919082900301818787803b158015610db557600080fd5b505af1158015610dc9573d6000803e3d6000fd5b505050506040513d6020811015610ddf57600080fd5b505115610def5760019650611484565b604080517fda9c5488000000000000000000000000000000000000000000000000000000008152600481018a9052600160a060020a038b8116602483015291519188169163da9c5488916044808201926020929091908290030181600087803b158015610e5b57600080fd5b505af1158015610e6f573d6000803e3d6000fd5b505050506040513d6020811015610e8557600080fd5b505115610e955760019650611484565b600094505b85600160a060020a0316633962f82d6040518163ffffffff1660e060020a028152600401602060405180830381600087803b158015610ed857600080fd5b505af1158015610eec573d6000803e3d6000fd5b505050506040513d6020811015610f0257600080fd5b505185101561147f5785600160a060020a031663f9e6579b8988600160a060020a03166397988dce896040518263ffffffff1660e060020a02815260040180828152602001915050602060405180830381600087803b158015610f6457600080fd5b505af1158015610f78573d6000803e3d6000fd5b505050506040513d6020811015610f8e57600080fd5b50516040805160e060020a63ffffffff86160281526004810193909352600160a060020a0390911660248301525160448083019260209291908290030181600087803b158015610fdd57600080fd5b505af1158015610ff1573d6000803e3d6000fd5b505050506040513d602081101561100757600080fd5b50518015611119575085600160a060020a03166397988dce866040518263ffffffff1660e060020a02815260040180828152602001915050602060405180830381600087803b15801561105957600080fd5b505af115801561106d573d6000803e3d6000fd5b505050506040513d602081101561108357600080fd5b5051604080517f70a08231000000000000000000000000000000000000000000000000000000008152600160a060020a038c81166004830152915191909216916370a082319160248083019260209291908290030181600087803b1580156110ea57600080fd5b505af11580156110fe573d6000803e3d6000fd5b505050506040513d602081101561111457600080fd5b505115155b156111275760019650611484565b85600160a060020a031663ee5cdecd8988600160a060020a03166397988dce896040518263ffffffff1660e060020a02815260040180828152602001915050602060405180830381600087803b15801561118057600080fd5b505af1158015611194573d6000803e3d6000fd5b505050506040513d60208110156111aa57600080fd5b50516040805160e060020a63ffffffff86160281526004810193909352600160a060020a0390911660248301525160448083019260209291908290030181600087803b1580156111f957600080fd5b505af115801561120d573d6000803e3d6000fd5b505050506040513d602081101561122357600080fd5b50519350831561147457600092506000915061123f8a8a6104b5565b9093509150821561125257819650611484565b600286600160a060020a03166397988dce876040518263ffffffff1660e060020a02815260040180828152602001915050602060405180830381600087803b15801561129d57600080fd5b505af11580156112b1573d6000803e3d6000fd5b505050506040513d60208110156112c757600080fd5b5051604080517f18160ddd0000000000000000000000000000000000000000000000000000000081529051600160a060020a03909216916318160ddd916004808201926020929091908290030181600087803b15801561132657600080fd5b505af115801561133a573d6000803e3d6000fd5b505050506040513d602081101561135057600080fd5b505181151561135b57fe5b0486600160a060020a03166397988dce876040518263ffffffff1660e060020a02815260040180828152602001915050602060405180830381600087803b1580156113a557600080fd5b505af11580156113b9573d6000803e3d6000fd5b505050506040513d60208110156113cf57600080fd5b5051604080517f70a08231000000000000000000000000000000000000000000000000000000008152600160a060020a038d81166004830152915191909216916370a082319160248083019260209291908290030181600087803b15801561143657600080fd5b505af115801561144a573d6000803e3d6000fd5b505050506040513d602081101561146057600080fd5b505111905080156114745760019650611484565b846001019450610e9a565b600096505b50505050505093925050505600a165627a7a723058203e6cfd6be2399acfe912f7cd72f5748e74e5b616798a48239250be188368645b0029",
  "source": "pragma solidity ^0.4.22;\n\nimport \"./utils/UtilsLib.sol\";\nimport \"./DaoStorage.sol\";\n\n\nlibrary DaoBaseLib {\n\n\t/**\n\t* @param _daoStorage storage\n\t* @param _new new DaoBase instance (address)\n    * @dev this function upgrades DAO instance\n\t*/\n\tfunction upgradeDaoContract(DaoStorage _daoStorage, IDaoBase _new) public {\n\t\tfor(uint i=0; i<_daoStorage.getObserversCount(); ++i) {\n\t\t\tIDaoObserver(_daoStorage.getObserverAtIndex(i)).onUpgrade(_new);\n\t\t}\n\n\t\t_daoStorage.transferOwnership(_new);\n\n\t\tfor(i=0; i<_daoStorage.getTokensCount(); ++i) { // transfer ownership of all tokens (this -> _new)\n\t\t\t_daoStorage.getTokenAtIndex(i).transferOwnership(_new);\n\t\t}\n\t}\n\n\t/**\n\t* @param _daoStorage storage\n\t* @param _a address\n\t* @param _permissionNameHash permission name in hash\n    * @dev return true if address _a have permissions with hash __permissionNameHash\n\t*/\n\tfunction isCanDoAction(DaoStorage _daoStorage, address _a, bytes32 _permissionNameHash) public view returns(bool) {\n\t\t// 0 - is can do by address?\n\t\tDaoStorage store = DaoStorage(_daoStorage);\n\n\t\tif(store.isAllowedActionByAddress(_permissionNameHash, _a)) {\n\t\t\treturn true;\n\t\t}\n\n\t\t// 1 - check if group member can do that without voting?\n\t\tif(store.isAllowedActionByMembership(_permissionNameHash, _a)) {\n\t\t\treturn true;\n\t\t}\n\n\t\tfor(uint i=0; i<store.getTokensCount(); ++i) {\n\t\t\t// 2 - check if shareholder can do that without voting?\n\t\t\tif(store.isAllowedActionByShareholder(_permissionNameHash, store.getTokenAtIndex(i)) && \n\t\t\t\t(store.getTokenAtIndex(i).balanceOf(_a) != 0)) {\n\t\t\t\treturn true;\n\t\t\t}\n\t\t\t// 3 - can do action only by starting new vote first?\n\t\t\tbool isCan = store.isAllowedActionByVoting(_permissionNameHash, store.getTokenAtIndex(i));\n\t\t\tif(isCan) {\n\t\t\t\tbool isVotingFound = false;\n\t\t\t\tbool votingResult = false;\n\t\t\t\t(isVotingFound, votingResult) = getProposalVotingResults(_daoStorage, _a);\n\t\t\t\tif(isVotingFound) {\n\t\t\t\t\t// if this action can be done by voting, then Proposal can do this action \n\t\t\t\t\t// from within its context in this case msg.sender is a Voting!\n\t\t\t\t\treturn votingResult;\n\t\t\t\t}\n\t\t\t\t// 4 - only token holders with > 51% of gov.tokens can add new task immediately, otherwise -> start voting\n\t\t\t\tbool isInMajority = \n\t\t\t\t\t(store.getTokenAtIndex(i).balanceOf(_a)) >\n\t\t\t\t\t(store.getTokenAtIndex(i).totalSupply() / 2);\n\t\t\t\tif(isInMajority) {\n\t\t\t\t\treturn true;\n\t\t\t\t}\n\t\t\t}\n\t\t}\n\n\t\treturn false;\n\t}\n\n\t/**\n\t* @param _daoStorage storage\n\t* @param _tokenAddress address of token\n\t* @param _to address who gets issued tokens\n\t* @param _amount amount of tokens which will be issued\n\t* @dev this function issue tokens for address _to\n\t*/\n\tfunction issueTokens(DaoStorage _daoStorage, address _tokenAddress, address _to, uint _amount) public {\n\t\tfor(uint i=0; i<DaoStorage(_daoStorage).getTokensCount(); ++i) {\n\t\t\tif(DaoStorage(_daoStorage).getTokenAtIndex(i) == _tokenAddress) {\n\t\t\t\t// WARNING: token ownership should be transferred to the current DaoBase to do that!!!\n\t\t\t\tDaoStorage(_daoStorage).getTokenAtIndex(i).mintFor(_to, _amount);\n\t\t\t\treturn;\n\t\t\t}\n\t\t}\n\n\t\trevert(); // if not found!\n\t}\n\n\t/**\n\t* @param _daoStorage storage\n\t* @param _tokenAddress address of token\n\t* @param _who address whose tokens will be burned\n\t* @param _amount amount of tokens which will be burned\n\t* @dev this function burn tokens for address _who\n\t*/\n\tfunction burnTokens(DaoStorage _daoStorage, address _tokenAddress, address _who, uint _amount) public {\n\t\tfor(uint i=0; i<DaoStorage(_daoStorage).getTokensCount(); ++i) {\n\t\t\tif(DaoStorage(_daoStorage).getTokenAtIndex(i) == _tokenAddress) {\n\t\t\t\t// WARNING: token ownership should be transferred to the current DaoBase to do that!!!\n\t\t\t\tDaoStorage(_daoStorage).getTokenAtIndex(i).burnFor(_who, _amount);\n\t\t\t\treturn;\n\t\t\t}\n\t\t}\n\n\t\trevert(); // if not found!\n\t}\t\n\n\t/**\n\t* @param _s string\n\t* @return hash for string _s\n\t*/\n\tfunction stringHash(string _s) public pure returns(bytes32) {\n\t\treturn keccak256(abi.encodePacked(_s));\n\t}\n\n\t/**\n\t* @param _daoStorage storage\n\t* @param _p address of the proposal\n\t* @return [true, true] if voting found and voting result is yes, \n\t* [true, false] if voting found and voting result is no, \n\t* [false, false] if voting not found\n\t*/\n\tfunction getProposalVotingResults(DaoStorage _daoStorage, address _p) public view returns (bool isVotingFound, bool votingResult) {\n\t\t// scan all votings and search for the one that is finished\n\t\tfor(uint i=0; i<DaoStorage(_daoStorage).getProposalsCount(); ++i) {\n\t\t\tif(DaoStorage(_daoStorage).getProposalAtIndex(i) == _p) {\n\t\t\t\tIVoting voting = DaoStorage(_daoStorage).getProposalAtIndex(i).getVoting();\n\t\t\t\treturn (true, voting.isFinished() && voting.isYes());\n\t\t\t}\n\t\t}\n\n\t\treturn (false, false);\n\t}\n}\n",
  "sourcePath": "@thetta/core/contracts/DaoBaseLib.sol",
  "compiler": {
    "name": "solc",
    "version": "0.4.24+commit.e67f0147.Emscripten.clang"
  },
  "schemaVersion": "2.0.1",
  "updatedAt": "2018-09-09T10:03:55.731Z"
}