{
  "contractName": "DutchAuction",
  "abi": [
    {
      "constant": false,
      "inputs": [
        {
          "name": "_duration",
          "type": "uint256"
        }
      ],
      "name": "setMinDuration",
      "outputs": [],
      "payable": false,
      "stateMutability": "nonpayable",
      "type": "function"
    },
    {
      "constant": false,
      "inputs": [],
      "name": "unpause",
      "outputs": [],
      "payable": false,
      "stateMutability": "nonpayable",
      "type": "function"
    },
    {
      "constant": true,
      "inputs": [],
      "name": "scrapCounter",
      "outputs": [
        {
          "name": "",
          "type": "uint8"
        }
      ],
      "payable": false,
      "stateMutability": "view",
      "type": "function"
    },
    {
      "constant": true,
      "inputs": [],
      "name": "minDuration",
      "outputs": [
        {
          "name": "",
          "type": "uint256"
        }
      ],
      "payable": false,
      "stateMutability": "view",
      "type": "function"
    },
    {
      "constant": true,
      "inputs": [],
      "name": "paused",
      "outputs": [
        {
          "name": "",
          "type": "bool"
        }
      ],
      "payable": false,
      "stateMutability": "view",
      "type": "function"
    },
    {
      "constant": true,
      "inputs": [],
      "name": "maxDuration",
      "outputs": [
        {
          "name": "",
          "type": "uint256"
        }
      ],
      "payable": false,
      "stateMutability": "view",
      "type": "function"
    },
    {
      "constant": false,
      "inputs": [],
      "name": "renounceOwnership",
      "outputs": [],
      "payable": false,
      "stateMutability": "nonpayable",
      "type": "function"
    },
    {
      "constant": true,
      "inputs": [],
      "name": "ownerCut",
      "outputs": [
        {
          "name": "",
          "type": "uint256"
        }
      ],
      "payable": false,
      "stateMutability": "view",
      "type": "function"
    },
    {
      "constant": false,
      "inputs": [],
      "name": "pause",
      "outputs": [],
      "payable": false,
      "stateMutability": "nonpayable",
      "type": "function"
    },
    {
      "constant": true,
      "inputs": [],
      "name": "owner",
      "outputs": [
        {
          "name": "",
          "type": "address"
        }
      ],
      "payable": false,
      "stateMutability": "view",
      "type": "function"
    },
    {
      "constant": false,
      "inputs": [
        {
          "name": "_duration",
          "type": "uint256"
        }
      ],
      "name": "setMaxDuration",
      "outputs": [],
      "payable": false,
      "stateMutability": "nonpayable",
      "type": "function"
    },
    {
      "constant": true,
      "inputs": [
        {
          "name": "",
          "type": "uint256"
        }
      ],
      "name": "lastScrapPrices",
      "outputs": [
        {
          "name": "",
          "type": "uint256"
        }
      ],
      "payable": false,
      "stateMutability": "view",
      "type": "function"
    },
    {
      "constant": true,
      "inputs": [],
      "name": "nftContract",
      "outputs": [
        {
          "name": "",
          "type": "address"
        }
      ],
      "payable": false,
      "stateMutability": "view",
      "type": "function"
    },
    {
      "constant": false,
      "inputs": [
        {
          "name": "_newOwner",
          "type": "address"
        }
      ],
      "name": "transferOwnership",
      "outputs": [],
      "payable": false,
      "stateMutability": "nonpayable",
      "type": "function"
    },
    {
      "inputs": [
        {
          "name": "_nftAddress",
          "type": "address"
        },
        {
          "name": "_fee",
          "type": "uint256"
        }
      ],
      "payable": false,
      "stateMutability": "nonpayable",
      "type": "constructor"
    },
    {
      "anonymous": false,
      "inputs": [
        {
          "indexed": false,
          "name": "",
          "type": "string"
        },
        {
          "indexed": false,
          "name": "",
          "type": "address"
        },
        {
          "indexed": false,
          "name": "",
          "type": "uint256"
        }
      ],
      "name": "PrintEvent",
      "type": "event"
    },
    {
      "anonymous": false,
      "inputs": [
        {
          "indexed": false,
          "name": "tokenId",
          "type": "uint256"
        },
        {
          "indexed": false,
          "name": "startPrice",
          "type": "uint256"
        },
        {
          "indexed": false,
          "name": "endPrice",
          "type": "uint256"
        },
        {
          "indexed": false,
          "name": "duration",
          "type": "uint64"
        },
        {
          "indexed": false,
          "name": "start",
          "type": "uint64"
        }
      ],
      "name": "AuctionCreated",
      "type": "event"
    },
    {
      "anonymous": false,
      "inputs": [
        {
          "indexed": false,
          "name": "tokenId",
          "type": "uint256"
        },
        {
          "indexed": false,
          "name": "totalPrice",
          "type": "uint256"
        },
        {
          "indexed": false,
          "name": "winner",
          "type": "address"
        }
      ],
      "name": "AuctionSuccessful",
      "type": "event"
    },
    {
      "anonymous": false,
      "inputs": [
        {
          "indexed": false,
          "name": "tokenId",
          "type": "uint256"
        }
      ],
      "name": "AuctionCancelled",
      "type": "event"
    },
    {
      "anonymous": false,
      "inputs": [],
      "name": "Pause",
      "type": "event"
    },
    {
      "anonymous": false,
      "inputs": [],
      "name": "Unpause",
      "type": "event"
    },
    {
      "anonymous": false,
      "inputs": [
        {
          "indexed": true,
          "name": "previousOwner",
          "type": "address"
        }
      ],
      "name": "OwnershipRenounced",
      "type": "event"
    },
    {
      "anonymous": false,
      "inputs": [
        {
          "indexed": true,
          "name": "previousOwner",
          "type": "address"
        },
        {
          "indexed": true,
          "name": "newOwner",
          "type": "address"
        }
      ],
      "name": "OwnershipTransferred",
      "type": "event"
    },
    {
      "constant": false,
      "inputs": [],
      "name": "withdrawBalance",
      "outputs": [],
      "payable": false,
      "stateMutability": "nonpayable",
      "type": "function"
    },
    {
      "constant": false,
      "inputs": [
        {
          "name": "_partId",
          "type": "uint256"
        },
        {
          "name": "_startPrice",
          "type": "uint256"
        },
        {
          "name": "_endPrice",
          "type": "uint256"
        },
        {
          "name": "_duration",
          "type": "uint256"
        },
        {
          "name": "_seller",
          "type": "address"
        }
      ],
      "name": "createAuction",
      "outputs": [],
      "payable": false,
      "stateMutability": "nonpayable",
      "type": "function"
    },
    {
      "constant": false,
      "inputs": [
        {
          "name": "_partId",
          "type": "uint256"
        }
      ],
      "name": "purchase",
      "outputs": [],
      "payable": true,
      "stateMutability": "payable",
      "type": "function"
    },
    {
      "constant": true,
      "inputs": [],
      "name": "averageScrapPrice",
      "outputs": [
        {
          "name": "",
          "type": "uint256"
        }
      ],
      "payable": false,
      "stateMutability": "view",
      "type": "function"
    },
    {
      "constant": false,
      "inputs": [
        {
          "name": "_partId",
          "type": "uint256"
        }
      ],
      "name": "cancelAuction",
      "outputs": [],
      "payable": false,
      "stateMutability": "nonpayable",
      "type": "function"
    },
    {
      "constant": true,
      "inputs": [
        {
          "name": "_partId",
          "type": "uint256"
        }
      ],
      "name": "getCurrentPrice",
      "outputs": [
        {
          "name": "",
          "type": "uint256"
        }
      ],
      "payable": false,
      "stateMutability": "view",
      "type": "function"
    },
    {
      "constant": true,
      "inputs": [
        {
          "name": "_partId",
          "type": "uint256"
        }
      ],
      "name": "getAuction",
      "outputs": [
        {
          "name": "seller",
          "type": "address"
        },
        {
          "name": "startPrice",
          "type": "uint256"
        },
        {
          "name": "endPrice",
          "type": "uint256"
        },
        {
          "name": "duration",
          "type": "uint256"
        },
        {
          "name": "startedAt",
          "type": "uint256"
        }
      ],
      "payable": false,
      "stateMutability": "view",
      "type": "function"
    },
    {
      "constant": false,
      "inputs": [
        {
          "name": "_partId",
          "type": "uint256"
        }
      ],
      "name": "cancelAuctionWhenPaused",
      "outputs": [],
      "payable": false,
      "stateMutability": "nonpayable",
      "type": "function"
    }
  ],
  "bytecode": "0x60806040526000805460a060020a60ff02191690556006805460ff1916905534801561002a57600080fd5b5060405160408061136b83398101604052805160209091015160008054600160a060020a03191633179055610e1060035562278d0060045561271081111561007157600080fd5b60025560018054600160a060020a031916600160a060020a03929092169190911790556112c8806100a36000396000f3006080604052600436106101275763ffffffff7c01000000000000000000000000000000000000000000000000000000006000350416631674bade811461012c57806325b56dd41461014657806327ebe40a1461016d5780633f4ba83a1461019a5780634866352b146101af57806356715761146101da5780635c975abb146101ef5780635fd8c710146102185780636db5c8fd1461022d578063715018a61461024257806378bd79351461025757806383b5ff8b146102a45780638456cb59146102b9578063878eb368146102ce5780638da5cb5b146102e657806396b5a75514610317578063c55d0f561461032f578063cf0f34c414610347578063d12f627a1461035f578063d56d229d14610377578063efef39a11461038c578063f2fde38b14610397575b600080fd5b34801561013857600080fd5b506101446004356103b8565b005b34801561015257600080fd5b5061015b6103d4565b60408051918252519081900360200190f35b34801561017957600080fd5b50610144600435602435604435606435600160a060020a036084351661040e565b3480156101a657600080fd5b50610144610648565b3480156101bb57600080fd5b506101c46106be565b6040805160ff9092168252519081900360200190f35b3480156101e657600080fd5b5061015b6106c7565b3480156101fb57600080fd5b506102046106cd565b604080519115158252519081900360200190f35b34801561022457600080fd5b506101446106dd565b34801561023957600080fd5b5061015b61074a565b34801561024e57600080fd5b50610144610750565b34801561026357600080fd5b5061026f6004356107bc565b60408051600160a060020a03909616865260208601949094528484019290925260608401526080830152519081900360a00190f35b3480156102b057600080fd5b5061015b610887565b3480156102c557600080fd5b5061014461088d565b3480156102da57600080fd5b50610144600435610908565b3480156102f257600080fd5b506102fb6109cb565b60408051600160a060020a039092168252519081900360200190f35b34801561032357600080fd5b506101446004356109da565b34801561033b57600080fd5b5061015b600435610a7e565b34801561035357600080fd5b50610144600435610b0a565b34801561036b57600080fd5b5061015b600435610b26565b34801561038357600080fd5b506102fb610b3a565b610144600435610b49565b3480156103a357600080fd5b50610144600160a060020a0360043516610bf8565b600054600160a060020a031633146103cf57600080fd5b600355565b600080805b600560ff8216101561040457600760ff8216600581106103f557fe5b015491909101906001016103d9565b5060059004919050565b61041661126e565b60005460a060020a900460ff161561042d57600080fd5b6fffffffffffffffffffffffffffffffff8516851461044b57600080fd5b6fffffffffffffffffffffffffffffffff8416841461046957600080fd5b67ffffffffffffffff8316831461047f57600080fd5b8385101561048c57600080fd5b600154604080517f6352211e0000000000000000000000000000000000000000000000000000000081526004810189905290513392600160a060020a031691636352211e9160248083019260209291908290030181600087803b1580156104f257600080fd5b505af1158015610506573d6000803e3d6000fd5b505050506040513d602081101561051c57600080fd5b5051600160a060020a03161461053157600080fd5b61053b8287610c1b565b60a06040519081016040528083600160a060020a03168152602001866fffffffffffffffffffffffffffffffff168152602001856fffffffffffffffffffffffffffffffff1681526020018467ffffffffffffffff1681526020014267ffffffffffffffff1681525090507f32c2dc5a7eced7da22ae1dec308cdc0105575c8283f2bf2c1028419f964b03ba60008260800151604051808060200184600160a060020a031681526020018367ffffffffffffffff1681526020018281038252600d8152602001807f41756374696f6e20537461727400000000000000000000000000000000000000815250602001935050505060405180910390a16106408682610ca1565b505050505050565b600054600160a060020a0316331461065f57600080fd5b60005460a060020a900460ff16151561067757600080fd5b6000805474ff0000000000000000000000000000000000000000191681556040517f7805862f689e2f13df9f062ff482ad3ad112aca9e0847911ed832e158c525b339190a1565b60065460ff1681565b60035481565b60005460a060020a900460ff1681565b600154600054600160a060020a039182169116331480610705575033600160a060020a038216145b151561071057600080fd5b604051600160a060020a03821690303180156108fc02916000818181858888f19350505050158015610746573d6000803e3d6000fd5b5050565b60045481565b600054600160a060020a0316331461076757600080fd5b60008054604051600160a060020a03909116917ff8df31144d9c2f0f6b59d69b8b98abd5459d07f2742c4df920b25aae33c6482091a26000805473ffffffffffffffffffffffffffffffffffffffff19169055565b6000818152600560209081526040808320815160a0810183528154600160a060020a03168152600182015493810193909352600281015491830191909152600381015467ffffffffffffffff80821660608501526801000000000000000090910416608083015282918291829182919061083590610dd3565b151561084057600080fd5b805460018201546002830154600390930154600160a060020a039092169990985091965067ffffffffffffffff808216965068010000000000000000909104169350915050565b60025481565b600054600160a060020a031633146108a457600080fd5b60005460a060020a900460ff16156108bb57600080fd5b6000805474ff0000000000000000000000000000000000000000191660a060020a1781556040517f6985a02210a168e66602d3235cb6db0e70f92b3ba4d376a33c0f3d9434bff6259190a1565b6000805460a060020a900460ff16151561092157600080fd5b600054600160a060020a0316331461093857600080fd5b50600081815260056020908152604091829020825160a0810184528154600160a060020a03168152600182015492810192909252600281015492820192909252600382015467ffffffffffffffff8082166060840152680100000000000000009091041660808201526109aa90610dd3565b15156109b557600080fd5b8054610746908390600160a060020a0316610de9565b600054600160a060020a031681565b6000818152600560209081526040808320815160a0810183528154600160a060020a03168152600182015493810193909352600281015491830191909152600381015467ffffffffffffffff8082166060850152680100000000000000009091041660808301529190610a4c90610dd3565b1515610a5757600080fd5b508054600160a060020a0316338114610a6f57600080fd5b610a798382610de9565b505050565b6000818152600560209081526040808320815160a0810183528154600160a060020a03168152600182015493810193909352600281015491830191909152600381015467ffffffffffffffff80821660608501526801000000000000000090910416608083015290610aef90610dd3565b1515610afa57600080fd5b610b0381610e33565b9392505050565b600054600160a060020a03163314610b2157600080fd5b600455565b60078160058110610b3357fe5b0154905081565b600154600160a060020a031681565b60008054819060a060020a900460ff1615610b6357600080fd5b600083815260056020526040902054600160a060020a03169150610b878334610e6e565b9050610b9333846110d7565b600154600160a060020a0383811691161415610a7957600654819060079060ff1660058110610bbe57fe5b015560065460ff1660041415610bdd576006805460ff19169055610a79565b6006805460ff8082166001011660ff19909116179055505050565b600054600160a060020a03163314610c0f57600080fd5b610c188161114b565b50565b600154604080517f23b872dd000000000000000000000000000000000000000000000000000000008152336004820152306024820152604481018490529051600160a060020a03909216916323b872dd9160648082019260009290919082900301818387803b158015610c8d57600080fd5b505af1158015610640573d6000803e3d6000fd5b600354606082015167ffffffffffffffff161015610cbe57600080fd5b600454606082015167ffffffffffffffff161115610cdb57600080fd5b6000828152600560209081526040918290208351815473ffffffffffffffffffffffffffffffffffffffff1916600160a060020a0390911617815583820151600182018190558484015160028301819055606080870151600390940180546080808a015167ffffffffffffffff1990921667ffffffffffffffff9788169081176fffffffffffffffff0000000000000000191668010000000000000000989093169788029290921790925587518a8152968701949094528587019290925284019190915282015290517fbea3e45ab8f9af775b329a02aed65e5e20a104c10141a6d55d0e6b786cdb1e549160a0908290030190a15050565b60800151600067ffffffffffffffff9091161190565b610df2826111c8565b610dfc81836110d7565b6040805183815290517f2809c7e17bf978fbc7194c0a694b638c4215e9140cacc6c38ca36010b45697df9181900360200190a15050565b60038101546001820154600283015460009267ffffffffffffffff6801000000000000000082048116420393610b039390929091168461121c565b6000828152600560209081526040808320815160a0810183528154600160a060020a03168152600182015493810193909352600281015491830191909152600381015467ffffffffffffffff8082166060850152680100000000000000009091041660808301529082908190819081908190610ee990610dd3565b1515610ef457600080fd5b610efd86610e33565b945084881015610f0c57600080fd5b8554600160a060020a03169350610f22896111c8565b6000851115610fec57610f3485611262565b60408051600160a060020a038716602082015282880381830181905260608083526010908301527f53656c6c65722c2070726f636565647300000000000000000000000000000000608083015291519295509093507f32c2dc5a7eced7da22ae1dec308cdc0105575c8283f2bf2c1028419f964b03ba919081900360a00190a1604051600160a060020a0385169083156108fc029084906000818181858888f19350505050158015610fea573d6000803e3d6000fd5b505b50604080513360208201528589038183018190526060808352600e908301527f53656e6465722c20657863657373000000000000000000000000000000000000608083015291517f32c2dc5a7eced7da22ae1dec308cdc0105575c8283f2bf2c1028419f964b03ba9181900360a00190a1604051339082156108fc029083906000818181858888f1935050505015801561108a573d6000803e3d6000fd5b50604080518a815260208101879052338183015290517f4fcc30d90a842164dd58501ab874a101a3749c3d4747139cefe7c876f4ccebd29181900360600190a15092979650505050505050565b600154604080517f23b872dd000000000000000000000000000000000000000000000000000000008152306004820152600160a060020a03858116602483015260448201859052915191909216916323b872dd91606480830192600092919082900301818387803b158015610c8d57600080fd5b600160a060020a038116151561116057600080fd5b60008054604051600160a060020a03808516939216917f8be0079c531659141344cd1fd0a4f28419497f9722a3daafe3b4186f6b6457e091a36000805473ffffffffffffffffffffffffffffffffffffffff1916600160a060020a0392909216919091179055565b6000908152600560205260408120805473ffffffffffffffffffffffffffffffffffffffff1916815560018101829055600281019190915560030180546fffffffffffffffffffffffffffffffff19169055565b836000808085851061123057869350611257565b60008611156112575787870392508585840281151561124b57fe5b05915081880190508093505b505050949350505050565b60025461271091020490565b6040805160a081018252600080825260208201819052918101829052606081018290526080810191909152905600a165627a7a72305820aaa7a67d16dea07d5766d79aa72ce77d46e7ef3db3bd24666c4dcae4b27199320029",
  "source": "pragma solidity ^0.4.24;\n\nimport \"zeppelin-solidity/contracts/token/ERC721/ERC721.sol\";\nimport \"zeppelin-solidity/contracts/lifecycle/Pausable.sol\";\nimport \"zeppelin-solidity/contracts/ownership/Ownable.sol\";\n\n// Auction contract, facilitating statically priced sales, as well as \n// inflationary and deflationary pricing for items.\n// Relies heavily on the ERC721 interface and so most of the methods\n// are tightly bound to that implementation\ncontract NFTAuctionBase is Pausable {\n\tERC721 public nftContract;\n\tuint256 public ownerCut;\n\tuint public minDuration;\n\tuint public maxDuration;\n\n\t// Represents an auction on an NFT (in this case, Robot part)\n\tstruct Auction {\n\t\t// address of part owner\n\t\taddress seller;\n\t\t// wei price of listing\n\t\tuint256 startPrice;\n\t\t// wei price of floor\n\t\tuint256 endPrice;\n\t\t// duration of sale in seconds.\n\t\tuint64 duration;\n\t\t// Time when sale started\n\t\t// Reset to 0 after sale concluded\n\t\tuint64 start;\n\t}\n\n\tfunction NFTAuctionBase() public {\n\t\tminDuration = 60 minutes;\n\t\tmaxDuration = 30 days; // arbitrary\n\t}\n\n\t// map of all tokens and their auctions\n\tmapping (uint256 => Auction) tokenIdToAuction;\n\n\tevent AuctionCreated(uint256 tokenId, uint256 startPrice, uint256 endPrice, uint64 duration, uint64 start);\n\tevent AuctionSuccessful(uint256 tokenId, uint256 totalPrice, address winner);\n\tevent AuctionCancelled(uint256 tokenId);\n\n\t// returns true if the token with id _partId is owned by the _claimant address\n\tfunction _owns(address _claimant, uint256 _partId) internal view returns (bool) {\n\t\treturn nftContract.ownerOf(_partId) == _claimant;\n\t}\n\n\t// returns false if auction start time is 0, likely from uninitialised struct\n\tfunction _isActiveAuction(Auction _auction) internal pure returns (bool) {\n\t\treturn _auction.start > 0;\n\t}\n\n\t// assigns ownership of the token with id = _partId to this contract\n\t// must have already been approved\n\tfunction _escrow(address, uint _partId) internal {\n\t\t// throws on transfer fail\n\t\tnftContract.transferFrom(msg.sender, this, _partId);\n\t}\n\n\t// transfer the token with id = _partId to buying address\n\tfunction _transfer(address _purchasor, uint256 _partId) internal {\n\t\t// successful purchaseder must takeOwnership of _partId\n\t\t// nftContract.approve(_purchasor, _partId); \n\t\t// actual transfer\n\t\tnftContract.transferFrom(this, _purchasor, _partId);\n\t}\n\n\t// creates\n\tfunction _newAuction(uint256 _partId, Auction _auction) internal {\n\t\trequire(_auction.duration >= minDuration);\n\t\trequire(_auction.duration <= maxDuration);\n\n\t\ttokenIdToAuction[_partId] = _auction;\n\n\t\tAuctionCreated(uint256(_partId),\n\t\t\t\t\t   uint256(_auction.startPrice),\n\t\t\t\t\t   uint256(_auction.endPrice),\n\t\t\t\t\t   uint64(_auction.duration),\n\t\t\t\t\t   uint64(_auction.start)\n\t\t\t\t\t  );\n\t}\n\n\tfunction setMinDuration(uint _duration) external onlyOwner {\n\t\tminDuration = _duration;\n\t}\n\n\tfunction setMaxDuration(uint _duration) external onlyOwner {\n\t\tmaxDuration = _duration;\n\t}\n\n\t/// Removes auction from public view, returns token to the seller\n\tfunction _cancelAuction(uint256 _partId, address _seller) internal {\n\t\t_removeAuction(_partId);\n\t\t_transfer(_seller, _partId);\n\t\tAuctionCancelled(_partId);\n\t}\n\n\tevent PrintEvent(string, address, uint);\n\n\t// Calculates price and transfers purchase to owner. Part is NOT transferred to buyer.\n\tfunction _purchase(uint256 _partId, uint256 _purchaseAmount) internal returns (uint256) {\n\n\t\tAuction storage auction = tokenIdToAuction[_partId];\n\n\t\t// check that this token is being auctioned\n\t\trequire(_isActiveAuction(auction));\n\n\t\t// enforce purchase >= the current price\n\t\tuint256 price = _currentPrice(auction);\n\t\trequire(_purchaseAmount >= price);\n\n\t\t// Store seller before we delete auction.\n\t\taddress seller = auction.seller;\n\n\t\t// Valid purchase. Remove auction to prevent reentrancy.\n\t\t_removeAuction(_partId);\n\n\t\t// Transfer proceeds to seller (if there are any!)\n\t\tif (price > 0) {\n\n\t\t\t// Calculate and take fee from purchase\n\n\t\t\tuint256 auctioneerCut = _computeFee(price);\n\t\t\tuint256 sellerProceeds = price - auctioneerCut;\n\n\t\t\tPrintEvent(\"Seller, proceeds\", seller, sellerProceeds);\n\n\t\t\t// Pay the seller\n\t\t\tseller.transfer(sellerProceeds);\n\t\t}\n\n\t\t// Calculate excess funds and return to buyer.\n\t\tuint256 purchaseExcess = _purchaseAmount - price;\n\n\t\tPrintEvent(\"Sender, excess\", msg.sender, purchaseExcess);\n\t\t// Return any excess funds. Reentrancy again prevented by deleting auction.\n\t\tmsg.sender.transfer(purchaseExcess);\n\n\t\tAuctionSuccessful(_partId, price, msg.sender);\n\n\t\treturn price;\n\t}\n\n\t// returns the current price of the token being auctioned in _auction\n\tfunction _currentPrice(Auction storage _auction) internal view returns (uint256) {\n\t\tuint256 secsElapsed = now - _auction.start;\n\t\treturn _computeCurrentPrice(\n\t\t\t_auction.startPrice,\n\t\t\t_auction.endPrice,\n\t\t\t_auction.duration,\n\t\t\tsecsElapsed\n\t\t);\n\t}\n\n\t// removes the auction of the part with id _partId\n\tfunction _removeAuction(uint256 _partId) internal {\n\t\tdelete tokenIdToAuction[_partId];\n\t}\n\n\t// computes the current price of an deflating-price auction \n\tfunction _computeCurrentPrice( uint256 _startPrice, uint256 _endPrice, uint256 _duration, uint256 _secondsPassed ) internal pure returns (uint256 _price) {\n\t\t_price = _startPrice;\n\t\tif (_secondsPassed >= _duration) {\n\t\t\t// Has been up long enough to hit endPrice.\n\t\t\t// Return this price floor.\n\t\t\t_price = _endPrice;\n\t\t\t// this is a statically price sale. Just return the price.\n\t\t}\n\t\telse if (_duration > 0) {\n\t\t\t// This auction contract supports auctioning from any valid price to any other valid price.\n\t\t\t// This means the price can dynamically increase upward, or downard.\n\t\t\tint256 priceDifference = int256(_endPrice) - int256(_startPrice);\n\t\t\tint256 currentPriceDifference = priceDifference * int256(_secondsPassed) / int256(_duration);\n\t\t\tint256 currentPrice = int256(_startPrice) + currentPriceDifference;\n\n\t\t\t_price = uint256(currentPrice);\n\t\t}\n\t\treturn _price;\n\t}\n\n\t// Compute percentage fee of transaction\n\tfunction _computeFee (uint256 _price) internal view returns (uint256) {\n\t\treturn _price * ownerCut / 10000; \n\t}\n}\n\n\n/**\n * @title DutchAuction \n * @dev Unfortunately DutchX does not support ERC721 ((((( \n * So we built our own simple Dutch auction\n */\ncontract DutchAuction is NFTAuctionBase {\n\tfunction DutchAuction(address _nftAddress, uint256 _fee) public {\n\t\trequire(_fee <= 10000);\n\t\townerCut = _fee;\n\n\t\tnftContract = ERC721(_nftAddress);\n\t}\n\n\t// Remove all ether from the contract. This will be marketplace fees.\n\t// Transfers to the NFT contract.\n\t// Can be called by owner or NFT contract.\n\tfunction withdrawBalance() external {\n\t\taddress nftAddress = address(nftContract);\n\n\t\trequire(msg.sender == owner || msg.sender == nftAddress);\n\n\t\tnftAddress.transfer(this.balance);\n\t}\n\n\tevent PrintEvent(string, address, uint);\n\n\t// Creates an auction and lists it.\n\tfunction createAuction( uint256 _partId, uint256 _startPrice, uint256 _endPrice, uint256 _duration, address _seller ) external whenNotPaused {\n\t\t// Sanity check that no inputs overflow how many bits we've allocated\n\t\t// to store them in the auction struct.\n\t\trequire(_startPrice == uint256(uint128(_startPrice)));\n\t\trequire(_endPrice == uint256(uint128(_endPrice)));\n\t\trequire(_duration == uint256(uint64(_duration)));\n\t\trequire(_startPrice >= _endPrice);\n\n\t\trequire(nftContract.ownerOf(_partId) == msg.sender);\n\n\t\t_escrow(_seller, _partId);\n\n\t\tAuction memory auction = Auction(\n\t\t\t_seller,\n\t\t\tuint128(_startPrice),\n\t\t\tuint128(_endPrice),\n\t\t\tuint64(_duration),\n\t\t\tuint64(now) //seconds uint\n\t\t);\n\t\tPrintEvent(\"Auction Start\", 0x0, auction.start);\n\t\t_newAuction(_partId, auction);\n\t}\n\n\t// SCRAPYARD PRICING LOGIC\n\tuint8 constant LAST_CONSIDERED = 5;\n\tuint8 public scrapCounter = 0;\n\tuint[5] public lastScrapPrices;\n\n\t// Purchases an open auction\n\t// Will transfer ownership if successful.\n\n\tfunction purchase(uint256 _partId) external payable whenNotPaused {\n\t\taddress seller = tokenIdToAuction[_partId].seller;\n\n\t\t// _purchase will throw if the purchase or funds transfer fails\n\t\tuint256 price = _purchase(_partId, msg.value);\n\t\t_transfer(msg.sender, _partId);\n\n\t\t// If the seller is the scrapyard, track price information.\n\t\tif (seller == address(nftContract)) {\n\n\t\t\tlastScrapPrices[scrapCounter] = price;\n\t\t\tif (scrapCounter == LAST_CONSIDERED - 1) {\n\t\t\t\tscrapCounter = 0;\n\t\t\t} else {\n\t\t\t\tscrapCounter++;\n\t\t\t}\n\t\t}\n\t}\n\n\tfunction averageScrapPrice() public view returns (uint) {\n\t\tuint sum = 0;\n\t\tfor (uint8 i = 0; i < LAST_CONSIDERED; i++) {\n\t\t\tsum += lastScrapPrices[i];\n\t\t}\n\t\treturn sum / LAST_CONSIDERED;\n\t}\n\n\t// Allows a user to cancel an auction before it's resolved.\n\t// Returns the part to the seller.\n\n\tfunction cancelAuction(uint256 _partId) external {\n\t\tAuction storage auction = tokenIdToAuction[_partId];\n\t\trequire(_isActiveAuction(auction));\n\t\taddress seller = auction.seller;\n\t\trequire(msg.sender == seller);\n\t\t_cancelAuction(_partId, seller);\n\t}\n\n\t// returns the current price of the auction of a token with id _partId\n\tfunction getCurrentPrice(uint256 _partId) external view returns (uint256) {\n\t\tAuction storage auction = tokenIdToAuction[_partId];\n\t\trequire(_isActiveAuction(auction));\n\t\treturn _currentPrice(auction);\n\t}\n\n\t//  Returns the details of an auction from its _partId.\n\tfunction getAuction(uint256 _partId) external view returns ( address seller, uint256 startPrice, uint256 endPrice, uint256 duration, uint256 startedAt ) {\n\t\tAuction storage auction = tokenIdToAuction[_partId];\n\t\trequire(_isActiveAuction(auction));\n\t\treturn ( auction.seller, auction.startPrice, auction.endPrice, auction.duration, auction.start);\n\t}\n\n\t// Allows owner to cancel an auction.\n\t// ONLY able to be used when contract is paused,\n\t// in the case of emergencies.\n\t// Parts returned to seller as it's equivalent to them\n\t// calling cancel.\n\tfunction cancelAuctionWhenPaused(uint256 _partId) whenPaused onlyOwner external {\n\t\tAuction storage auction = tokenIdToAuction[_partId];\n\t\trequire(_isActiveAuction(auction));\n\t\t_cancelAuction(_partId, auction.seller);\n\t}\n}\n",
  "sourcePath": "/Users/tonykent/ddsystem/contracts/auction/DutchAuction.sol",
  "compiler": {
    "name": "solc",
    "version": "0.4.24+commit.e67f0147.Emscripten.clang"
  },
  "schemaVersion": "2.0.1",
  "updatedAt": "2018-09-09T10:10:53.434Z"
}