{
  "contractName": "Ledger",
  "abi": [
    {
      "constant": true,
      "inputs": [
        {
          "name": "_interfaceId",
          "type": "bytes4"
        }
      ],
      "name": "supportsInterface",
      "outputs": [
        {
          "name": "",
          "type": "bool"
        }
      ],
      "payable": false,
      "stateMutability": "view",
      "type": "function"
    },
    {
      "constant": true,
      "inputs": [],
      "name": "name",
      "outputs": [
        {
          "name": "",
          "type": "string"
        }
      ],
      "payable": false,
      "stateMutability": "view",
      "type": "function"
    },
    {
      "constant": true,
      "inputs": [
        {
          "name": "_tokenId",
          "type": "uint256"
        }
      ],
      "name": "getApproved",
      "outputs": [
        {
          "name": "",
          "type": "address"
        }
      ],
      "payable": false,
      "stateMutability": "view",
      "type": "function"
    },
    {
      "constant": false,
      "inputs": [
        {
          "name": "_to",
          "type": "address"
        },
        {
          "name": "_tokenId",
          "type": "uint256"
        }
      ],
      "name": "approve",
      "outputs": [],
      "payable": false,
      "stateMutability": "nonpayable",
      "type": "function"
    },
    {
      "constant": true,
      "inputs": [],
      "name": "totalSupply",
      "outputs": [
        {
          "name": "",
          "type": "uint256"
        }
      ],
      "payable": false,
      "stateMutability": "view",
      "type": "function"
    },
    {
      "constant": true,
      "inputs": [],
      "name": "InterfaceId_ERC165",
      "outputs": [
        {
          "name": "",
          "type": "bytes4"
        }
      ],
      "payable": false,
      "stateMutability": "view",
      "type": "function"
    },
    {
      "constant": true,
      "inputs": [
        {
          "name": "_owner",
          "type": "address"
        },
        {
          "name": "_index",
          "type": "uint256"
        }
      ],
      "name": "tokenOfOwnerByIndex",
      "outputs": [
        {
          "name": "",
          "type": "uint256"
        }
      ],
      "payable": false,
      "stateMutability": "view",
      "type": "function"
    },
    {
      "constant": false,
      "inputs": [
        {
          "name": "_from",
          "type": "address"
        },
        {
          "name": "_to",
          "type": "address"
        },
        {
          "name": "_tokenId",
          "type": "uint256"
        }
      ],
      "name": "safeTransferFrom",
      "outputs": [],
      "payable": false,
      "stateMutability": "nonpayable",
      "type": "function"
    },
    {
      "constant": true,
      "inputs": [
        {
          "name": "_tokenId",
          "type": "uint256"
        }
      ],
      "name": "exists",
      "outputs": [
        {
          "name": "",
          "type": "bool"
        }
      ],
      "payable": false,
      "stateMutability": "view",
      "type": "function"
    },
    {
      "constant": true,
      "inputs": [
        {
          "name": "_index",
          "type": "uint256"
        }
      ],
      "name": "tokenByIndex",
      "outputs": [
        {
          "name": "",
          "type": "uint256"
        }
      ],
      "payable": false,
      "stateMutability": "view",
      "type": "function"
    },
    {
      "constant": true,
      "inputs": [
        {
          "name": "_tokenId",
          "type": "uint256"
        }
      ],
      "name": "ownerOf",
      "outputs": [
        {
          "name": "",
          "type": "address"
        }
      ],
      "payable": false,
      "stateMutability": "view",
      "type": "function"
    },
    {
      "constant": true,
      "inputs": [
        {
          "name": "_owner",
          "type": "address"
        }
      ],
      "name": "balanceOf",
      "outputs": [
        {
          "name": "",
          "type": "uint256"
        }
      ],
      "payable": false,
      "stateMutability": "view",
      "type": "function"
    },
    {
      "constant": true,
      "inputs": [],
      "name": "symbol",
      "outputs": [
        {
          "name": "",
          "type": "string"
        }
      ],
      "payable": false,
      "stateMutability": "view",
      "type": "function"
    },
    {
      "constant": false,
      "inputs": [
        {
          "name": "_to",
          "type": "address"
        },
        {
          "name": "_approved",
          "type": "bool"
        }
      ],
      "name": "setApprovalForAll",
      "outputs": [],
      "payable": false,
      "stateMutability": "nonpayable",
      "type": "function"
    },
    {
      "constant": false,
      "inputs": [
        {
          "name": "_from",
          "type": "address"
        },
        {
          "name": "_to",
          "type": "address"
        },
        {
          "name": "_tokenId",
          "type": "uint256"
        },
        {
          "name": "_data",
          "type": "bytes"
        }
      ],
      "name": "safeTransferFrom",
      "outputs": [],
      "payable": false,
      "stateMutability": "nonpayable",
      "type": "function"
    },
    {
      "constant": true,
      "inputs": [
        {
          "name": "_tokenId",
          "type": "uint256"
        }
      ],
      "name": "tokenURI",
      "outputs": [
        {
          "name": "",
          "type": "string"
        }
      ],
      "payable": false,
      "stateMutability": "view",
      "type": "function"
    },
    {
      "constant": true,
      "inputs": [
        {
          "name": "_owner",
          "type": "address"
        },
        {
          "name": "_operator",
          "type": "address"
        }
      ],
      "name": "isApprovedForAll",
      "outputs": [
        {
          "name": "",
          "type": "bool"
        }
      ],
      "payable": false,
      "stateMutability": "view",
      "type": "function"
    },
    {
      "inputs": [],
      "payable": false,
      "stateMutability": "nonpayable",
      "type": "constructor"
    },
    {
      "anonymous": false,
      "inputs": [
        {
          "indexed": true,
          "name": "_from",
          "type": "address"
        },
        {
          "indexed": true,
          "name": "_to",
          "type": "address"
        },
        {
          "indexed": true,
          "name": "_tokenId",
          "type": "uint256"
        }
      ],
      "name": "Transfer",
      "type": "event"
    },
    {
      "anonymous": false,
      "inputs": [
        {
          "indexed": true,
          "name": "_owner",
          "type": "address"
        },
        {
          "indexed": true,
          "name": "_approved",
          "type": "address"
        },
        {
          "indexed": true,
          "name": "_tokenId",
          "type": "uint256"
        }
      ],
      "name": "Approval",
      "type": "event"
    },
    {
      "anonymous": false,
      "inputs": [
        {
          "indexed": true,
          "name": "_owner",
          "type": "address"
        },
        {
          "indexed": true,
          "name": "_operator",
          "type": "address"
        },
        {
          "indexed": false,
          "name": "_approved",
          "type": "bool"
        }
      ],
      "name": "ApprovalForAll",
      "type": "event"
    },
    {
      "constant": false,
      "inputs": [],
      "name": "deposit",
      "outputs": [],
      "payable": true,
      "stateMutability": "payable",
      "type": "function"
    },
    {
      "constant": true,
      "inputs": [],
      "name": "getDepositBalance",
      "outputs": [
        {
          "name": "",
          "type": "uint256"
        }
      ],
      "payable": false,
      "stateMutability": "view",
      "type": "function"
    },
    {
      "constant": false,
      "inputs": [
        {
          "name": "_amountWei",
          "type": "uint256"
        }
      ],
      "name": "withdraw",
      "outputs": [],
      "payable": false,
      "stateMutability": "nonpayable",
      "type": "function"
    },
    {
      "constant": false,
      "inputs": [
        {
          "name": "_sideB",
          "type": "address"
        },
        {
          "name": "_amountWei",
          "type": "uint256"
        },
        {
          "name": "_overdraftPpm",
          "type": "uint256"
        },
        {
          "name": "_interestRatePpm",
          "type": "uint256"
        },
        {
          "name": "_numberOfPeriods",
          "type": "uint256"
        },
        {
          "name": "_periodSeconds",
          "type": "uint256"
        },
        {
          "name": "_startingDate",
          "type": "uint256"
        }
      ],
      "name": "allowAndDeposit",
      "outputs": [],
      "payable": true,
      "stateMutability": "payable",
      "type": "function"
    },
    {
      "constant": true,
      "inputs": [],
      "name": "getMyAllowancesCount",
      "outputs": [
        {
          "name": "",
          "type": "uint256"
        }
      ],
      "payable": false,
      "stateMutability": "view",
      "type": "function"
    },
    {
      "constant": true,
      "inputs": [
        {
          "name": "_index",
          "type": "uint256"
        }
      ],
      "name": "getMyAllowanceInfo",
      "outputs": [
        {
          "name": "sideB",
          "type": "address"
        },
        {
          "name": "amountWei",
          "type": "uint256"
        },
        {
          "name": "overdraftPpm",
          "type": "uint256"
        },
        {
          "name": "interestRatePpm",
          "type": "uint256"
        },
        {
          "name": "periodSeconds",
          "type": "uint256"
        },
        {
          "name": "startingDate",
          "type": "uint256"
        },
        {
          "name": "isDebt",
          "type": "bool"
        }
      ],
      "payable": false,
      "stateMutability": "view",
      "type": "function"
    },
    {
      "constant": false,
      "inputs": [
        {
          "name": "_index",
          "type": "uint256"
        },
        {
          "name": "_amountWei",
          "type": "uint256"
        },
        {
          "name": "_overdraftPpm",
          "type": "uint256"
        },
        {
          "name": "_interestRatePpm",
          "type": "uint256"
        },
        {
          "name": "_periodSeconds",
          "type": "uint256"
        },
        {
          "name": "_startingDate",
          "type": "uint256"
        }
      ],
      "name": "editMyAllowance",
      "outputs": [],
      "payable": false,
      "stateMutability": "nonpayable",
      "type": "function"
    },
    {
      "constant": true,
      "inputs": [
        {
          "name": "_sideA",
          "type": "address"
        },
        {
          "name": "_sideB",
          "type": "address"
        }
      ],
      "name": "isOverdrafted",
      "outputs": [
        {
          "name": "",
          "type": "bool"
        }
      ],
      "payable": false,
      "stateMutability": "view",
      "type": "function"
    },
    {
      "constant": false,
      "inputs": [
        {
          "name": "_sideB",
          "type": "address"
        }
      ],
      "name": "clearOverdraftedFlag",
      "outputs": [],
      "payable": false,
      "stateMutability": "nonpayable",
      "type": "function"
    },
    {
      "constant": true,
      "inputs": [],
      "name": "getAllowancesCount",
      "outputs": [
        {
          "name": "",
          "type": "uint256"
        }
      ],
      "payable": false,
      "stateMutability": "view",
      "type": "function"
    },
    {
      "constant": true,
      "inputs": [
        {
          "name": "_index",
          "type": "uint256"
        }
      ],
      "name": "getAllowanceInfo",
      "outputs": [
        {
          "name": "sideA",
          "type": "address"
        },
        {
          "name": "amountWei",
          "type": "uint256"
        },
        {
          "name": "overdraftPpm",
          "type": "uint256"
        },
        {
          "name": "interestRatePpm",
          "type": "uint256"
        },
        {
          "name": "periodSeconds",
          "type": "uint256"
        },
        {
          "name": "startingDate",
          "type": "uint256"
        },
        {
          "name": "isDebt",
          "type": "bool"
        }
      ],
      "payable": false,
      "stateMutability": "view",
      "type": "function"
    },
    {
      "constant": false,
      "inputs": [
        {
          "name": "_index",
          "type": "uint256"
        },
        {
          "name": "_to",
          "type": "address"
        }
      ],
      "name": "transferAllowance",
      "outputs": [],
      "payable": false,
      "stateMutability": "nonpayable",
      "type": "function"
    },
    {
      "constant": false,
      "inputs": [
        {
          "name": "_from",
          "type": "address"
        },
        {
          "name": "_to",
          "type": "address"
        },
        {
          "name": "erc721id",
          "type": "uint256"
        }
      ],
      "name": "transferFrom",
      "outputs": [],
      "payable": false,
      "stateMutability": "nonpayable",
      "type": "function"
    },
    {
      "constant": false,
      "inputs": [
        {
          "name": "_index",
          "type": "uint256"
        },
        {
          "name": "_amountWei",
          "type": "uint256"
        }
      ],
      "name": "charge",
      "outputs": [],
      "payable": false,
      "stateMutability": "nonpayable",
      "type": "function"
    },
    {
      "constant": true,
      "inputs": [
        {
          "name": "_index",
          "type": "uint256"
        }
      ],
      "name": "calculateAllowedPlusOverdraft",
      "outputs": [
        {
          "name": "",
          "type": "uint256"
        }
      ],
      "payable": false,
      "stateMutability": "view",
      "type": "function"
    }
  ],
  "bytecode": "0x60806040523480156200001157600080fd5b50604080518082018252600581527f50756c6c790000000000000000000000000000000000000000000000000000006020808301919091528251808401909352600483527f50554c4c000000000000000000000000000000000000000000000000000000009083015290620000af7f01ffc9a700000000000000000000000000000000000000000000000000000000640100000000620001b3810204565b620000e37f80ac58cd00000000000000000000000000000000000000000000000000000000640100000000620001b3810204565b620001177f4f558e7900000000000000000000000000000000000000000000000000000000640100000000620001b3810204565b81516200012c90600590602085019062000220565b5080516200014290600690602084019062000220565b50620001777f780e9d6300000000000000000000000000000000000000000000000000000000640100000000620001b3810204565b620001ab7f5b5e139f00000000000000000000000000000000000000000000000000000000640100000000620001b3810204565b5050620002c5565b7fffffffff000000000000000000000000000000000000000000000000000000008082161415620001e357600080fd5b7fffffffff00000000000000000000000000000000000000000000000000000000166000908152602081905260409020805460ff19166001179055565b828054600181600116156101000203166002900490600052602060002090601f016020900481019282601f106200026357805160ff191683800117855562000293565b8280016001018555821562000293579182015b828111156200029357825182559160200191906001019062000276565b50620002a1929150620002a5565b5090565b620002c291905b80821115620002a15760008155600101620002ac565b90565b611f4780620002d56000396000f3006080604052600436106101955763ffffffff7c010000000000000000000000000000000000000000000000000000000060003504166301ffc9a7811461019a5780630497de4a146101d057806306fdde03146101f7578063081812fc14610281578063095ea7b3146102b557806312eb6f79146102db57806318160ddd1461030257806319fa8f501461031757806323b872dd146103495780632cc5af88146103735780632e1a7d4d1461038e5780632f745c59146103a65780632f984d95146103ca5780633d280261146103df57806342842e0e146103f757806344e1bd2c146104215780634b5f5e8b146104485780634f558e791461046c5780634f6ccce7146104845780636352211e1461049c57806370a08231146104b457806395d89b41146104d5578063a22cb465146104ea578063a499aad014610510578063b88d4fde1461056c578063bbfc7454146105db578063c87b56dd146105f3578063d0e30db01461060b578063d6137fa214610613578063e985e9c514610634578063f3ff89841461065b578063f586df4014610681575b600080fd5b3480156101a657600080fd5b506101bc600160e060020a031960043516610696565b604080519115158252519081900360200190f35b3480156101dc57600080fd5b506101e56106b5565b60408051918252519081900360200190f35b34801561020357600080fd5b5061020c6106c9565b6040805160208082528351818301528351919283929083019185019080838360005b8381101561024657818101518382015260200161022e565b50505050905090810190601f1680156102735780820380516001836020036101000a031916815260200191505b509250505060405180910390f35b34801561028d57600080fd5b5061029960043561075f565b60408051600160a060020a039092168252519081900360200190f35b3480156102c157600080fd5b506102d9600160a060020a036004351660243561077a565b005b3480156102e757600080fd5b506101bc600160a060020a0360043581169060243516610830565b34801561030e57600080fd5b506101e561085e565b34801561032357600080fd5b5061032c610864565b60408051600160e060020a03199092168252519081900360200190f35b34801561035557600080fd5b506102d9600160a060020a0360043581169060243516604435610888565b34801561037f57600080fd5b506102d9600435602435610ac0565b34801561039a57600080fd5b506102d9600435610cb5565b3480156103b257600080fd5b506101e5600160a060020a0360043516602435610d0c565b3480156103d657600080fd5b506101e5610d59565b3480156103eb57600080fd5b506101e5600435610d6f565b34801561040357600080fd5b506102d9600160a060020a0360043581169060243516604435610def565b34801561042d57600080fd5b506102d960043560243560443560643560843560a435610e10565b34801561045457600080fd5b506102d9600435600160a060020a0360243516610e98565b34801561047857600080fd5b506101bc600435610f26565b34801561049057600080fd5b506101e5600435610f43565b3480156104a857600080fd5b50610299600435610f78565b3480156104c057600080fd5b506101e5600160a060020a0360043516610fa2565b3480156104e157600080fd5b5061020c610fd5565b3480156104f657600080fd5b506102d9600160a060020a03600435166024351515611036565b34801561051c57600080fd5b506105286004356110ba565b60408051600160a060020a0390981688526020880196909652868601949094526060860192909252608085015260a0840152151560c0830152519081900360e00190f35b34801561057857600080fd5b50604080516020601f6064356004818101359283018490048402850184019095528184526102d994600160a060020a03813581169560248035909216956044359536956084940191819084018382808284375094975061116f9650505050505050565b3480156105e757600080fd5b50610528600435611191565b3480156105ff57600080fd5b5061020c600435611257565b6102d961130c565b34801561061f57600080fd5b506102d9600160a060020a0360043516611323565b34801561064057600080fd5b506101bc600160a060020a0360043581169060243516611351565b6102d9600160a060020a036004351660243560443560643560843560a43560c43561137f565b34801561068d57600080fd5b506101e56113c7565b600160e060020a03191660009081526020819052604090205460ff1690565b336000908152600c60205260409020545b90565b60058054604080516020601f60026000196101006001881615020190951694909404938401819004810282018101909252828152606093909290918301828280156107555780601f1061072a57610100808354040283529160200191610755565b820191906000526020600020905b81548152906001019060200180831161073857829003601f168201915b5050505050905090565b600090815260026020526040902054600160a060020a031690565b600061078582610f78565b9050600160a060020a0383811690821614156107a057600080fd5b33600160a060020a03821614806107bc57506107bc8133611351565b15156107c757600080fd5b600082815260026020526040808220805473ffffffffffffffffffffffffffffffffffffffff1916600160a060020a0387811691821790925591518593918516917f8c5be1e5ebec7d5bd14f71427d1e84f3dd0314c0f7b2291e5b200ac8c7c3b92591a4505050565b600160a060020a039182166000908152600d6020908152604080832093909416825291909152205460ff1690565b60095490565b7f01ffc9a70000000000000000000000000000000000000000000000000000000081565b6000818152600e60205260408120805490919074010000000000000000000000000000000000000000900460ff1615156108c157600080fd5b6108cc8585856113dd565b506000828152600e60205260408120600201805473ffffffffffffffffffffffffffffffffffffffff1916600160a060020a0386161790555b336000908152600c602052604090206003015481101561098457336000908152600c6020526040902060030180548491908390811061094057fe5b9060005260206000200154141561097c57336000908152600c6020526040812060030180548390811061096f57fe5b6000918252602090912001555b600101610905565b50600160a060020a0383166000908152600c6020908152604082206003018054600181018255908352908220018390555b600180830154600160a060020a03166000908152600d6020908152604080832033845290915290200154811015610a7b57600180830154600160a060020a03166000908152600d60209081526040808320338452909152902001805484919083908110610a1e57fe5b90600052602060002001541415610a7357600180830154600160a060020a03166000908152600d602090815260408083203384529091528120909101805483908110610a6657fe5b6000918252602090912001555b6001016109b5565b50600190810154600160a060020a039081166000908152600d602090815260408083209690931682529485529081208201805492830181558152929092209091015550565b6000806000610acd6113c7565b8510610ad857600080fd5b336000908152600c60205260409020600301805486908110610af657fe5b90600052602060002001549250600e60008481526020019081526020016000209150610b2185610d6f565b905080841115610b3057600080fd5b6007820154421015610b4157600080fd5b60038201548411610be75760408051610120810182528354600160a060020a0380821683527401000000000000000000000000000000000000000090910460ff161515602083015260018501548116928201929092526002840154909116606082015260038301546080820152600483015460a0820152600583015460c0820152600683015460e08201526007830154610100820152610be2908585611480565b610cae565b60018281018054600160a060020a039081166000908152600d602090815260408083206002890180548616855290835292819020805460ff19169096179095558451610120810186528754808516825274010000000000000000000000000000000000000000900460ff1615159181019190915292548216938301939093529154909116606082015260038301546080820152600483015460a0820152600583015460c0820152600683015460e08201526007830154610100820152610cae908585611480565b5050505050565b610cbd6106b5565b811115610cc957600080fd5b336000818152600c6020526040808220805485900390555183156108fc0291849190818181858888f19350505050158015610d08573d6000803e3d6000fd5b5050565b6000610d1783610fa2565b8210610d2257600080fd5b600160a060020a0383166000908152600760205260409020805483908110610d4657fe5b9060005260206000200154905092915050565b336000908152600c602052604090206002015490565b6000806000610d7c6113c7565b8410610d8757600080fd5b336000908152600c60205260409020600301805485908110610da557fe5b90600052602060002001549150600e60008381526020019081526020016000209050629896808160040154826003015402811515610ddf57fe5b0481600301540192505050919050565b610e0b838383602060405190810160405280600081525061116f565b505050565b336000908152600c60205260408120600201805488908110610e2e57fe5b6000918252602080832090910154808352600e909152604090912060010154909150600160a060020a03163314610e6457600080fd5b6000908152600e60205260409020600381019590955560048501939093556005840191909155600683015560079091015550565b600080610ea36113c7565b8410610eae57600080fd5b336000908152600c60205260409020600301805485908110610ecc57fe5b6000918252602080832090910154808352600e90915260409091208054919350915060ff74010000000000000000000000000000000000000000909104161515610f1557600080fd5b610f20338484610def565b50505050565b600090815260016020526040902054600160a060020a0316151590565b6000610f4d61085e565b8210610f5857600080fd5b6009805483908110610f6657fe5b90600052602060002001549050919050565b600081815260016020526040812054600160a060020a0316801515610f9c57600080fd5b92915050565b6000600160a060020a0382161515610fb957600080fd5b50600160a060020a031660009081526003602052604090205490565b60068054604080516020601f60026000196101006001881615020190951694909404938401819004810282018101909252828152606093909290918301828280156107555780601f1061072a57610100808354040283529160200191610755565b600160a060020a03821633141561104c57600080fd5b336000818152600460209081526040808320600160a060020a03871680855290835292819020805460ff1916861515908117909155815190815290519293927f17307eab39ab6107e8899845ad3d59bd9653f200f220920489ca2b5937696c31929181900390910190a35050565b336000908152600c602052604081206002018054829182918291829182918291829182918b9081106110e857fe5b90600052602060002001549150600e600083815260200190815260200160002090508060020160009054906101000a9004600160a060020a0316985080600301549750806004015496508060050154955080600601549450806007015493508060000160149054906101000a900460ff161515600115151492505050919395979092949650565b61117a848484610888565b611186848484846115e6565b1515610f2057600080fd5b60008060008060008060008060006111a76113c7565b8a106111b257600080fd5b336000908152600c6020526040902060030180548b9081106111d057fe5b90600052602060002001549150600e600083815260200190815260200160002090508060010160009054906101000a9004600160a060020a0316985080600301549750806004015496508060050154955080600601549450806007015493508060000160149054906101000a900460ff161515600115151492505050919395979092949650565b606061126282610f26565b151561126d57600080fd5b6000828152600b602090815260409182902080548351601f6002600019610100600186161502019093169290920491820184900484028101840190945280845290918301828280156113005780601f106112d557610100808354040283529160200191611300565b820191906000526020600020905b8154815290600101906020018083116112e357829003601f168201915b50505050509050919050565b336000908152600c60205260409020805434019055565b336000908152600d60209081526040808320600160a060020a0394909416835292905220805460ff19169055565b600160a060020a03918216600090815260046020908152604080832093909416825291909152205460ff1690565b336000908152600c6020526040812080543401905581905b848110156113bc576113b0338a8a8a8a89886000611753565b90830190600101611397565b505050505050505050565b336000908152600c602052604090206003015490565b6113e73382611a5f565b15156113f257600080fd5b600160a060020a038316151561140757600080fd5b600160a060020a038216151561141c57600080fd5b6114268382611abe565b6114308382611b2d565b61143a8282611c34565b8082600160a060020a031684600160a060020a03167fddf252ad1be2c89b69c2b068fc378daa952ba7f163c4a11628f55a4df523b3ef60405160405180910390a4505050565b604080840151600160a060020a03166000908152600c602052908120549081841161151f578460600151600160a060020a03166108fc859081150290604051600060405180830381858888f193505050501580156114e2573d6000803e3d6000fd5b50604080860151600160a060020a03166000908152600c602090815282822080548890039055858252600e90522060030180548590039055610cae565b8460600151600160a060020a03166108fc839081150290604051600060405180830381858888f1935050505015801561155c573d6000803e3d6000fd5b506000838152600e602052604081206003015561157f848363ffffffff611c7d16565b60408681018051600160a060020a03166000908152600c6020529182209190915551606087015160c088015160a089015160e08a01516101008b0151959650610cae95620f42408885020488019391906115df908263ffffffff611c8f16565b6001611753565b6000806115fb85600160a060020a0316611c9c565b151561160a576001915061174a565b6040517f150b7a020000000000000000000000000000000000000000000000000000000081523360048201818152600160a060020a03898116602485015260448401889052608060648501908152875160848601528751918a169463150b7a0294938c938b938b93909160a490910190602085019080838360005b8381101561169d578181015183820152602001611685565b50505050905090810190601f1680156116ca5780820380516001836020036101000a031916815260200191505b5095505050505050602060405180830381600087803b1580156116ec57600080fd5b505af1158015611700573d6000803e3d6000fd5b505050506040513d602081101561171657600080fd5b5051600160e060020a031981167f150b7a020000000000000000000000000000000000000000000000000000000014925090505b50949350505050565b600061175d611e74565b604080516c01000000000000000000000000600160a060020a03808e16820283528c160260148201526028810186905260488101879052905190819003606801902091506117ab8983611ca4565b60008160000190600160a060020a03169081600160a060020a03168152505082816020019015159081151581525050898160400190600160a060020a03169081600160a060020a031681525050888160600190600160a060020a03169081600160a060020a03168152505087816080018181525050868160a0018181525050858160c0018181525050848160e0018181525050838161010001818152505080600e600084815260200190815260200160002060008201518160000160006101000a815481600160a060020a030219169083600160a060020a0316021790555060208201518160000160146101000a81548160ff02191690831515021790555060408201518160010160006101000a815481600160a060020a030219169083600160a060020a0316021790555060608201518160020160006101000a815481600160a060020a030219169083600160a060020a031602179055506080820151816003015560a0820151816004015560c0820151816005015560e082015181600601556101008201518160070155905050600c60008b600160a060020a0316600160a060020a03168152602001908152602001600020600201829080600181540180825580915050906001820390600052602060002001600090919290919091505550600c60008a600160a060020a0316600160a060020a03168152602001908152602001600020600301829080600181540180825580915050906001820390600052602060002001600090919290919091505550600d60008b600160a060020a0316600160a060020a0316815260200190815260200160002060008a600160a060020a0316600160a060020a0316815260200190815260200160002060010182908060018154018082558091505090600182039060005260206000200160009091929091909150555050505050505050505050565b600080611a6b83610f78565b905080600160a060020a031684600160a060020a03161480611aa6575083600160a060020a0316611a9b8461075f565b600160a060020a0316145b80611ab65750611ab68185611351565b949350505050565b81600160a060020a0316611ad182610f78565b600160a060020a031614611ae457600080fd5b600081815260026020526040902054600160a060020a031615610d08576000908152600260205260409020805473ffffffffffffffffffffffffffffffffffffffff1916905550565b6000806000611b3c8585611cf3565b600084815260086020908152604080832054600160a060020a0389168452600790925290912054909350611b7790600163ffffffff611c7d16565b600160a060020a038616600090815260076020526040902080549193509083908110611b9f57fe5b90600052602060002001549050806007600087600160a060020a0316600160a060020a0316815260200190815260200160002084815481101515611bdf57fe5b6000918252602080832090910192909255600160a060020a0387168152600790915260409020805490611c16906000198301611ede565b50600093845260086020526040808520859055908452909220555050565b6000611c408383611d89565b50600160a060020a039091166000908152600760209081526040808320805460018101825590845282842081018590559383526008909152902055565b600082821115611c8957fe5b50900390565b81810182811015610f9c57fe5b6000903b1190565b611cae8282611e19565b600980546000838152600a60205260408120829055600182018355919091527f6e1540171b6c0c960b71a7020d9f60077f6af931a8bbf590da0223dacf75c7af015550565b81600160a060020a0316611d0682610f78565b600160a060020a031614611d1957600080fd5b600160a060020a038216600090815260036020526040902054611d4390600163ffffffff611c7d16565b600160a060020a03909216600090815260036020908152604080832094909455918152600190915220805473ffffffffffffffffffffffffffffffffffffffff19169055565b600081815260016020526040902054600160a060020a031615611dab57600080fd5b6000818152600160208181526040808420805473ffffffffffffffffffffffffffffffffffffffff1916600160a060020a0388169081179091558452600390915290912054611df991611c8f565b600160a060020a0390921660009081526003602052604090209190915550565b600160a060020a0382161515611e2e57600080fd5b611e388282611c34565b6040518190600160a060020a038416906000907fddf252ad1be2c89b69c2b068fc378daa952ba7f163c4a11628f55a4df523b3ef908290a45050565b610120604051908101604052806000600160a060020a031681526020016000151581526020016000600160a060020a031681526020016000600160a060020a0316815260200160008152602001600081526020016000815260200160008152602001600081525090565b815481835581811115610e0b57600083815260209020610e0b9181019083016106c691905b80821115611f175760008155600101611f03565b50905600a165627a7a72305820a5d1ca9655b81dd907d0a541e1b6c3fb36705b8e247dc390ed663cdb2b6410050029",
  "source": "pragma solidity ^0.4.24;\n\nimport \"./ILedger.sol\";\n\nimport \"zeppelin-solidity/contracts/token/ERC721/ERC721Token.sol\";\nimport \"zeppelin-solidity/contracts/math/SafeMath.sol\";\n\n\n/**\n * @title Ledger \n * @dev Main MeaninglessTechnoDebt/TechnoDebit contract. \n * Check TechReqs here:\n * https://docs.google.com/document/d/1pQy_FLmfn-ToRTYN7v-xtg1LsAVGXrNsgbfozeCWV9A/edit?usp=sharing\n */\ncontract Ledger is ISideA, ISideB, ERC721Token(\"Pully\",\"PULL\") {\n\tusing SafeMath for uint256;\n\n\tstruct UserState {\n\t\tuint currentBalance;\n\n\t\t// TODO: not used right now\n\t\taddress currentUnderwriter;\t\n\n\t\t// uint256 IDs\n\t\tuint256[] allAllowances;\n\t\tuint256[] allAllowancesFrom;\n\t}\n\n\tstruct Allowance {\n\t\t// by default we set the userState.currentUnderwriter\n\t\t// can be ZERO!\n\t\taddress underwriter;\n\n\t\t// if Allowance is generated because of overdraft -> i should be able to trasnfer it \n\t\t// (sell it or put into collateral)\n\t\tbool transferrable;\n\n\t\taddress sideA;\n\t\taddress sideB; // transfering ERC721 will update THIS !!!\n\t\tuint amountWei;\n\t\tuint overdraftPpm;\n\t\tuint interestRatePpm;\n\t\tuint periodSeconds;\n\t\tuint startingDate;\n\t}\n\n\tstruct UserToUserState {\n\t\t// TODO - write good comment here...\n\t\tbool isOverdrafted;\n\n\t\t// each allowance is connected with Allowance struct in the allowancesMetainfo\n\t\tuint256[] allowances;\n\t}\n\n\t// UserA -> UserState\n\tmapping (address=>UserState) userState;\n\t// UserA -> UserB -> UserToUserState\n\tmapping (address=>mapping(address=>UserToUserState)) user2userState;\n\t// ERC721 id -> Allowance (main storage of all allowances)\n\tmapping (uint256=>Allowance) allowancesMetainfo;\n\n\t////////////////////////////////////////////////////////////////////////////////////\n\tconstructor() public {\n\t}\n\n\t/**\n\t* @dev Put some ETHer in\n\t*/\n\tfunction deposit() public payable{\n\t\tuserState[msg.sender].currentBalance += msg.value;\n\t}\n\n\t/**\n\t* @dev Get your current ETH balance \n\t* @return amount in WEIs\n\t*/\n\tfunction getDepositBalance() public view returns(uint) {\n\t\treturn userState[msg.sender].currentBalance;\n\t}\n\n\t/**\n\t* @dev Return back your ETHs if you deposited before \n\t* @param _amountWei Amount to get back \n\t*/\n\tfunction withdraw(uint _amountWei) public {\n\t\trequire(_amountWei <= getDepositBalance());\n\t\tuserState[msg.sender].currentBalance-=_amountWei;\n\t\tmsg.sender.transfer(_amountWei);\n\t}\n\n\t/**\n\t* @dev Add an allowance AND put deposit (can be zero!)\n\t*/\n\tfunction allowAndDeposit(\n\t\taddress _sideB, \n\t\tuint _amountWei, \n\t\tuint _overdraftPpm, \n\t\tuint _interestRatePpm, \n\t\tuint _numberOfPeriods, \n\t\tuint _periodSeconds, \n\t\tuint _startingDate) public payable \n\t{\n\t\t// 1 - deposit (can be null!)\n\t\tuserState[msg.sender].currentBalance += msg.value;\n\n\t\t// 2 - create N allowances ...\n\t\tuint date = _startingDate;\n\t\tfor(uint i=0; i<_numberOfPeriods; ++i){\n\t\t\t_createNewAllowance(\n\t\t\t\tmsg.sender, \n\t\t\t\t_sideB,\n\t\t\t\t_amountWei, \n\t\t\t\t_overdraftPpm, \n\t\t\t\t_interestRatePpm, \n\t\t\t\t_periodSeconds, \n\t\t\t\tdate,\n\t\t\t\tfalse);\n\n\t\t\tdate += _periodSeconds;\n\t\t}\n\t}\n\n\t/**\n\t* @dev Returns number of my allowances (that i set before for SideB)\n\t*/\n\tfunction getMyAllowancesCount() public view returns(uint){\n\t\treturn userState[msg.sender].allAllowances.length;\n\t}\n\n\t/**\n\t* @dev Return allowance data (enumerator)\n\t* @param _index Current alowance index (in terms of SideA). Use getMyAllowancesCount() to get total count\n\t*/\n\tfunction getMyAllowanceInfo(uint _index) public \n\tview returns(address sideB, uint amountWei, uint overdraftPpm, uint interestRatePpm, uint periodSeconds, uint startingDate, bool isDebt)\n\t{\n\t\tuint256 erc721id = userState[msg.sender].allAllowances[_index];\n\t\tAllowance a = allowancesMetainfo[erc721id];\n\n\t\tsideB = a.sideB;\n\t\tamountWei = a.amountWei;\n\t\toverdraftPpm = a.overdraftPpm;\n\t\tinterestRatePpm = a.interestRatePpm;\n\t\tperiodSeconds = a.periodSeconds;\n\t\tstartingDate = a.startingDate;\n\t\t// if allowance is transferrable -> it was generated because we have debt (see _charge method)\n\t\tisDebt = (a.transferrable==true);\n\t}\n\n\t/**\n\t* @dev Edit each allowance manually \n\t* @param _index Current alowance index (in terms of SideA). Use getMyAllowancesCount() to get total count\n\t*/\n\tfunction editMyAllowance(\n\t\tuint _index, \n\t\tuint _amountWei, \n\t\tuint _overdraftPpm, \n\t\tuint _interestRatePpm,\n\t\tuint _periodSeconds, \n\t\tuint _startingDate) public \n\t{\n\t\tuint256 erc721id = userState[msg.sender].allAllowances[_index];\n\n\t\trequire(allowancesMetainfo[erc721id].sideA==msg.sender);\n\n\t\tallowancesMetainfo[erc721id].amountWei = _amountWei;\n\t\tallowancesMetainfo[erc721id].overdraftPpm = _overdraftPpm;\n\t\tallowancesMetainfo[erc721id].interestRatePpm = _interestRatePpm;\n\t\tallowancesMetainfo[erc721id].periodSeconds = _periodSeconds;\n\t\tallowancesMetainfo[erc721id].startingDate = _startingDate;\n\t}\n\n\t// 3 - overdrafted flag\n\t/**\n\t* @dev If you have asked for more than current AllowedAmount and less than AllowedAmount + overdraft\n\t* @param _sideA Who deposited money \n\t* @param _sideB Who withdraws\n\t*/\n\tfunction isOverdrafted(address _sideA, address _sideB) public view returns(bool){\n\t\treturn user2userState[_sideA][_sideB].isOverdrafted;\n\t}\n\n\t/**\n\t* @dev If SideB has overdrafted -> it can no longer withdraw without SideA calling 'clearOverdraftedFlag'.\n\t* Should be called by the SideA for the SideB\n\t\t*/\n\tfunction clearOverdraftedFlag(address _sideB) public {\n\t\tuser2userState[msg.sender][_sideB].isOverdrafted = false;\n\t}\n\n\t// SideB\n\t/**\n\t* @dev Get the number of allowances that were set by other people for me\n\t*/\n\tfunction getAllowancesCount() public view returns(uint){\n\t\treturn userState[msg.sender].allAllowancesFrom.length;\n\t}\n\n\t/**\n\t* @dev Return allowance data for SideB (enumerator)\n\t* @param _index Current alowance index (in terms of SideB). Use getAllowancesCount() to get total count\n\t*/\n\tfunction getAllowanceInfo(uint _index) public \n\tview returns(address sideA, uint amountWei, uint overdraftPpm, uint interestRatePpm, uint periodSeconds, uint startingDate, bool isDebt)\n\t{\n\t\trequire(_index < getAllowancesCount());\n\n\t\tuint256 erc721id = userState[msg.sender].allAllowancesFrom[_index];\n\t\tAllowance a = allowancesMetainfo[erc721id];\n\n\t\tsideA = a.sideA;\n\t\tamountWei = a.amountWei;\n\t\toverdraftPpm = a.overdraftPpm;\n\t\tinterestRatePpm = a.interestRatePpm;\n\t\tperiodSeconds = a.periodSeconds;\n\t\tstartingDate = a.startingDate;\n\t\t// if allowance is transferrable -> it was generated because we have debt (see _charge method)\n\t\tisDebt = (a.transferrable==true);\n\t}\n\n\t/**\n\t* @dev Transfer allowance to the other account.\n\t* Only for 'transferrable allowances' that were generated automatically in case of overdraft\n\t* @param _index Current alowance index (in terms of SideB). Use getAllowancesCount() to get total count\n\t* @param _to Who is gonna receive the ERC721 right + will be able to withdraw\n\t*/\n\tfunction transferAllowance(uint _index, address _to) public {\n\t\trequire(_index < getAllowancesCount());\n\n\t\tuint256 erc721id = userState[msg.sender].allAllowancesFrom[_index];\n\t\tAllowance a = allowancesMetainfo[erc721id];\n\t\trequire(a.transferrable);\n\n\t\tsuper.safeTransferFrom(msg.sender, _to, erc721id);\n\t}\n\n\t// Function to comply with dharma debt token\n\tfunction transferFrom(address _from, address _to, uint erc721id) public {\n\t\t//uint256 erc721id = userState[msg.sender].allAllowancesFrom[_index];\n\t\tAllowance a = allowancesMetainfo[erc721id];\n\t\trequire(a.transferrable);\n\n\t\t// 1 - move ERC721 token to _to address \n\t\tsuper.transferFrom(_from, _to, erc721id);\n\n\t\t// 2 - change all internal structs \n\t\t// 2.1 allowancesMetainfo \n\t\tallowancesMetainfo[erc721id].sideB = _to;\n\n\t\t// 2.2 userState \n\t\t// remove allowance from msg.sender \n\t\t// TODO: very shitty loop!\n\t\tfor(uint i=0; i<userState[msg.sender].allAllowancesFrom.length; ++i){\n\t\t\tif(userState[msg.sender].allAllowancesFrom[i]==erc721id){\n\t\t\t\tuserState[msg.sender].allAllowancesFrom[i] = 0;\n\t\t\t}\n\t\t}\n\n\t\t// add allowance to _to\n\t\tuserState[_to].allAllowancesFrom.push(erc721id);\n\n\t\t// 2.3 user2userState \n\t\t// TODO: very shitty loop!\n\t\tfor(i=0; i<user2userState[a.sideA][msg.sender].allowances.length; ++i){\n\t\t\tif(user2userState[a.sideA][msg.sender].allowances[i]==erc721id){\n\t\t\t\t// remove it from A -> B\n\t\t\t\tuser2userState[a.sideA][msg.sender].allowances[i] = 0;\n\t\t\t}\n\t\t}\n\n\t\t// connect it A -> TO\n\t\tuser2userState[a.sideA][_to].allowances.push(erc721id);\n\t}\n\t\n\t/**\n\t* @dev Will either return money OR will return money + generate new allowance (plus interested) to the SideB (me)\n\t* @param _index Current alowance index (in terms of SideB). Use getAllowancesCount() to get total count\n\t* @param _amountWei Should be less than AllowedAmount + OverDraft\n\t*/\n\tfunction charge(uint _index, uint _amountWei) public {\n\t\trequire(_index < getAllowancesCount());\n\n\t\t// 1 - calc everything\n\t\tuint256 erc721id = userState[msg.sender].allAllowancesFrom[_index];\n\t\tAllowance a = allowancesMetainfo[erc721id];\n\n\t\t// overdraft is in PPM\n\t\t// 1% is 10000 PPMs\n\t\tuint AA_with_OD = calculateAllowedPlusOverdraft(_index);\n\t\trequire(_amountWei <= AA_with_OD);\n\n\t\t// 2 - check that startingDate is OK\n\t\trequire(block.timestamp >= a.startingDate);\n\t\t// require(block.timestamp < (a.startingDate + a.periodSeconds)); // TODO: not sure why would we want to prevent charging to late\n\n\t\t// 3 - go charge SideA!\n\t\tif(_amountWei <= a.amountWei){\n\t\t\t// if we are asking less than AA\n\t\t\t_charge(a, _amountWei, erc721id);\n\t\t} else {\n\t\t\t// if we are asking more than AA but less than AA + OD \n\t\t\t// set special flag\n\t\t\tuser2userState[a.sideA][a.sideB].isOverdrafted = true;\t\n\t\t\t_charge(a, _amountWei, erc721id);\n\t\t}\n\t}\n\n\t/**\n\t* @dev Calculate how much you can withdraw (as a SideB)\n\t* @param _index is a SideB's allowance index\n\t*/\n\tfunction calculateAllowedPlusOverdraft(uint _index) public view returns(uint){\n\t\trequire(_index < getAllowancesCount());\n\n\t\tuint256 erc721id = userState[msg.sender].allAllowancesFrom[_index];\n\t\tAllowance a = allowancesMetainfo[erc721id];\n\t\treturn a.amountWei + ((a.amountWei * a.overdraftPpm) / 10000000);\n\t}\n\n\t//////// Internal stuff\n\tfunction _createNewAllowance(\n\t\taddress _from, \n\t\taddress _to,\n\t\tuint _amountWei, \n\t\tuint _overdraftPpm, \n\t\tuint _interestRatePpm, \n\t\tuint _periodSeconds, \n\t\tuint _startingDate,\n\t\tbool _transferable) internal \n\t {\n\t\t// 1 - issue new ERC721 token \n\t\tuint256 newErc721Id = uint(keccak256(_from, _to, _startingDate, _periodSeconds ));\n\t\tERC721Token._mint(_to, newErc721Id);\n\n\t\t// 2 - push Allowance struct to allowancesMetainfo\n\t\tAllowance memory a;\n\t\ta.underwriter = address(0); // Set address 0 for V0\n\t\ta.transferrable = _transferable;\n\t\ta.sideA = _from;\n\t\ta.sideB = _to;\n\t\ta.amountWei = _amountWei;\n\t\ta.overdraftPpm = _overdraftPpm;\n\t\ta.interestRatePpm = _interestRatePpm;\n\t\ta.periodSeconds = _periodSeconds;\n\t\ta.startingDate = _startingDate;\n\t\tallowancesMetainfo[newErc721Id] = a;\n\n\t\tuserState[_from].allAllowances.push(newErc721Id);\n\t\tuserState[_to].allAllowancesFrom.push(newErc721Id);\n\n\t\tuser2userState[_from][_to].allowances.push(newErc721Id);\n\t }\n\n\t // send money from SideA -> SideB\n\t function _charge(Allowance _a, uint _amountWanted, uint256 _erc721Id) internal {\n\t\t// 1 - get current sideA balance \n\t\tuint balance = userState[_a.sideA].currentBalance;\n\n\t\tif(_amountWanted <= balance){\n\t\t\t// 2 - just send money \n\t\t\t_a.sideB.transfer(_amountWanted);\n\t\t\tuserState[_a.sideA].currentBalance -= _amountWanted;\n\t\t\tallowancesMetainfo[_erc721Id].amountWei -= _amountWanted;\n\t\t } else {\n\t\t\t // special outcome: if SideA has LESS money than SideB wants (and was allowed)\n\t\t\t // 3 - send all avail money\n\t\t\t_a.sideB.transfer(balance);\n\t\t\tallowancesMetainfo[_erc721Id].amountWei = 0;\n\n\t\t\tuint remainder = _amountWanted.sub(balance);\n\t\t\tuserState[_a.sideA].currentBalance = 0;\n\n\t\t\t// 4 - create new allowance (plus interest!!!) and transfer it to SideB \n\t\t\t_createNewAllowance(\n\t\t\t\t_a.sideA,\n\t\t\t\t_a.sideB,\n\t\t\t\tremainder + remainder * _a.interestRatePpm/1000000, \n\t\t\t\t_a.overdraftPpm, \n\t\t\t\t_a.interestRatePpm, \n\t\t\t\t_a.periodSeconds, \n\t\t\t\t_a.startingDate.add(_a.periodSeconds),\n\t\t\t\t true);\n\t\t }\n\t }\n}\n",
  "sourcePath": "/Users/tonykent/ddsystem/contracts/Ledger.sol",
  "compiler": {
    "name": "solc",
    "version": "0.4.24+commit.e67f0147.Emscripten.clang"
  },
  "schemaVersion": "2.0.1",
  "updatedAt": "2018-09-09T10:03:55.713Z"
}