{
  "contractName": "NFTAuctionBase",
  "abi": [
    {
      "constant": false,
      "inputs": [],
      "name": "unpause",
      "outputs": [],
      "payable": false,
      "stateMutability": "nonpayable",
      "type": "function"
    },
    {
      "constant": true,
      "inputs": [],
      "name": "minDuration",
      "outputs": [
        {
          "name": "",
          "type": "uint256"
        }
      ],
      "payable": false,
      "stateMutability": "view",
      "type": "function"
    },
    {
      "constant": true,
      "inputs": [],
      "name": "paused",
      "outputs": [
        {
          "name": "",
          "type": "bool"
        }
      ],
      "payable": false,
      "stateMutability": "view",
      "type": "function"
    },
    {
      "constant": true,
      "inputs": [],
      "name": "maxDuration",
      "outputs": [
        {
          "name": "",
          "type": "uint256"
        }
      ],
      "payable": false,
      "stateMutability": "view",
      "type": "function"
    },
    {
      "constant": false,
      "inputs": [],
      "name": "renounceOwnership",
      "outputs": [],
      "payable": false,
      "stateMutability": "nonpayable",
      "type": "function"
    },
    {
      "constant": true,
      "inputs": [],
      "name": "ownerCut",
      "outputs": [
        {
          "name": "",
          "type": "uint256"
        }
      ],
      "payable": false,
      "stateMutability": "view",
      "type": "function"
    },
    {
      "constant": false,
      "inputs": [],
      "name": "pause",
      "outputs": [],
      "payable": false,
      "stateMutability": "nonpayable",
      "type": "function"
    },
    {
      "constant": true,
      "inputs": [],
      "name": "owner",
      "outputs": [
        {
          "name": "",
          "type": "address"
        }
      ],
      "payable": false,
      "stateMutability": "view",
      "type": "function"
    },
    {
      "constant": true,
      "inputs": [],
      "name": "nftContract",
      "outputs": [
        {
          "name": "",
          "type": "address"
        }
      ],
      "payable": false,
      "stateMutability": "view",
      "type": "function"
    },
    {
      "constant": false,
      "inputs": [
        {
          "name": "_newOwner",
          "type": "address"
        }
      ],
      "name": "transferOwnership",
      "outputs": [],
      "payable": false,
      "stateMutability": "nonpayable",
      "type": "function"
    },
    {
      "inputs": [],
      "payable": false,
      "stateMutability": "nonpayable",
      "type": "constructor"
    },
    {
      "anonymous": false,
      "inputs": [
        {
          "indexed": false,
          "name": "tokenId",
          "type": "uint256"
        },
        {
          "indexed": false,
          "name": "startPrice",
          "type": "uint256"
        },
        {
          "indexed": false,
          "name": "endPrice",
          "type": "uint256"
        },
        {
          "indexed": false,
          "name": "duration",
          "type": "uint64"
        },
        {
          "indexed": false,
          "name": "start",
          "type": "uint64"
        }
      ],
      "name": "AuctionCreated",
      "type": "event"
    },
    {
      "anonymous": false,
      "inputs": [
        {
          "indexed": false,
          "name": "tokenId",
          "type": "uint256"
        },
        {
          "indexed": false,
          "name": "totalPrice",
          "type": "uint256"
        },
        {
          "indexed": false,
          "name": "winner",
          "type": "address"
        }
      ],
      "name": "AuctionSuccessful",
      "type": "event"
    },
    {
      "anonymous": false,
      "inputs": [
        {
          "indexed": false,
          "name": "tokenId",
          "type": "uint256"
        }
      ],
      "name": "AuctionCancelled",
      "type": "event"
    },
    {
      "anonymous": false,
      "inputs": [
        {
          "indexed": false,
          "name": "",
          "type": "string"
        },
        {
          "indexed": false,
          "name": "",
          "type": "address"
        },
        {
          "indexed": false,
          "name": "",
          "type": "uint256"
        }
      ],
      "name": "PrintEvent",
      "type": "event"
    },
    {
      "anonymous": false,
      "inputs": [],
      "name": "Pause",
      "type": "event"
    },
    {
      "anonymous": false,
      "inputs": [],
      "name": "Unpause",
      "type": "event"
    },
    {
      "anonymous": false,
      "inputs": [
        {
          "indexed": true,
          "name": "previousOwner",
          "type": "address"
        }
      ],
      "name": "OwnershipRenounced",
      "type": "event"
    },
    {
      "anonymous": false,
      "inputs": [
        {
          "indexed": true,
          "name": "previousOwner",
          "type": "address"
        },
        {
          "indexed": true,
          "name": "newOwner",
          "type": "address"
        }
      ],
      "name": "OwnershipTransferred",
      "type": "event"
    },
    {
      "constant": false,
      "inputs": [
        {
          "name": "_duration",
          "type": "uint256"
        }
      ],
      "name": "setMinDuration",
      "outputs": [],
      "payable": false,
      "stateMutability": "nonpayable",
      "type": "function"
    },
    {
      "constant": false,
      "inputs": [
        {
          "name": "_duration",
          "type": "uint256"
        }
      ],
      "name": "setMaxDuration",
      "outputs": [],
      "payable": false,
      "stateMutability": "nonpayable",
      "type": "function"
    }
  ],
  "bytecode": "0x60806040526000805460a060020a60ff021916905534801561002057600080fd5b5060008054600160a060020a03191633179055610e1060035562278d006004556104f58061004f6000396000f3006080604052600436106100b95763ffffffff7c01000000000000000000000000000000000000000000000000000000006000350416631674bade81146100be5780633f4ba83a146100d857806356715761146100ed5780635c975abb146101145780636db5c8fd1461013d578063715018a61461015257806383b5ff8b146101675780638456cb591461017c5780638da5cb5b14610191578063cf0f34c4146101c2578063d56d229d146101da578063f2fde38b146101ef575b600080fd5b3480156100ca57600080fd5b506100d6600435610210565b005b3480156100e457600080fd5b506100d661022c565b3480156100f957600080fd5b506101026102b3565b60408051918252519081900360200190f35b34801561012057600080fd5b506101296102b9565b604080519115158252519081900360200190f35b34801561014957600080fd5b506101026102da565b34801561015e57600080fd5b506100d66102e0565b34801561017357600080fd5b5061010261034c565b34801561018857600080fd5b506100d6610352565b34801561019d57600080fd5b506101a66103ef565b60408051600160a060020a039092168252519081900360200190f35b3480156101ce57600080fd5b506100d66004356103fe565b3480156101e657600080fd5b506101a661041a565b3480156101fb57600080fd5b506100d6600160a060020a0360043516610429565b600054600160a060020a0316331461022757600080fd5b600355565b600054600160a060020a0316331461024357600080fd5b60005474010000000000000000000000000000000000000000900460ff16151561026c57600080fd5b6000805474ff0000000000000000000000000000000000000000191681556040517f7805862f689e2f13df9f062ff482ad3ad112aca9e0847911ed832e158c525b339190a1565b60035481565b60005474010000000000000000000000000000000000000000900460ff1681565b60045481565b600054600160a060020a031633146102f757600080fd5b60008054604051600160a060020a03909116917ff8df31144d9c2f0f6b59d69b8b98abd5459d07f2742c4df920b25aae33c6482091a26000805473ffffffffffffffffffffffffffffffffffffffff19169055565b60025481565b600054600160a060020a0316331461036957600080fd5b60005474010000000000000000000000000000000000000000900460ff161561039157600080fd5b6000805474ff00000000000000000000000000000000000000001916740100000000000000000000000000000000000000001781556040517f6985a02210a168e66602d3235cb6db0e70f92b3ba4d376a33c0f3d9434bff6259190a1565b600054600160a060020a031681565b600054600160a060020a0316331461041557600080fd5b600455565b600154600160a060020a031681565b600054600160a060020a0316331461044057600080fd5b6104498161044c565b50565b600160a060020a038116151561046157600080fd5b60008054604051600160a060020a03808516939216917f8be0079c531659141344cd1fd0a4f28419497f9722a3daafe3b4186f6b6457e091a36000805473ffffffffffffffffffffffffffffffffffffffff1916600160a060020a03929092169190911790555600a165627a7a7230582074711dc610bfb50c966215aceae219593d485685aa5edbfce37035f7f0db4bb00029",
  "source": "pragma solidity ^0.4.24;\n\nimport \"zeppelin-solidity/contracts/token/ERC721/ERC721.sol\";\nimport \"zeppelin-solidity/contracts/lifecycle/Pausable.sol\";\nimport \"zeppelin-solidity/contracts/ownership/Ownable.sol\";\n\n// Auction contract, facilitating statically priced sales, as well as \n// inflationary and deflationary pricing for items.\n// Relies heavily on the ERC721 interface and so most of the methods\n// are tightly bound to that implementation\ncontract NFTAuctionBase is Pausable {\n\tERC721 public nftContract;\n\tuint256 public ownerCut;\n\tuint public minDuration;\n\tuint public maxDuration;\n\n\t// Represents an auction on an NFT (in this case, Robot part)\n\tstruct Auction {\n\t\t// address of part owner\n\t\taddress seller;\n\t\t// wei price of listing\n\t\tuint256 startPrice;\n\t\t// wei price of floor\n\t\tuint256 endPrice;\n\t\t// duration of sale in seconds.\n\t\tuint64 duration;\n\t\t// Time when sale started\n\t\t// Reset to 0 after sale concluded\n\t\tuint64 start;\n\t}\n\n\tfunction NFTAuctionBase() public {\n\t\tminDuration = 60 minutes;\n\t\tmaxDuration = 30 days; // arbitrary\n\t}\n\n\t// map of all tokens and their auctions\n\tmapping (uint256 => Auction) tokenIdToAuction;\n\n\tevent AuctionCreated(uint256 tokenId, uint256 startPrice, uint256 endPrice, uint64 duration, uint64 start);\n\tevent AuctionSuccessful(uint256 tokenId, uint256 totalPrice, address winner);\n\tevent AuctionCancelled(uint256 tokenId);\n\n\t// returns true if the token with id _partId is owned by the _claimant address\n\tfunction _owns(address _claimant, uint256 _partId) internal view returns (bool) {\n\t\treturn nftContract.ownerOf(_partId) == _claimant;\n\t}\n\n\t// returns false if auction start time is 0, likely from uninitialised struct\n\tfunction _isActiveAuction(Auction _auction) internal pure returns (bool) {\n\t\treturn _auction.start > 0;\n\t}\n\n\t// assigns ownership of the token with id = _partId to this contract\n\t// must have already been approved\n\tfunction _escrow(address, uint _partId) internal {\n\t\t// throws on transfer fail\n\t\tnftContract.transferFrom(msg.sender, this, _partId);\n\t}\n\n\t// transfer the token with id = _partId to buying address\n\tfunction _transfer(address _purchasor, uint256 _partId) internal {\n\t\t// successful purchaseder must takeOwnership of _partId\n\t\t// nftContract.approve(_purchasor, _partId); \n\t\t// actual transfer\n\t\tnftContract.transferFrom(this, _purchasor, _partId);\n\t}\n\n\t// creates\n\tfunction _newAuction(uint256 _partId, Auction _auction) internal {\n\t\trequire(_auction.duration >= minDuration);\n\t\trequire(_auction.duration <= maxDuration);\n\n\t\ttokenIdToAuction[_partId] = _auction;\n\n\t\tAuctionCreated(uint256(_partId),\n\t\t\t\t\t   uint256(_auction.startPrice),\n\t\t\t\t\t   uint256(_auction.endPrice),\n\t\t\t\t\t   uint64(_auction.duration),\n\t\t\t\t\t   uint64(_auction.start)\n\t\t\t\t\t  );\n\t}\n\n\tfunction setMinDuration(uint _duration) external onlyOwner {\n\t\tminDuration = _duration;\n\t}\n\n\tfunction setMaxDuration(uint _duration) external onlyOwner {\n\t\tmaxDuration = _duration;\n\t}\n\n\t/// Removes auction from public view, returns token to the seller\n\tfunction _cancelAuction(uint256 _partId, address _seller) internal {\n\t\t_removeAuction(_partId);\n\t\t_transfer(_seller, _partId);\n\t\tAuctionCancelled(_partId);\n\t}\n\n\tevent PrintEvent(string, address, uint);\n\n\t// Calculates price and transfers purchase to owner. Part is NOT transferred to buyer.\n\tfunction _purchase(uint256 _partId, uint256 _purchaseAmount) internal returns (uint256) {\n\n\t\tAuction storage auction = tokenIdToAuction[_partId];\n\n\t\t// check that this token is being auctioned\n\t\trequire(_isActiveAuction(auction));\n\n\t\t// enforce purchase >= the current price\n\t\tuint256 price = _currentPrice(auction);\n\t\trequire(_purchaseAmount >= price);\n\n\t\t// Store seller before we delete auction.\n\t\taddress seller = auction.seller;\n\n\t\t// Valid purchase. Remove auction to prevent reentrancy.\n\t\t_removeAuction(_partId);\n\n\t\t// Transfer proceeds to seller (if there are any!)\n\t\tif (price > 0) {\n\n\t\t\t// Calculate and take fee from purchase\n\n\t\t\tuint256 auctioneerCut = _computeFee(price);\n\t\t\tuint256 sellerProceeds = price - auctioneerCut;\n\n\t\t\tPrintEvent(\"Seller, proceeds\", seller, sellerProceeds);\n\n\t\t\t// Pay the seller\n\t\t\tseller.transfer(sellerProceeds);\n\t\t}\n\n\t\t// Calculate excess funds and return to buyer.\n\t\tuint256 purchaseExcess = _purchaseAmount - price;\n\n\t\tPrintEvent(\"Sender, excess\", msg.sender, purchaseExcess);\n\t\t// Return any excess funds. Reentrancy again prevented by deleting auction.\n\t\tmsg.sender.transfer(purchaseExcess);\n\n\t\tAuctionSuccessful(_partId, price, msg.sender);\n\n\t\treturn price;\n\t}\n\n\t// returns the current price of the token being auctioned in _auction\n\tfunction _currentPrice(Auction storage _auction) internal view returns (uint256) {\n\t\tuint256 secsElapsed = now - _auction.start;\n\t\treturn _computeCurrentPrice(\n\t\t\t_auction.startPrice,\n\t\t\t_auction.endPrice,\n\t\t\t_auction.duration,\n\t\t\tsecsElapsed\n\t\t);\n\t}\n\n\t// removes the auction of the part with id _partId\n\tfunction _removeAuction(uint256 _partId) internal {\n\t\tdelete tokenIdToAuction[_partId];\n\t}\n\n\t// computes the current price of an deflating-price auction \n\tfunction _computeCurrentPrice( uint256 _startPrice, uint256 _endPrice, uint256 _duration, uint256 _secondsPassed ) internal pure returns (uint256 _price) {\n\t\t_price = _startPrice;\n\t\tif (_secondsPassed >= _duration) {\n\t\t\t// Has been up long enough to hit endPrice.\n\t\t\t// Return this price floor.\n\t\t\t_price = _endPrice;\n\t\t\t// this is a statically price sale. Just return the price.\n\t\t}\n\t\telse if (_duration > 0) {\n\t\t\t// This auction contract supports auctioning from any valid price to any other valid price.\n\t\t\t// This means the price can dynamically increase upward, or downard.\n\t\t\tint256 priceDifference = int256(_endPrice) - int256(_startPrice);\n\t\t\tint256 currentPriceDifference = priceDifference * int256(_secondsPassed) / int256(_duration);\n\t\t\tint256 currentPrice = int256(_startPrice) + currentPriceDifference;\n\n\t\t\t_price = uint256(currentPrice);\n\t\t}\n\t\treturn _price;\n\t}\n\n\t// Compute percentage fee of transaction\n\tfunction _computeFee (uint256 _price) internal view returns (uint256) {\n\t\treturn _price * ownerCut / 10000; \n\t}\n}\n\n\n/**\n * @title DutchAuction \n * @dev Unfortunately DutchX does not support ERC721 ((((( \n * So we built our own simple Dutch auction\n */\ncontract DutchAuction is NFTAuctionBase {\n\tfunction DutchAuction(address _nftAddress, uint256 _fee) public {\n\t\trequire(_fee <= 10000);\n\t\townerCut = _fee;\n\n\t\tnftContract = ERC721(_nftAddress);\n\t}\n\n\t// Remove all ether from the contract. This will be marketplace fees.\n\t// Transfers to the NFT contract.\n\t// Can be called by owner or NFT contract.\n\tfunction withdrawBalance() external {\n\t\taddress nftAddress = address(nftContract);\n\n\t\trequire(msg.sender == owner || msg.sender == nftAddress);\n\n\t\tnftAddress.transfer(this.balance);\n\t}\n\n\tevent PrintEvent(string, address, uint);\n\n\t// Creates an auction and lists it.\n\tfunction createAuction( uint256 _partId, uint256 _startPrice, uint256 _endPrice, uint256 _duration, address _seller ) external whenNotPaused {\n\t\t// Sanity check that no inputs overflow how many bits we've allocated\n\t\t// to store them in the auction struct.\n\t\trequire(_startPrice == uint256(uint128(_startPrice)));\n\t\trequire(_endPrice == uint256(uint128(_endPrice)));\n\t\trequire(_duration == uint256(uint64(_duration)));\n\t\trequire(_startPrice >= _endPrice);\n\n\t\trequire(nftContract.ownerOf(_partId) == msg.sender);\n\n\t\t_escrow(_seller, _partId);\n\n\t\tAuction memory auction = Auction(\n\t\t\t_seller,\n\t\t\tuint128(_startPrice),\n\t\t\tuint128(_endPrice),\n\t\t\tuint64(_duration),\n\t\t\tuint64(now) //seconds uint\n\t\t);\n\t\tPrintEvent(\"Auction Start\", 0x0, auction.start);\n\t\t_newAuction(_partId, auction);\n\t}\n\n\t// SCRAPYARD PRICING LOGIC\n\tuint8 constant LAST_CONSIDERED = 5;\n\tuint8 public scrapCounter = 0;\n\tuint[5] public lastScrapPrices;\n\n\t// Purchases an open auction\n\t// Will transfer ownership if successful.\n\n\tfunction purchase(uint256 _partId) external payable whenNotPaused {\n\t\taddress seller = tokenIdToAuction[_partId].seller;\n\n\t\t// _purchase will throw if the purchase or funds transfer fails\n\t\tuint256 price = _purchase(_partId, msg.value);\n\t\t_transfer(msg.sender, _partId);\n\n\t\t// If the seller is the scrapyard, track price information.\n\t\tif (seller == address(nftContract)) {\n\n\t\t\tlastScrapPrices[scrapCounter] = price;\n\t\t\tif (scrapCounter == LAST_CONSIDERED - 1) {\n\t\t\t\tscrapCounter = 0;\n\t\t\t} else {\n\t\t\t\tscrapCounter++;\n\t\t\t}\n\t\t}\n\t}\n\n\tfunction averageScrapPrice() public view returns (uint) {\n\t\tuint sum = 0;\n\t\tfor (uint8 i = 0; i < LAST_CONSIDERED; i++) {\n\t\t\tsum += lastScrapPrices[i];\n\t\t}\n\t\treturn sum / LAST_CONSIDERED;\n\t}\n\n\t// Allows a user to cancel an auction before it's resolved.\n\t// Returns the part to the seller.\n\n\tfunction cancelAuction(uint256 _partId) external {\n\t\tAuction storage auction = tokenIdToAuction[_partId];\n\t\trequire(_isActiveAuction(auction));\n\t\taddress seller = auction.seller;\n\t\trequire(msg.sender == seller);\n\t\t_cancelAuction(_partId, seller);\n\t}\n\n\t// returns the current price of the auction of a token with id _partId\n\tfunction getCurrentPrice(uint256 _partId) external view returns (uint256) {\n\t\tAuction storage auction = tokenIdToAuction[_partId];\n\t\trequire(_isActiveAuction(auction));\n\t\treturn _currentPrice(auction);\n\t}\n\n\t//  Returns the details of an auction from its _partId.\n\tfunction getAuction(uint256 _partId) external view returns ( address seller, uint256 startPrice, uint256 endPrice, uint256 duration, uint256 startedAt ) {\n\t\tAuction storage auction = tokenIdToAuction[_partId];\n\t\trequire(_isActiveAuction(auction));\n\t\treturn ( auction.seller, auction.startPrice, auction.endPrice, auction.duration, auction.start);\n\t}\n\n\t// Allows owner to cancel an auction.\n\t// ONLY able to be used when contract is paused,\n\t// in the case of emergencies.\n\t// Parts returned to seller as it's equivalent to them\n\t// calling cancel.\n\tfunction cancelAuctionWhenPaused(uint256 _partId) whenPaused onlyOwner external {\n\t\tAuction storage auction = tokenIdToAuction[_partId];\n\t\trequire(_isActiveAuction(auction));\n\t\t_cancelAuction(_partId, auction.seller);\n\t}\n}\n",
  "sourcePath": "/Users/tonykent/ddsystem/contracts/auction/DutchAuction.sol",
  "compiler": {
    "name": "solc",
    "version": "0.4.24+commit.e67f0147.Emscripten.clang"
  },
  "schemaVersion": "2.0.1",
  "updatedAt": "2018-09-09T10:03:55.727Z"
}