{
  "contractName": "UnderwriterSubsystemFactory",
  "abi": [
    {
      "constant": true,
      "inputs": [],
      "name": "us",
      "outputs": [
        {
          "name": "",
          "type": "address"
        }
      ],
      "payable": false,
      "stateMutability": "view",
      "type": "function"
    },
    {
      "constant": false,
      "inputs": [],
      "name": "deployDao",
      "outputs": [],
      "payable": false,
      "stateMutability": "nonpayable",
      "type": "function"
    }
  ],
  "bytecode": "0x608060405234801561001057600080fd5b50616709806100206000396000f3006080604052600436106100325763ffffffff60e060020a6000350416631a9ae50d81146100375780638fc4736414610068575b600080fd5b34801561004357600080fd5b5061004c61007f565b60408051600160a060020a039092168252519081900360200190f35b34801561007457600080fd5b5061007d61008e565b005b600054600160a060020a031681565b600080600080601260018060006100a361068a565b60ff9094166040808601919091529215156060850152901515608084015260a083015260c0808352600c908301527f556e644d6f64546f6b656e73000000000000000000000000000000000000000060e0830152610100602083018190526003908301527f554d540000000000000000000000000000000000000000000000000000000000610120830152519081900361014001906000f08015801561014d573d6000803e3d6000fd5b50835460018101855560008581526020902001805473ffffffffffffffffffffffffffffffffffffffff1916600160a060020a03831617905593508261019161069a565b6020808252825490820181905281906040820190849080156101dc57602002820191906000526020600020905b8154600160a060020a031681526001909101906020018083116101be575b505092505050604051809103906000f0801580156101fe573d6000803e3d6000fd5b5091508161020a6106aa565b600160a060020a03909116815260405190819003602001906000f080158015610237573d6000803e3d6000fd5b50905083600160a060020a031663f2fde38b826040518263ffffffff1660e060020a0281526004018082600160a060020a0316600160a060020a03168152602001915050600060405180830381600087803b15801561029557600080fd5b505af11580156102a9573d6000803e3d6000fd5b50505050806102b66106ba565b600160a060020a03909116815260405190819003602001906000f0801580156102e3573d6000803e3d6000fd5b506000806101000a815481600160a060020a030219169083600160a060020a0316021790555080600160a060020a0316636f32491982600160a060020a0316638faa37f16040518163ffffffff1660e060020a028152600401602060405180830381600087803b15801561035657600080fd5b505af115801561036a573d6000803e3d6000fd5b505050506040513d602081101561038057600080fd5b50516040805160e060020a63ffffffff8516028152600481019290925233602483015251604480830192600092919082900301818387803b1580156103c457600080fd5b505af11580156103d8573d6000803e3d6000fd5b5050505080600160a060020a0316636f32491982600160a060020a0316631955c0a46040518163ffffffff1660e060020a028152600401602060405180830381600087803b15801561042957600080fd5b505af115801561043d573d6000803e3d6000fd5b505050506040513d602081101561045357600080fd5b5051600080546040805160e060020a63ffffffff87160281526004810194909452600160a060020a0390911660248401525160448084019382900301818387803b1580156104a057600080fd5b505af11580156104b4573d6000803e3d6000fd5b5050505080600160a060020a031663a08ce4096000809054906101000a9004600160a060020a0316600160a060020a031663d4f8edf76040518163ffffffff1660e060020a028152600401602060405180830381600087803b15801561051957600080fd5b505af115801561052d573d6000803e3d6000fd5b505050506040513d602081101561054357600080fd5b50516040805160e060020a63ffffffff85160281526004810192909252600160a060020a038816602483015251604480830192600092919082900301818387803b15801561059057600080fd5b505af11580156105a4573d6000803e3d6000fd5b5050505080600160a060020a031663715018a66040518163ffffffff1660e060020a028152600401600060405180830381600087803b1580156105e657600080fd5b505af11580156105fa573d6000803e3d6000fd5b5050604080517f2459bac8000000000000000000000000000000000000000000000000000000008152600160a060020a03888116600483015233602483015260646044830181905292519086169450632459bac893508183019260009282900301818387803b15801561066c57600080fd5b505af1158015610680573d6000803e3d6000fd5b5050505050505050565b604051611b28806106cb83390190565b60405161192c806121f383390190565b6040516124fc80613b1f83390190565b6040516106c38061601b83390190560060806040526006805460a060020a61ffff02191690553480156200002257600080fd5b5060405162001b2838038062001b288339810160409081528151602080840151928401516060850151608086015160a08701519487018051909796909601959294919390928791879187916200007e916000918601906200013d565b508151620000949060019060208501906200013d565b506002805460ff90921660ff19909216919091179055505060068054600160a060020a0319163317905560008111620000cc57600080fd5b600855600980549115156101000261ff001993151560ff1990931692909217929092161790555050600a80546001810182556000919091527fc65a7bb8d6351c1cf70c95a316cc6a92839c986682d98bc35f958f4883f9d2a8018054600160a060020a0319163017905550620001e2565b828054600181600116156101000203166002900490600052602060002090601f016020900481019282601f106200018057805160ff1916838001178555620001b0565b82800160010185558215620001b0579182015b82811115620001b057825182559160200191906001019062000193565b50620001be929150620001c2565b5090565b620001df91905b80821115620001be5760008155600101620001c9565b90565b61193680620001f26000396000f30060806040526004361061017c5763ffffffff60e060020a60003504166305d2035b811461018157806306fdde03146101aa578063095ea7b314610234578063154b850b1461025857806318160ddd1461028e5780631dd319cb146102a357806323b872dd146102c95780632a11ced0146102f3578063313ce56714610327578063355274ea146103525780633f4ba83a1461036757806340c10f191461037c57806342966c68146103a057806357005109146103b85780635c975abb146103cd57806362b5aff6146103e2578063661884631461040657806370a082311461042a578063715018a61461044b5780637984cd4a146104605780637d64bcb4146104755780638456cb591461048a5780638da5cb5b1461049f57806395d89b41146104b4578063982fb7b8146104c9578063a9059cbb146104e1578063abe7c08e14610505578063c6d30d9c1461051d578063d73dd62314610532578063da1919b314610556578063dd62ed3e1461057a578063f2fde38b146105a1575b600080fd5b34801561018d57600080fd5b506101966105c2565b604080519115158252519081900360200190f35b3480156101b657600080fd5b506101bf6105d2565b6040805160208082528351818301528351919283929083019185019080838360005b838110156101f95781810151838201526020016101e1565b50505050905090810190601f1680156102265780820380516001836020036101000a031916815260200191505b509250505060405180910390f35b34801561024057600080fd5b50610196600160a060020a0360043516602435610660565b34801561026457600080fd5b5061027c600435600160a060020a036024351661068d565b60408051918252519081900360200190f35b34801561029a57600080fd5b5061027c610705565b3480156102af57600080fd5b506102c7600160a060020a036004351660243561070b565b005b3480156102d557600080fd5b50610196600160a060020a0360043581169060243516604435610741565b3480156102ff57600080fd5b5061030b600435610801565b60408051600160a060020a039092168252519081900360200190f35b34801561033357600080fd5b5061033c610829565b6040805160ff9092168252519081900360200190f35b34801561035e57600080fd5b5061027c610832565b34801561037357600080fd5b506102c7610838565b34801561038857600080fd5b50610196600160a060020a036004351660243561086f565b3480156103ac57600080fd5b506102c760043561017c565b3480156103c457600080fd5b5061027c6108a0565b3480156103d957600080fd5b506101966109dd565b3480156103ee57600080fd5b5061027c600435600160a060020a03602435166109ed565b34801561041257600080fd5b50610196600160a060020a03600435166024356109f9565b34801561043657600080fd5b5061027c600160a060020a0360043516610a1d565b34801561045757600080fd5b506102c7610a38565b34801561046c57600080fd5b5061027c610aa6565b34801561048157600080fd5b50610196610b3d565b34801561049657600080fd5b506102c7610bc2565b3480156104ab57600080fd5b5061030b610bf7565b3480156104c057600080fd5b506101bf610c06565b3480156104d557600080fd5b506102c7600435610c60565b3480156104ed57600080fd5b50610196600160a060020a0360043516602435610cd2565b34801561051157600080fd5b506102c7600435610d89565b34801561052957600080fd5b5061027c610de2565b34801561053e57600080fd5b50610196600160a060020a0360043516602435610e43565b34801561056257600080fd5b50610196600160a060020a0360043516602435610e67565b34801561058657600080fd5b5061027c600160a060020a0360043581169060243516610f56565b3480156105ad57600080fd5b506102c7600160a060020a0360043516610f81565b60065460a860020a900460ff1681565b6000805460408051602060026001851615610100026000190190941693909304601f810184900484028201840190925281815292918301828280156106585780601f1061062d57610100808354040283529160200191610658565b820191906000526020600020905b81548152906001019060200180831161063b57829003601f168201915b505050505081565b60065460009060a060020a900460ff161561067a57600080fd5b6106848383610fa4565b90505b92915050565b60008281526007602052604081206001015460ff1615156106ad57600080fd5b6106b7838361100a565b15156106dc5750600160a060020a038116600090815260036020526040902054610687565b506000918252600760209081526040808420600160a060020a0393909316845291905290205490565b60045490565b60095460ff16151561071c57600080fd5b600654600160a060020a0316331461073357600080fd5b61073d828261103d565b5050565b60065460009060a060020a900460ff161561075b57600080fd5b600160a060020a0383166000908152600b602052604090205460ff1615156107ee57600a805460018082019092557fc65a7bb8d6351c1cf70c95a316cc6a92839c986682d98bc35f958f4883f9d2a801805473ffffffffffffffffffffffffffffffffffffffff1916600160a060020a0386169081179091556000908152600b60205260409020805460ff191690911790555b6107f9848484611050565b949350505050565b600a80548290811061080f57fe5b600091825260209091200154600160a060020a0316905081565b60025460ff1681565b60085481565b600954610100900460ff16151561084e57600080fd5b600654600160a060020a0316331461086557600080fd5b61086d611067565b565b60065460009060a860020a900460ff161561088957600080fd5b600654600160a060020a0316331461017c57600080fd5b600080805b600a548110156109d75773__UtilsLib______________________________63677342ce30600160a060020a03166370a08231600a858154811015156108e757fe5b60009182526020808320909101546040805160e060020a63ffffffff8716028152600160a060020a0390921660048301525160248083019491928390030190829087803b15801561093757600080fd5b505af115801561094b573d6000803e3d6000fd5b505050506040513d602081101561096157600080fd5b50516040805160e060020a63ffffffff85160281526004810192909252516024808301926020929190829003018186803b15801561099e57600080fd5b505af41580156109b2573d6000803e3d6000fd5b505050506040513d60208110156109c857600080fd5b505191909101906001016108a5565b50919050565b60065460a060020a900460ff1681565b6000610684838361068d565b60065460009060a060020a900460ff1615610a1357600080fd5b61068483836110df565b600160a060020a031660009081526003602052604090205490565b600654600160a060020a03163314610a4f57600080fd5b600654604051600160a060020a03909116907ff8df31144d9c2f0f6b59d69b8b98abd5459d07f2742c4df920b25aae33c6482090600090a26006805473ffffffffffffffffffffffffffffffffffffffff19169055565b6000805b601481101561017c5760008181526007602052604090206001015460ff161515610b31576000818152600760209081526040918290206001818101805460ff19169091179055426002909101558151838152915133927ff77c6f27499b698205f54058c2914a340e1300c2bc0d9a819e7aebfbaabbbb9392908290030190a2809150610b39565b600101610aaa565b5090565b600654600090600160a060020a03163314610b5757600080fd5b60065460a860020a900460ff1615610b6e57600080fd5b6006805475ff000000000000000000000000000000000000000000191660a860020a1790556040517fae5184fba832cb2b1f702aca6117b8d265eaf03ad33eb133f19dde0f5920fa0890600090a150600190565b600954610100900460ff161515610bd857600080fd5b600654600160a060020a03163314610bef57600080fd5b61086d6111ce565b600654600160a060020a031681565b60018054604080516020600284861615610100026000190190941693909304601f810184900484028201840190925281815292918301828280156106585780601f1061062d57610100808354040283529160200191610658565b60008181526007602052604090206001015460ff161515610c8057600080fd5b600081815260076020908152604091829020600101805460ff191690558151838152915133927ff49d881e799e402df6d3d88bdea3729b3cc3f4f46bb9a70f9be9435f41d8185792908290030190a250565b60065460009060a060020a900460ff1615610cec57600080fd5b600160a060020a0383166000908152600b602052604090205460ff161515610d7f57600a805460018082019092557fc65a7bb8d6351c1cf70c95a316cc6a92839c986682d98bc35f958f4883f9d2a801805473ffffffffffffffffffffffffffffffffffffffff1916600160a060020a0386169081179091556000908152600b60205260409020805460ff191690911790555b610684838361124b565b60065460a060020a900460ff1615610da057600080fd5b610da981610c60565b60408051828152905133917f5b60b15f9c22e96a79775262f4be0afac0552bb88abc5ec341b10f708aa366cf919081900360200190a250565b600654600090819060a060020a900460ff1615610dfe57600080fd5b610e06610aa6565b60408051828152905191925033917ff318b16025413645144ed83c64d2d30f089c10bc263cab68a036c00f011827be9181900360200190a2919050565b60065460009060a060020a900460ff1615610e5d57600080fd5b6106848383611261565b60065460009060a860020a900460ff1615610e8157600080fd5b600654600160a060020a03163314610e9857600080fd5b600854600454610eae908463ffffffff6112fa16565b1115610eb957600080fd5b600160a060020a0383166000908152600b602052604090205460ff161515610f4c57600a805460018082019092557fc65a7bb8d6351c1cf70c95a316cc6a92839c986682d98bc35f958f4883f9d2a801805473ffffffffffffffffffffffffffffffffffffffff1916600160a060020a0386169081179091556000908152600b60205260409020805460ff191690911790555b6106848383611307565b600160a060020a03918216600090815260056020908152604080832093909416825291909152205490565b600654600160a060020a03163314610f9857600080fd5b610fa18161134b565b50565b336000818152600560209081526040808320600160a060020a038716808552908352818420869055815186815291519394909390927f8c5be1e5ebec7d5bd14f71427d1e84f3dd0314c0f7b2291e5b200ac8c7c3b925928290030190a350600192915050565b60008281526007602090815260408083206002810154600160a060020a0386168552925290912060010154101592915050565b611046826113c9565b61073d8282611432565b600061105c8484611521565b6107f9848484611533565b600654600160a060020a0316331461107e57600080fd5b60065460a060020a900460ff16151561109657600080fd5b6006805474ff0000000000000000000000000000000000000000191690556040517f7805862f689e2f13df9f062ff482ad3ad112aca9e0847911ed832e158c525b3390600090a1565b336000908152600560209081526040808320600160a060020a038616845290915281205480831061113357336000908152600560209081526040808320600160a060020a0388168452909152812055611168565b611143818463ffffffff61155816565b336000908152600560209081526040808320600160a060020a03891684529091529020555b336000818152600560209081526040808320600160a060020a0389168085529083529281902054815190815290519293927f8c5be1e5ebec7d5bd14f71427d1e84f3dd0314c0f7b2291e5b200ac8c7c3b925929181900390910190a35060019392505050565b600654600160a060020a031633146111e557600080fd5b60065460a060020a900460ff16156111fc57600080fd5b6006805474ff0000000000000000000000000000000000000000191660a060020a1790556040517f6985a02210a168e66602d3235cb6db0e70f92b3ba4d376a33c0f3d9434bff62590600090a1565b60006112573384611521565b610684838361156a565b336000908152600560209081526040808320600160a060020a0386168452909152812054611295908363ffffffff6112fa16565b336000818152600560209081526040808320600160a060020a0389168085529083529281902085905580519485525191937f8c5be1e5ebec7d5bd14f71427d1e84f3dd0314c0f7b2291e5b200ac8c7c3b925929081900390910190a350600192915050565b8181018281101561068757fe5b60065460009060a860020a900460ff161561132157600080fd5b600654600160a060020a0316331461133857600080fd5b611341836113c9565b610684838361158e565b600160a060020a038116151561136057600080fd5b600654604051600160a060020a038084169216907f8be0079c531659141344cd1fd0a4f28419497f9722a3daafe3b4186f6b6457e090600090a36006805473ffffffffffffffffffffffffffffffffffffffff1916600160a060020a0392909216919091179055565b6000805b601482101561142d576113e08284611688565b9050801561142257600160a060020a03831660008181526003602090815260408083205486845260078352818420948452939091529020908155426001909101555b6001909101906113cd565b505050565b600160a060020a03821660009081526003602052604090205481111561145757600080fd5b600160a060020a038216600090815260036020526040902054611480908263ffffffff61155816565b600160a060020a0383166000908152600360205260409020556004546114ac908263ffffffff61155816565b600455604080518281529051600160a060020a038416917fcc16f5dbb4873280815c1ee09dbd06736cffcc184412cf7a71a0fdb75d397ca5919081900360200190a2604080518281529051600091600160a060020a038516916000805160206118eb8339815191529181900360200190a35050565b61152a816113c9565b61073d826113c9565b60065460009060a060020a900460ff161561154d57600080fd5b6107f98484846116b6565b60008282111561156457fe5b50900390565b60065460009060a060020a900460ff161561158457600080fd5b610684838361181b565b600654600090600160a060020a031633146115a857600080fd5b60065460a860020a900460ff16156115bf57600080fd5b6004546115d2908363ffffffff6112fa16565b600455600160a060020a0383166000908152600360205260409020546115fe908363ffffffff6112fa16565b600160a060020a038416600081815260036020908152604091829020939093558051858152905191927f0f6798a560793a54c3bcfe86a93cde1e73087d944c0ea20544137d412139688592918290030190a2604080518381529051600160a060020a038516916000916000805160206118eb8339815191529181900360200190a350600192915050565b60008281526007602052604081206001015460ff16801561068457506116ae838361100a565b159392505050565b600160a060020a0383166000908152600360205260408120548211156116db57600080fd5b600160a060020a038416600090815260056020908152604080832033845290915290205482111561170b57600080fd5b600160a060020a038316151561172057600080fd5b600160a060020a038416600090815260036020526040902054611749908363ffffffff61155816565b600160a060020a03808616600090815260036020526040808220939093559085168152205461177e908363ffffffff6112fa16565b600160a060020a0380851660009081526003602090815260408083209490945591871681526005825282812033825290915220546117c2908363ffffffff61155816565b600160a060020a03808616600081815260056020908152604080832033845282529182902094909455805186815290519287169391926000805160206118eb833981519152929181900390910190a35060019392505050565b3360009081526003602052604081205482111561183757600080fd5b600160a060020a038316151561184c57600080fd5b3360009081526003602052604090205461186c908363ffffffff61155816565b3360009081526003602052604080822092909255600160a060020a0385168152205461189e908363ffffffff6112fa16565b600160a060020a0384166000818152600360209081526040918290209390935580518581529051919233926000805160206118eb8339815191529281900390910190a3506001929150505600ddf252ad1be2c89b69c2b068fc378daa952ba7f163c4a11628f55a4df523b3efa165627a7a72305820f470a96bf9bb0e6fa7f679f7878f82955ba14ef28301d3cd027ddf2ff7500d570029608060405234801561001057600080fd5b5060405161192c38038061192c83398101604052805160008054600160a060020a031916331781559101905b815181101561009a576001828281518110151561005557fe5b6020908102919091018101518254600180820185556000948552929093209092018054600160a060020a031916600160a060020a03909316929092179091550161003c565b5050611881806100ab6000396000f30060806040526004361061023a5763ffffffff7c0100000000000000000000000000000000000000000000000000000000600035041663013cf08b811461023f57806305d1a27414610273578063079e53df146102e45780630e8d06b51461031c5780631176415f1461034057806329056f59146103665780632cdd9cd61461038a5780632f24e899146103a55780633962f82d146103cf5780634f64b2be146103e4578063504fd24d146103fc57806352323367146104205780635526f934146104355780635879a62114610450578063599f6237146104745780635fd1bd9d14610498578063601fc832146104b057806362ea7796146104c857806366079d4e146104dd5780636c052cd8146105015780636d4ae680146105195780636f3249191461052e578063715018a61461055257806383920871146105675780638b979f51146105885780638da5cb5b146105a05780639181f0fc146105b557806397988dce146105d057806398899bd3146105e857806398e527d31461060c578063a08ce40914610621578063a99fa3e214610645578063be28cbb514610669578063c8fcb6981461068d578063cb2840c5146106a8578063cb3022ff146106c9578063cceb68f5146106ed578063d48bfca714610702578063da9c548814610723578063e1b73c8414610747578063e8e375221461076b578063ee5cdecd1461078c578063f12e24c4146107b0578063f19a6f0a146107cb578063f2fde38b146107ec578063f9e6579b1461080d578063fb8ec97214610831575b600080fd5b34801561024b57600080fd5b50610257600435610852565b60408051600160a060020a039092168252519081900360200190f35b34801561027f57600080fd5b50610294600160a060020a036004351661087a565b60408051602080825283518183015283519192839290830191858101910280838360005b838110156102d05781810151838201526020016102b8565b505050509050019250505060405180910390f35b3480156102f057600080fd5b50610308600435600160a060020a03602435166108e7565b604080519115158252519081900360200190f35b34801561032857600080fd5b50610308600160a060020a036004351660243561090f565b34801561034c57600080fd5b50610364600435600160a060020a036024351661092f565b005b34801561037257600080fd5b50610364600435600160a060020a0360243516610974565b34801561039657600080fd5b506103646004356024356109b6565b3480156103b157600080fd5b506103bd6004356109f2565b60408051918252519081900360200190f35b3480156103db57600080fd5b506103bd610a04565b3480156103f057600080fd5b50610257600435610a0a565b34801561040857600080fd5b506103bd600160a060020a0360043516602435610a18565b34801561042c57600080fd5b50610294610a73565b34801561044157600080fd5b50610257600435602435610ad5565b34801561045c57600080fd5b50610364600435600160a060020a0360243516610b0c565b34801561048057600080fd5b50610308600160a060020a0360043516602435610b4e565b3480156104a457600080fd5b50610257600435610b6e565b3480156104bc57600080fd5b50610257600435610b7c565b3480156104d457600080fd5b506103bd610bb6565b3480156104e957600080fd5b50610308600160a060020a0360043516602435610bbc565b34801561050d57600080fd5b50610294600435610bdc565b34801561052557600080fd5b50610294610c47565b34801561053a57600080fd5b50610364600435600160a060020a0360243516610ca7565b34801561055e57600080fd5b50610364610cec565b34801561057357600080fd5b50610364600160a060020a0360043516610d58565b34801561059457600080fd5b50610257600435610dce565b3480156105ac57600080fd5b50610257610ded565b3480156105c157600080fd5b50610257600435602435610dfc565b3480156105dc57600080fd5b50610257600435610e4c565b3480156105f457600080fd5b50610364600435600160a060020a0360243516610e6b565b34801561061857600080fd5b506103bd610ead565b34801561062d57600080fd5b50610364600435600160a060020a0360243516610eb3565b34801561065157600080fd5b50610364600435600160a060020a0360243516610ef8565b34801561067557600080fd5b506103bd600160a060020a0360043516602435611031565b34801561069957600080fd5b50610364600435602435611061565b3480156106b457600080fd5b50610364600160a060020a036004351661109a565b3480156106d557600080fd5b50610308600435600160a060020a0360243516611146565b3480156106f957600080fd5b506102946111ff565b34801561070e57600080fd5b50610364600160a060020a036004351661125f565b34801561072f57600080fd5b50610308600435600160a060020a03602435166112d4565b34801561075357600080fd5b50610364600435600160a060020a0360243516611363565b34801561077757600080fd5b506103bd600160a060020a036004351661163a565b34801561079857600080fd5b50610308600435600160a060020a0360243516611655565b3480156107bc57600080fd5b5061030860043560243561167d565b3480156107d757600080fd5b50610364600160a060020a036004351661169d565b3480156107f857600080fd5b50610364600160a060020a036004351661172e565b34801561081957600080fd5b50610308600435600160a060020a0360243516611751565b34801561083d57600080fd5b50610364600160a060020a0360043516611779565b600280548290811061086057fe5b600091825260209091200154600160a060020a0316905081565b600160a060020a0381166000908152600860209081526040918290208054835181840281018401909452808452606093928301828280156108db57602002820191906000526020600020905b815481526001909101906020018083116108c6575b50505050509050919050565b600160a060020a03166000908152600660209081526040808320938352929052205460ff1690565b600560209081526000928352604080842090915290825290205460ff1681565b600054600160a060020a0316331461094657600080fd5b600160a060020a0316600090815260046020908152604080832093835292905220805460ff19166001179055565b600054600160a060020a0316331461098b57600080fd5b600160a060020a0316600090815260056020908152604080832093835292905220805460ff19169055565b600054600160a060020a031633146109cd57600080fd5b600090815260076020908152604080832093835292905220805460ff19166001179055565b60009081526009602052604090205490565b60015490565b600180548290811061086057fe5b600160a060020a0382166000908152600860205260408120548210610a3c57600080fd5b600160a060020a0383166000908152600860205260409020805483908110610a6057fe5b9060005260206000200154905092915050565b60606003805480602002602001604051908101604052809291908181526020018280548015610acb57602002820191906000526020600020905b8154600160a060020a03168152600190910190602001808311610aad575b5050505050905090565b600960205281600052604060002081815481101515610af057fe5b600091825260209091200154600160a060020a03169150829050565b600054600160a060020a03163314610b2357600080fd5b600160a060020a0316600090815260066020908152604080832093835292905220805460ff19169055565b600460209081526000928352604080842090915290825290205460ff1681565b600380548290811061086057fe5b6003546000908210610b8d57600080fd5b6003805483908110610b9b57fe5b600091825260209091200154600160a060020a031692915050565b60035490565b600660209081526000928352604080842090915290825290205460ff1681565b6000818152600960209081526040918290208054835181840281018401909452808452606093928301828280156108db57602002820191906000526020600020905b8154600160a060020a03168152600190910190602001808311610c1e5750505050509050919050565b60606001805480602002602001604051908101604052809291908181526020018280548015610acb57602002820191906000526020600020908154600160a060020a03168152600190910190602001808311610aad575050505050905090565b600054600160a060020a03163314610cbe57600080fd5b600160a060020a0316600090815260066020908152604080832093835292905220805460ff19166001179055565b600054600160a060020a03163314610d0357600080fd5b60008054604051600160a060020a03909116917ff8df31144d9c2f0f6b59d69b8b98abd5459d07f2742c4df920b25aae33c6482091a26000805473ffffffffffffffffffffffffffffffffffffffff19169055565b600054600160a060020a03163314610d6f57600080fd5b600280546001810182556000919091527f405787fa12a823e0f2b7631cc41b3ba8828b3321ca811111fa75cd3aa3bb5ace01805473ffffffffffffffffffffffffffffffffffffffff1916600160a060020a0392909216919091179055565b6002546000908210610ddf57600080fd5b6002805483908110610b9b57fe5b600054600160a060020a031681565b6000828152600960205260408120548210610e1657600080fd5b6000838152600960205260409020805483908110610e3057fe5b600091825260209091200154600160a060020a03169392505050565b6001546000908210610e5d57600080fd5b6001805483908110610b9b57fe5b600054600160a060020a03163314610e8257600080fd5b600160a060020a0316600090815260046020908152604080832093835292905220805460ff19169055565b60025490565b600054600160a060020a03163314610eca57600080fd5b600160a060020a0316600090815260056020908152604080832093835292905220805460ff19166001179055565b600054600160a060020a03163314610f0f57600080fd5b60008281526009602090815260409182902082517f47d01e590000000000000000000000000000000000000000000000000000000081526004810191909152600160a060020a0384166024820152915173__UtilsLib______________________________926347d01e59926044808301939192829003018186803b158015610f9757600080fd5b505af4158015610fab573d6000803e3d6000fd5b505050506040513d6020811015610fc157600080fd5b505115610fcd57600080fd5b600160a060020a03166000818152600860209081526040808320805460018181018355918552838520018690559483526009825282208054948501815582529020909101805473ffffffffffffffffffffffffffffffffffffffff19169091179055565b60086020528160005260406000208181548110151561104c57fe5b90600052602060002001600091509150505481565b600054600160a060020a0316331461107857600080fd5b600090815260076020908152604080832093835292905220805460ff19169055565b600054600160a060020a031633146110b157600080fd5b604080517ff6db8c8100000000000000000000000000000000000000000000000000000000815260036004820152600160a060020a0383166024820152905173__UtilsLib______________________________9163f6db8c81916044808301926000929190829003018186803b15801561112b57600080fd5b505af415801561113f573d6000803e3d6000fd5b5050505050565b600082815260096020908152604080832081517f47d01e590000000000000000000000000000000000000000000000000000000081526004810191909152600160a060020a0385166024820152905173__UtilsLib______________________________926347d01e599260448082019391829003018186803b1580156111cc57600080fd5b505af41580156111e0573d6000803e3d6000fd5b505050506040513d60208110156111f657600080fd5b50519392505050565b60606002805480602002602001604051908101604052809291908181526020018280548015610acb57602002820191906000526020600020908154600160a060020a03168152600190910190602001808311610aad575050505050905090565b600054600160a060020a0316331461127657600080fd5b6001805480820182556000919091527fb10e2d527612073b26eecdfd717e6a320cf44b4afac2b0732d9fcbe2b7fa0cf601805473ffffffffffffffffffffffffffffffffffffffff1916600160a060020a0392909216919091179055565b600080805b600160a060020a03841660009081526008602052604090205482101561135b57600160a060020a038416600090815260086020526040902080548390811061131d57fe5b600091825260208083209091015480835260078252604080842089855290925291205490915060ff161561135057600192505b8160010191506112d9565b505092915050565b600054600160a060020a0316331461137a57600080fd5b60008281526009602090815260409182902082517f47d01e590000000000000000000000000000000000000000000000000000000081526004810191909152600160a060020a0384166024820152915173__UtilsLib______________________________926347d01e59926044808301939192829003018186803b15801561140257600080fd5b505af4158015611416573d6000803e3d6000fd5b505050506040513d602081101561142c57600080fd5b5051151561143957600080fd5b600160a060020a03811660009081526008602090815260409182902082517fc3722527000000000000000000000000000000000000000000000000000000008152600481019190915260248101859052915173__UtilsLib______________________________9263c3722527926044808301939192829003018186803b1580156114c357600080fd5b505af41580156114d7573d6000803e3d6000fd5b505050506040513d60208110156114ed57600080fd5b505115156114fa57600080fd5b600160a060020a03811660009081526008602052604080822081517fdbd862e0000000000000000000000000000000000000000000000000000000008152600481019190915260248101859052905173__UtilsLib______________________________9263dbd862e09260448082019391829003018186803b15801561158057600080fd5b505af4158015611594573d6000803e3d6000fd5b50505060008381526009602052604080822081517f3a9cec900000000000000000000000000000000000000000000000000000000081526004810191909152600160a060020a0385166024820152905173__UtilsLib______________________________9350633a9cec9092604480840193919291829003018186803b15801561161e57600080fd5b505af4158015611632573d6000803e3d6000fd5b505050505050565b600160a060020a031660009081526008602052604090205490565b600160a060020a03166000908152600560209081526040808320938352929052205460ff1690565b600760209081526000928352604080842090915290825290205460ff1681565b600054600160a060020a031633146116b457600080fd5b604080517f4d25d0da00000000000000000000000000000000000000000000000000000000815260026004820152600160a060020a0383166024820152905173__UtilsLib______________________________91634d25d0da916044808301926000929190829003018186803b15801561112b57600080fd5b600054600160a060020a0316331461174557600080fd5b61174e816117d8565b50565b600160a060020a03166000908152600460209081526040808320938352929052205460ff1690565b600380546001810182556000919091527fc2575a0e9e593c00f959f8c92f12db2869c3395a3b0502d05e2516446f71f85b01805473ffffffffffffffffffffffffffffffffffffffff1916600160a060020a0392909216919091179055565b600160a060020a03811615156117ed57600080fd5b60008054604051600160a060020a03808516939216917f8be0079c531659141344cd1fd0a4f28419497f9722a3daafe3b4186f6b6457e091a36000805473ffffffffffffffffffffffffffffffffffffffff1916600160a060020a03929092169190911790555600a165627a7a723058200cd8501fce412bb03c9bf7c49cfbd30ea79230e58ecd064214713e662cace4ff0029608060405234801561001057600080fd5b506040516020806124fc833981016040525160008054600160a060020a0319908116331790915560018054600160a060020a039093169290911691909117905561249d8061005f6000396000f3006080604052600436106101a85763ffffffff60e060020a60003504166301ef046881146101ad57806302750201146101d05780630b0e7f15146102795780630c955c28146102e45780631081f0d11461031c5780631176415f1461033157806315b3671d1461035557806318fa12aa146103b95780631955c0a4146103ce57806322e320f7146103e35780632459bac814610407578063415e86ce14610431578063423c3a481461044657806358974298146104705780635facc3dc14610485578063601fc8321461049a57806362ea7796146104ce578063644834be146104e3578063679f0681146104f85780636f3249191461050d578063715018a61461053157806374bb3d5414610546578063755ae05b146105a45780638b979f51146105b95780638da5cb5b146105d15780638faa37f1146105e657806396e608ba146105fb57806398e527d31461061c578063a08ce40914610631578063a450197c14610655578063a9759dfc146106b9578063ed28c035146106ce578063ef9c822614610729578063f2fde38b14610782578063fb02cfa8146107a3578063fb8ec97214610807575b600080fd5b3480156101b957600080fd5b506101ce600160a060020a0360043516610828565b005b3480156101dc57600080fd5b506040805160206004803580820135601f81018490048402850184019095528484526102299436949293602493928401919081908401838280828437509497506109b09650505050505050565b60408051602080825283518183015283519192839290830191858101910280838360005b8381101561026557818101518382015260200161024d565b505050509050019250505060405180910390f35b34801561028557600080fd5b506040805160206004803580820135601f81018490048402850184019095528484526102d2943694929360249392840191908190840183828082843750949750610a9a9650505050505050565b60408051918252519081900360200190f35b3480156102f057600080fd5b50610308600435600160a060020a0360243516610afe565b604080519115158252519081900360200190f35b34801561032857600080fd5b506102d2610ba3565b34801561033d57600080fd5b506101ce600435600160a060020a0360243516610bc7565b34801561036157600080fd5b506040805160206004803580820135601f810184900484028501840190955284845261030894369492936024939284019190819084018382808284375094975050509235600160a060020a03169350610d5e92505050565b3480156103c557600080fd5b506102d2610dc7565b3480156103da57600080fd5b506102d2610deb565b3480156103ef57600080fd5b50610308600160a060020a0360043516602435610e0f565b34801561041357600080fd5b506101ce600160a060020a0360043581169060243516604435610e96565b34801561043d57600080fd5b506102d2611054565b34801561045257600080fd5b506101ce600160a060020a0360043581169060243516604435611078565b34801561047c57600080fd5b506102d2611218565b34801561049157600080fd5b506102d261123c565b3480156104a657600080fd5b506104b260043561124e565b60408051600160a060020a039092168252519081900360200190f35b3480156104da57600080fd5b506102d26112e6565b3480156104ef57600080fd5b506102d2611376565b34801561050457600080fd5b506102d261139a565b34801561051957600080fd5b506101ce600435600160a060020a03602435166113be565b34801561053d57600080fd5b506101ce611538565b34801561055257600080fd5b5060408051602060046024803582810135601f81018590048502860185019096528585526101ce9583359536956044949193909101919081908401838280828437509497506115a49650505050505050565b3480156105b057600080fd5b506102d261176f565b3480156105c557600080fd5b506104b2600435611793565b3480156105dd57600080fd5b506104b26117f9565b3480156105f257600080fd5b506102d2611808565b34801561060757600080fd5b506101ce600160a060020a036004351661182c565b34801561062857600080fd5b506102d2611d00565b34801561063d57600080fd5b506101ce600435600160a060020a0360243516611d5f565b34801561066157600080fd5b506040805160206004803580820135601f81018490048402850184019095528484526101ce94369492936024939284019190819084018382808284375094975050509235600160a060020a03169350611ed992505050565b3480156106c557600080fd5b506102d26120ba565b3480156106da57600080fd5b506040805160206004803580820135601f81018490048402850184019095528484526104b294369492936024939284019190819084018382808284375094975050933594506120de9350505050565b34801561073557600080fd5b506040805160206004803580820135601f81018490048402850184019095528484526102d294369492936024939284019190819084018382808284375094975061213f9650505050505050565b34801561078e57600080fd5b506101ce600160a060020a0360043516612199565b3480156107af57600080fd5b506040805160206004803580820135601f81018490048402850184019095528484526101ce94369492936024939284019190819084018382808284375094975050509235600160a060020a031693506121bc92505050565b34801561081357600080fd5b506101ce600160a060020a0360043516612352565b6001546040805160e060020a63b456f94b028152600160a060020a0390921660048301523360248301527f55c7fa9eebcea37770fd33ec28acf7eacb6ea53052a9e9bc0a98169768578c5f604483018190529051909173__DaoBaseLib____________________________9163b456f94b91606480820192602092909190829003018186803b1580156108ba57600080fd5b505af41580156108ce573d6000803e3d6000fd5b505050506040513d60208110156108e457600080fd5b505115156108f157600080fd5b60408051600160a060020a038416815290517f94d7098d83d05e86914e00c8560894ad195f66f921f7967600f63fc059f24fa29181900360200190a1600154604080517f83920871000000000000000000000000000000000000000000000000000000008152600160a060020a03858116600483015291519190921691638392087191602480830192600092919082900301818387803b15801561099457600080fd5b505af11580156109a8573d6000803e3d6000fd5b505050505050565b600154606090600160a060020a0316636c052cd86109cd84610a9a565b6040805160e060020a63ffffffff8516028152600481019290925251602480830192600092919082900301818387803b158015610a0957600080fd5b505af1158015610a1d573d6000803e3d6000fd5b505050506040513d6000823e601f3d908101601f191682016040526020811015610a4657600080fd5b810190808051640100000000811115610a5e57600080fd5b82016020810184811115610a7157600080fd5b8151856020820283011164010000000082111715610a8e57600080fd5b50909695505050505050565b6000816040518082805190602001908083835b60208310610acc5780518252601f199092019160209182019101610aad565b5181516020939093036101000a6000190180199091169216919091179052604051920182900390912095945050505050565b600154604080517fda9c548800000000000000000000000000000000000000000000000000000000815260048101859052600160a060020a0384811660248301529151600093929092169163da9c54889160448082019260209290919082900301818787803b158015610b7057600080fd5b505af1158015610b84573d6000803e3d6000fd5b505050506040513d6020811015610b9a57600080fd5b50519392505050565b7f087dfe531c937a5cbe06c1240d8f791b240719b90fd2a4e453a201ce0f00c17681565b60005460008051602061245283398151915290600160a060020a0316331480610c8557506001546040805160e060020a63b456f94b028152600160a060020a039092166004830152336024830152604482018390525173__DaoBaseLib____________________________9163b456f94b916064808301926020929190829003018186803b158015610c5857600080fd5b505af4158015610c6c573d6000803e3d6000fd5b505050506040513d6020811015610c8257600080fd5b50515b1515610c9057600080fd5b60408051848152600160a060020a038416602082015281517fc178ac30ffd2511ba56b6c977bede07734548083934ffb38a1314afad1e3164b929181900390910190a1600154604080517f1176415f00000000000000000000000000000000000000000000000000000000815260048101869052600160a060020a03858116602483015291519190921691631176415f91604480830192600092919082900301818387803b158015610d4157600080fd5b505af1158015610d55573d6000803e3d6000fd5b50505050505050565b600154600090600160a060020a031663cb3022ff610d7b85610a9a565b6040805160e060020a63ffffffff85160281526004810192909252600160a060020a03861660248301525160448083019260209291908290030181600087803b158015610b7057600080fd5b7f3794eb44dffe1fc69d141df1b355cf30d543d8006634dd7a125d0e5f500b7fb181565b7f55c7fa9eebcea37770fd33ec28acf7eacb6ea53052a9e9bc0a98169768578c5f81565b6001546040805160e060020a63b456f94b028152600160a060020a0392831660048201529184166024830152604482018390525160009173__DaoBaseLib____________________________9163b456f94b91606480820192602092909190829003018186803b158015610e8257600080fd5b505af4158015610b84573d6000803e3d6000fd5b6001546040805160e060020a63b456f94b028152600160a060020a0390921660048301523360248301527fe003bf3bc29ae37598e0a6b52d6c5d94b0a53e4e52ae40c01a29cdd0e7816b71604483018190529051909173__DaoBaseLib____________________________9163b456f94b91606480820192602092909190829003018186803b158015610f2857600080fd5b505af4158015610f3c573d6000803e3d6000fd5b505050506040513d6020811015610f5257600080fd5b50511515610f5f57600080fd5b60408051600160a060020a0380871682528516602082015280820184905290517f136e1723f30fa9aa37c030a0ae5e8e072c16dffc5b969e5da2a19fc6fd30c3259181900360600190a1600154604080517f432600eb000000000000000000000000000000000000000000000000000000008152600160a060020a03928316600482015286831660248201529185166044830152606482018490525173__DaoBaseLib____________________________9163432600eb916084808301926000929190829003018186803b15801561103657600080fd5b505af415801561104a573d6000803e3d6000fd5b5050505050505050565b7f3a5165e670fb3632ad283cd3622bfca48f4c8202b504a023dafe70df3056707581565b6001546040805160e060020a63b456f94b028152600160a060020a0390921660048301523360248301527f324cd2c359ecbc6ad92db8d027aab5d643f27c3055619a49702576797bb41fe5604483018190529051909173__DaoBaseLib____________________________9163b456f94b91606480820192602092909190829003018186803b15801561110a57600080fd5b505af415801561111e573d6000803e3d6000fd5b505050506040513d602081101561113457600080fd5b5051151561114157600080fd5b60408051600160a060020a0380871682528516602082015280820184905290517f4f1b2ec57ac850d2d88d7bfd2216444bc8afc4644dd873311a4b01ef10389a849181900360600190a1600154604080517f9419fd34000000000000000000000000000000000000000000000000000000008152600160a060020a03928316600482015286831660248201529185166044830152606482018490525173__DaoBaseLib____________________________91639419fd34916084808301926000929190829003018186803b15801561103657600080fd5b7fbeaac974e61895532ee7d8efc953d378116d446667765b57f62c791c37b03c8d81565b60008051602061245283398151915281565b600154604080517f601fc832000000000000000000000000000000000000000000000000000000008152600481018490529051600092600160a060020a03169163601fc83291602480830192602092919082900301818787803b1580156112b457600080fd5b505af11580156112c8573d6000803e3d6000fd5b505050506040513d60208110156112de57600080fd5b505192915050565b600154604080517f62ea77960000000000000000000000000000000000000000000000000000000081529051600092600160a060020a0316916362ea779691600480830192602092919082900301818787803b15801561134557600080fd5b505af1158015611359573d6000803e3d6000fd5b505050506040513d602081101561136f57600080fd5b5051905090565b7f324cd2c359ecbc6ad92db8d027aab5d643f27c3055619a49702576797bb41fe581565b7f2e0b85549a7529dfca5fb20621fe76f393d05d7fc99be4dd3d996c8e1925ba0b81565b60005460008051602061245283398151915290600160a060020a031633148061147c57506001546040805160e060020a63b456f94b028152600160a060020a039092166004830152336024830152604482018390525173__DaoBaseLib____________________________9163b456f94b916064808301926020929190829003018186803b15801561144f57600080fd5b505af4158015611463573d6000803e3d6000fd5b505050506040513d602081101561147957600080fd5b50515b151561148757600080fd5b60408051848152600160a060020a038416602082015281517fb0984b31dce3098c0d0cc88c2c78728eb76b59050bad3ec637c353f9b0e59ff8929181900390910190a1600154604080517f6f32491900000000000000000000000000000000000000000000000000000000815260048101869052600160a060020a03858116602483015291519190921691636f32491991604480830192600092919082900301818387803b158015610d4157600080fd5b600054600160a060020a0316331461154f57600080fd5b60008054604051600160a060020a03909116917ff8df31144d9c2f0f6b59d69b8b98abd5459d07f2742c4df920b25aae33c6482091a26000805473ffffffffffffffffffffffffffffffffffffffff19169055565b60005460008051602061245283398151915290600160a060020a031633148061166257506001546040805160e060020a63b456f94b028152600160a060020a039092166004830152336024830152604482018390525173__DaoBaseLib____________________________9163b456f94b916064808301926020929190829003018186803b15801561163557600080fd5b505af4158015611649573d6000803e3d6000fd5b505050506040513d602081101561165f57600080fd5b50515b151561166d57600080fd5b60408051848152602080820183815285519383019390935284517f8be0d4c24897b1b44e6e6dde219e6ec06f6276c66db02bededc064f3fc9919c193879387939092606084019185019080838360005b838110156116d55781810151838201526020016116bd565b50505050905090810190601f1680156117025780820380516001836020036101000a031916815260200191505b50935050505060405180910390a1600154600160a060020a0316632cdd9cd68461172b85610a9a565b6040805160e060020a63ffffffff86160281526004810193909352602483019190915251604480830192600092919082900301818387803b158015610d4157600080fd5b7ffc685f51f68cb86aa29db19c2a8f4e85183375ba55b5e56fb2e89adc5f5e428581565b600154604080517f8b979f51000000000000000000000000000000000000000000000000000000008152600481018490529051600092600160a060020a031691638b979f5191602480830192602092919082900301818787803b1580156112b457600080fd5b600054600160a060020a031681565b7fe003bf3bc29ae37598e0a6b52d6c5d94b0a53e4e52ae40c01a29cdd0e7816b7181565b6001546040805160e060020a63b456f94b028152600160a060020a0390921660048301523360248301527f3794eb44dffe1fc69d141df1b355cf30d543d8006634dd7a125d0e5f500b7fb160448301819052905160009273__DaoBaseLib____________________________9163b456f94b91606480820192602092909190829003018186803b1580156118bf57600080fd5b505af41580156118d3573d6000803e3d6000fd5b505050506040513d60208110156118e957600080fd5b505115156118f657600080fd5b60408051600160a060020a038516815290517f2d1d7afeaa9cc7364d5437dec30ad5e42d63f942e79facfc7e9b5540407e7df29181900360200190a1600091505b600160009054906101000a9004600160a060020a0316600160a060020a03166362ea77966040518163ffffffff1660e060020a028152600401602060405180830381600087803b15801561198a57600080fd5b505af115801561199e573d6000803e3d6000fd5b505050506040513d60208110156119b457600080fd5b5051821015611ad757600154604080517f601fc832000000000000000000000000000000000000000000000000000000008152600481018590529051600160a060020a039092169163601fc832916024808201926020929091908290030181600087803b158015611a2457600080fd5b505af1158015611a38573d6000803e3d6000fd5b505050506040513d6020811015611a4e57600080fd5b5051604080517ffa34c84e000000000000000000000000000000000000000000000000000000008152600160a060020a0386811660048301529151919092169163fa34c84e91602480830192600092919082900301818387803b158015611ab457600080fd5b505af1158015611ac8573d6000803e3d6000fd5b50505050816001019150611937565b600154604080517ff2fde38b000000000000000000000000000000000000000000000000000000008152600160a060020a0386811660048301529151919092169163f2fde38b91602480830192600092919082900301818387803b158015611b3e57600080fd5b505af1158015611b52573d6000803e3d6000fd5b50505050600091505b600160009054906101000a9004600160a060020a0316600160a060020a0316633962f82d6040518163ffffffff1660e060020a028152600401602060405180830381600087803b158015611bae57600080fd5b505af1158015611bc2573d6000803e3d6000fd5b505050506040513d6020811015611bd857600080fd5b5051821015611cfb57600154604080517f97988dce000000000000000000000000000000000000000000000000000000008152600481018590529051600160a060020a03909216916397988dce916024808201926020929091908290030181600087803b158015611c4857600080fd5b505af1158015611c5c573d6000803e3d6000fd5b505050506040513d6020811015611c7257600080fd5b5051604080517ff2fde38b000000000000000000000000000000000000000000000000000000008152600160a060020a0386811660048301529151919092169163f2fde38b91602480830192600092919082900301818387803b158015611cd857600080fd5b505af1158015611cec573d6000803e3d6000fd5b50505050816001019150611b5b565b505050565b600154604080517f98e527d30000000000000000000000000000000000000000000000000000000081529051600092600160a060020a0316916398e527d391600480830192602092919082900301818787803b15801561134557600080fd5b60005460008051602061245283398151915290600160a060020a0316331480611e1d57506001546040805160e060020a63b456f94b028152600160a060020a039092166004830152336024830152604482018390525173__DaoBaseLib____________________________9163b456f94b916064808301926020929190829003018186803b158015611df057600080fd5b505af4158015611e04573d6000803e3d6000fd5b505050506040513d6020811015611e1a57600080fd5b50515b1515611e2857600080fd5b60408051848152600160a060020a038416602082015281517fbb0fd323caa33e6a1b61581c008bed9af26a4e63894653ec9ab44557dc464857929181900390910190a1600154604080517fa08ce40900000000000000000000000000000000000000000000000000000000815260048101869052600160a060020a0385811660248301529151919092169163a08ce40991604480830192600092919082900301818387803b158015610d4157600080fd5b60005460008051602061245283398151915290600160a060020a0316331480611f9757506001546040805160e060020a63b456f94b028152600160a060020a039092166004830152336024830152604482018390525173__DaoBaseLib____________________________9163b456f94b916064808301926020929190829003018186803b158015611f6a57600080fd5b505af4158015611f7e573d6000803e3d6000fd5b505050506040513d6020811015611f9457600080fd5b50515b1515611fa257600080fd5b7f0cd9995e4ce9e99fe086709a5ed10105b5a33379a56363b587be270f4aef053c8383604051808060200183600160a060020a0316600160a060020a03168152602001828103825284818151815260200191508051906020019080838360005b8381101561201a578181015183820152602001612002565b50505050905090810190601f1680156120475780820380516001836020036101000a031916815260200191505b50935050505060405180910390a1600154600160a060020a031663e1b73c8461206f85610a9a565b6040805160e060020a63ffffffff85160281526004810192909252600160a060020a038616602483015251604480830192600092919082900301818387803b158015610d4157600080fd5b7fa7889b6adda0a2270859e5c6327f82b987d24f5729de85a5746ce28eed9e0d0781565b600154600090600160a060020a0316639181f0fc6120fb85610a9a565b6040805160e060020a63ffffffff85160281526004810192909252602482018690525160448083019260209291908290030181600087803b158015610b7057600080fd5b600154600090600160a060020a0316632f24e89961215c84610a9a565b6040805160e060020a63ffffffff851602815260048101929092525160248083019260209291908290030181600087803b1580156112b457600080fd5b600054600160a060020a031633146121b057600080fd5b6121b9816123d4565b50565b60005460008051602061245283398151915290600160a060020a031633148061227a57506001546040805160e060020a63b456f94b028152600160a060020a039092166004830152336024830152604482018390525173__DaoBaseLib____________________________9163b456f94b916064808301926020929190829003018186803b15801561224d57600080fd5b505af4158015612261573d6000803e3d6000fd5b505050506040513d602081101561227757600080fd5b50515b151561228557600080fd5b7fb72d2dea8f3997e2295673f5ad32ffd0542bb161b12a7eddb5ab3152c5813a348383604051808060200183600160a060020a0316600160a060020a03168152602001828103825284818151815260200191508051906020019080838360005b838110156122fd5781810151838201526020016122e5565b50505050905090810190601f16801561232a5780820380516001836020036101000a031916815260200191505b50935050505060405180910390a1600154600160a060020a031663a99fa3e261206f85610a9a565b600154604080517ffb8ec972000000000000000000000000000000000000000000000000000000008152600160a060020a0384811660048301529151919092169163fb8ec97291602480830192600092919082900301818387803b1580156123b957600080fd5b505af11580156123cd573d6000803e3d6000fd5b5050505050565b600160a060020a03811615156123e957600080fd5b60008054604051600160a060020a03808516939216917f8be0079c531659141344cd1fd0a4f28419497f9722a3daafe3b4186f6b6457e091a36000805473ffffffffffffffffffffffffffffffffffffffff1916600160a060020a03929092169190911790555600060990aad7751fab616bf14cf6b68ac4c5cdc555f8f06bc9f15ba1b156e81b0ba165627a7a723058208082a7a3ccdb8acec1faeb10a0ae87c929a75672eab254fc9cc8b63927e228af0029608060405234801561001057600080fd5b506040516020806106c3833981016040818152915160008054600160a060020a031916600160a060020a03808416919091178083557ffb8ec97200000000000000000000000000000000000000000000000000000000855230600486015294519294859491169263fb8ec9729260248084019391929182900301818387803b15801561009b57600080fd5b505af11580156100af573d6000803e3d6000fd5b5050505050506105ff806100c46000396000f30060806040526004361061008d5763ffffffff7c010000000000000000000000000000000000000000000000000000000060003504166307d6c05a8114610092578063544394f2146100c3578063620d4fc9146100ea57806370241b6b1461010d578063b7e1694e14610128578063d4f8edf71461015c578063fa34c84e14610171578063fcce76b714610192575b600080fd5b34801561009e57600080fd5b506100aa6004356101aa565b6040805192835290151560208301528051918290030190f35b3480156100cf57600080fd5b506100d861020e565b60408051918252519081900360200190f35b3480156100f657600080fd5b5061010b600160a060020a0360043516610214565b005b34801561011957600080fd5b5061010b600435602435610377565b34801561013457600080fd5b50610140600435610495565b60408051600160a060020a039092168252519081900360200190f35b34801561016857600080fd5b506100d86104c1565b34801561017d57600080fd5b5061010b600160a060020a03600435166104f6565b34801561019e57600080fd5b5061010b60043561053c565b600254600090819083106101bd57600080fd5b60028054849081106101cb57fe5b90600052602060002090600302016001015491506002838154811015156101ee57fe5b6000918252602090912060026003909202010154919360ff909216925050565b60015490565b604080517f4245434f4d455f554e444552575249544552000000000000000000000000000081528151908190036012018120600080547f22e320f70000000000000000000000000000000000000000000000000000000084523360048501526024840183905293519193600160a060020a0316926322e320f79260448083019360209383900390910190829087803b1580156102af57600080fd5b505af11580156102c3573d6000803e3d6000fd5b505050506040513d60208110156102d957600080fd5b505115156102e657600080fd5b6001805480820182556000919091527fb10e2d527612073b26eecdfd717e6a320cf44b4afac2b0732d9fcbe2b7fa0cf6018054600160a060020a03841673ffffffffffffffffffffffffffffffffffffffff19909116811790915560408051918252517f9c04bb45a27380f83656ea58eaf9ba4e95299855e08e92e0f8543efdf2284a869181900360200190a15050565b600082815560018281556002805460ff1990811680840183558285526003027f405787fa12a823e0f2b7631cc41b3ba8828b3321ca811111fa75cd3aa3bb5ace810187905583547f405787fa12a823e0f2b7631cc41b3ba8828b3321ca811111fa75cd3aa3bb5acf82015591547f405787fa12a823e0f2b7631cc41b3ba8828b3321ca811111fa75cd3aa3bb5ad0909201805460ff9390931615159290911691909117905580547fbe8ab91f9193831495be3494311baae20918cf4b0ae0d33ada7066680affa4aa9185918290811061044c57fe5b6000918252602091829020015460025460408051948552600160a060020a03909216928401929092528281018690526000199091016060830152519081900360800190a1505050565b60006001828154811015156104a657fe5b600091825260209091200154600160a060020a031692915050565b604080517f4245434f4d455f554e44455257524954455200000000000000000000000000008152905190819003601201902081565b600054600160a060020a0316331461050d57600080fd5b6000805473ffffffffffffffffffffffffffffffffffffffff1916600160a060020a0392909216919091179055565b600254600090821061054d57600080fd5b600160028381548110151561055e57fe5b60009182526020909120600390910201548154811061057957fe5b600091825260209091200154600160a060020a0316905033811461059c57600080fd5b60016002838154811015156105ad57fe5b60009182526020909120600390910201600201805460ff191691151591909117905550505600a165627a7a7230582044156d5b42fbabcf1326c803273feaebf6c4544ac411cba54e359cfd9ab5cb4b0029a165627a7a72305820b1e2670c2096580f71267059950506892597eec24eaf98f49528a31d55d97ef30029",
  "source": "pragma solidity ^0.4.24;\n\nimport \"./UnderwriterSubsystem.sol\";\n\nimport \"@thetta/core/contracts/DaoStorage.sol\";\nimport \"@thetta/core/contracts/DaoBase.sol\";\nimport \"@thetta/core/contracts/tokens/StdDaoToken.sol\";\n\ncontract UnderwriterSubsystemFactory {\n\tUnderwriterSubsystem public us;\n\t\n\tfunction deployDao() public {\n\t\t// 1 - deploy basic Dao contracts\n\t\tStdDaoToken moderatorsToken = new StdDaoToken(\"UndModTokens\",\"UMT\", 18, true, true, 0);\n\t\taddress[] tokens;\n\t\ttokens.push(moderatorsToken);\n\n\t\tDaoStorage daoStorage = new DaoStorage(tokens);\n\t\tDaoBase daoBase = new DaoBase(daoStorage);\n\t\tmoderatorsToken.transferOwnership(daoBase);\n\n\t\t// 2 - Create our org contract (a client of DaoBase contract)\n\t\t// just a DaoClient\n\t\tus = new UnderwriterSubsystem(daoBase);\n\n\t\t// 3 - Set all permissions\n\t\t// allow msg.sender to issue 'UndModTokens'\n\t\tdaoBase.allowActionByAddress(daoBase.ISSUE_TOKENS(), msg.sender);\n\t\t// UnderwriterSubsystem will automatically add proposal if voting is started\n\t\tdaoBase.allowActionByAddress(daoBase.ADD_NEW_PROPOSAL(), us);\n\t\t// this means that moderators should vote to accept underwriter \n\t\tdaoBase.allowActionByVoting(us.BECOME_UNDERWRITER(), moderatorsToken);\n\t\t\n\t\t// 4 - no one should own the DAO!!!\n\t\tdaoBase.renounceOwnership();\n\n\t\t// issue tokens\n\t\tdaoBase.issueTokens(moderatorsToken, msg.sender, 100);\n\t}\n\n}\n",
  "sourcePath": "/Users/tonykent/ddsystem/contracts/UnderwriterSubsystemFactory.sol",
  "compiler": {
    "name": "solc",
    "version": "0.4.24+commit.e67f0147.Emscripten.clang"
  },
  "schemaVersion": "2.0.1",
  "updatedAt": "2018-09-09T10:03:55.718Z"
}