{
  "contractName": "UtilsLib",
  "abi": [
    {
      "constant": true,
      "inputs": [
        {
          "name": "x",
          "type": "uint256"
        }
      ],
      "name": "sqrt",
      "outputs": [
        {
          "name": "y",
          "type": "uint256"
        }
      ],
      "payable": false,
      "stateMutability": "pure",
      "type": "function"
    },
    {
      "constant": true,
      "inputs": [
        {
          "name": "source",
          "type": "string"
        }
      ],
      "name": "stringToBytes32",
      "outputs": [
        {
          "name": "result",
          "type": "bytes32"
        }
      ],
      "payable": false,
      "stateMutability": "view",
      "type": "function"
    },
    {
      "constant": true,
      "inputs": [
        {
          "name": "_addressArray",
          "type": "address[] storage"
        },
        {
          "name": "_targetAddress",
          "type": "address"
        }
      ],
      "name": "isAddressInArray",
      "outputs": [
        {
          "name": "",
          "type": "bool"
        }
      ],
      "payable": false,
      "stateMutability": "view",
      "type": "function"
    },
    {
      "constant": true,
      "inputs": [
        {
          "name": "_bytes32Array",
          "type": "bytes32[] storage"
        },
        {
          "name": "_targetBytes32",
          "type": "bytes32"
        }
      ],
      "name": "isBytes32InArray",
      "outputs": [
        {
          "name": "",
          "type": "bool"
        }
      ],
      "payable": false,
      "stateMutability": "view",
      "type": "function"
    },
    {
      "constant": false,
      "inputs": [
        {
          "name": "_bytes32Array",
          "type": "bytes32[] storage"
        },
        {
          "name": "_targetBytes32",
          "type": "bytes32"
        }
      ],
      "name": "removeBytes32FromArray",
      "outputs": [],
      "payable": false,
      "stateMutability": "nonpayable",
      "type": "function"
    },
    {
      "constant": false,
      "inputs": [
        {
          "name": "_addressArray",
          "type": "address[] storage"
        },
        {
          "name": "_targetAddress",
          "type": "address"
        }
      ],
      "name": "removeAddressFromArray",
      "outputs": [],
      "payable": false,
      "stateMutability": "nonpayable",
      "type": "function"
    },
    {
      "constant": false,
      "inputs": [
        {
          "name": "_proposalsArray",
          "type": "IProposal[] storage"
        },
        {
          "name": "_targetProposal",
          "type": "IProposal"
        }
      ],
      "name": "removeProposalFromArray",
      "outputs": [],
      "payable": false,
      "stateMutability": "nonpayable",
      "type": "function"
    },
    {
      "constant": false,
      "inputs": [
        {
          "name": "_daoObserversArray",
          "type": "IDaoObserver[] storage"
        },
        {
          "name": "_targetDaoObserver",
          "type": "IDaoObserver"
        }
      ],
      "name": "removeDaoObserverFromArray",
      "outputs": [],
      "payable": false,
      "stateMutability": "nonpayable",
      "type": "function"
    }
  ],
  "bytecode": "0x6105b3610030600b82828239805160001a6073146000811461002057610022565bfe5b5030600052607381538281f30073000000000000000000000000000000000000000030146080604052600436106100a45763ffffffff7c01000000000000000000000000000000000000000000000000000000006000350416633a9cec9081146100a957806347d01e59146100cf5780634d25d0da146100fa578063677342ce1461011e578063c37225271461013b578063cfb5192814610149578063dbd862e014610195578063f6db8c81146101b0575b600080fd5b8180156100b557600080fd5b506100cd600435600160a060020a03602435166101d4565b005b6100e6600435600160a060020a03602435166102f3565b604080519115158252519081900360200190f35b81801561010657600080fd5b506100cd600435600160a060020a036024351661034b565b61012960043561039a565b60408051918252519081900360200190f35b6100e66004356024356103d5565b6040805160206004803580820135601f81018490048402850184019095528484526101299436949293602493928401919081908401838280828437509497506104139650505050505050565b8180156101a157600080fd5b506100cd600435602435610432565b8180156101bc57600080fd5b506100cd600435600160a060020a03602435166104ee565b8154819060005b84548110156102235782600160a060020a031685828154811015156101fc57fe5b600091825260209091200154600160a060020a0316141561021b578091505b6001016101db565b8454821061023057600080fd5b84546000190182146102a35784548590600019810190811061024e57fe5b6000918252602090912001548554600160a060020a039091169086908490811061027457fe5b9060005260206000200160006101000a815481600160a060020a030219169083600160a060020a031602179055505b8454859060001981019081106102b557fe5b6000918252602090912001805473ffffffffffffffffffffffffffffffffffffffff1916905584546102eb86600019830161053d565b505050505050565b60008181805b85548110156103425782600160a060020a0316868281548110151561031a57fe5b600091825260209091200154600160a060020a0316141561033a57600191505b6001016102f9565b50949350505050565b8154819060005b84548110156102235782600160a060020a0316858281548110151561037357fe5b600091825260209091200154600160a060020a03161415610392578091505b600101610352565b80600260018201045b818110156103cf5780915060028182858115156103bc57fe5b04018115156103c757fe5b0490506103a3565b50919050565b60008181805b855481101561034257855483908790839081106103f457fe5b600091825260209091200154141561040b57600191505b6001016103db565b80516000908290151561042957600091506103cf565b50506020015190565b8154819060005b8454811015610470578454839086908390811061045257fe5b6000918252602090912001541415610468578091505b600101610439565b8454821061047d57600080fd5b84546000190182146104c15784548590600019810190811061049b57fe5b906000526020600020015485838154811015156104b457fe5b6000918252602090912001555b8454859060001981019081106104d357fe5b600091825260208220015584546102eb86600019830161053d565b8154819060005b84548110156102235782600160a060020a0316858281548110151561051657fe5b600091825260209091200154600160a060020a03161415610535578091505b6001016104f5565b81548183558181111561056157600083815260209020610561918101908301610566565b505050565b61058491905b80821115610580576000815560010161056c565b5090565b905600a165627a7a7230582031340ba84325e0da27efb0413fa54524b2b1b3ba6d873f49041500ba5468882f0029",
  "source": "pragma solidity ^0.4.22;\nimport \"../IDaoObserver.sol\";\nimport \"../governance/IProposal.sol\";\n\n\nlibrary UtilsLib {\n\tfunction bytes32ToString(bytes32 x) internal pure returns (string) {\n\t\tbytes memory bytesString = new bytes(32);\n\t\tuint charCount = 0;\n\t\tfor (uint j = 0; j < 32; j++) {\n\t\t\tbyte char = byte(bytes32(uint(x) * 2 ** (8 * j)));\n\t\t\tif (char != 0) {\n\t\t\t\tbytesString[charCount] = char;\n\t\t\t\tcharCount++;\n\t\t\t}\n\t\t}\n\t\tbytes memory bytesStringTrimmed = new bytes(charCount);\n\t\tfor (j = 0; j < charCount; j++) {\n\t\t\tbytesStringTrimmed[j] = bytesString[j];\n\t\t}\n\t\treturn string(bytesStringTrimmed);\n\t}\n\t\n\tfunction sqrt(uint x) public pure returns (uint y) {\n\t\tuint z = (x + 1) / 2;\n\t\ty = x;\n\t\twhile (z < y) {\n\t\t\ty = z;\n\t\t\tz = (x / z + z) / 2;\n\t\t}\n\t}\t\n\n\tfunction stringToBytes32(string memory source) public view returns (bytes32 result) {\n\t\tbytes memory tempEmptyStringTest = bytes(source);\n\t\tif (tempEmptyStringTest.length == 0) {\n\t\t\treturn 0x0;\n\t\t}\n\n\t\tassembly {\n\t\t\tresult := mload(add(source, 32))\n\t\t}\n\t}\n\n\tfunction isAddressInArray(address[] storage _addressArray, address _targetAddress) public view returns(bool) {\n\t\t// address[] memory parts = _addressArray;\n\t\taddress item = _targetAddress;\n\t\tbool isInArray = false;\n\t\tfor(uint j=0; j<_addressArray.length; ++j) {\n\t\t\tif(_addressArray[j]==item) {\n\t\t\t\tisInArray = true;\n\t\t\t}\n\t\t}\n\t\treturn isInArray;\n\t}\n\n\tfunction isBytes32InArray(bytes32[] storage _bytes32Array, bytes32 _targetBytes32) public view returns(bool) {\n\t\t// bytes32[] memory _bytes32Array = _bytes32Array;\n\t\tbytes32 item = _targetBytes32;\n\t\tbool isInArray = false;\n\t\tfor(uint j=0; j<_bytes32Array.length; ++j) {\n\t\t\tif(_bytes32Array[j]==item) {\n\t\t\t\tisInArray = true;\n\t\t\t}\n\t\t}\n\t\treturn isInArray;\n\t}\n\n\tfunction removeBytes32FromArray(bytes32[] storage _bytes32Array, bytes32 _targetBytes32) public {\n\t\t// bytes32[] memory _bytes32Array = _bytes32Array;\n\t\tbytes32 item = _targetBytes32;\n\t\tuint index = _bytes32Array.length;\n\t\tfor(uint j=0; j<_bytes32Array.length; ++j) {\n\t\t\tif(_bytes32Array[j]==item) {\n\t\t\t\tindex = j;\n\t\t\t}\n\t\t}\n\t\trequire(index<_bytes32Array.length); // if member is not found -> exception\n\t\tif(index!=(_bytes32Array.length - 1)) { \n\t\t\t_bytes32Array[index] = _bytes32Array[_bytes32Array.length-1];\n\t\t}\n\t\tdelete _bytes32Array[_bytes32Array.length-1]; // delete last element\n\t\t_bytes32Array.length--;\n\t\t// return _bytes32Array;\n\t}\n\n\tfunction removeAddressFromArray(address[] storage _addressArray, address _targetAddress) public {\n\t\t// address[] memory parts = _addressArray;\n\t\taddress item = _targetAddress;\n\t\tuint index = _addressArray.length;\n\t\tfor(uint j=0; j<_addressArray.length; ++j) {\n\t\t\tif(_addressArray[j]==item) {\n\t\t\t\tindex = j;\n\t\t\t}\n\t\t}\n\t\trequire(index<_addressArray.length); // if member is not found -> exception\n\t\tif(index!=(_addressArray.length - 1)) { \n\t\t\t_addressArray[index] = _addressArray[_addressArray.length-1];\n\t\t}\n\t\tdelete _addressArray[_addressArray.length-1]; // delete last element\n\t\t_addressArray.length--;\n\t\t// return _addressArray;\n\t}\n\n\tfunction removeProposalFromArray(IProposal[] storage _proposalsArray, IProposal _targetProposal) public {\n\t\t// IProposal[] memory _proposalsArray = _proposalsArray;\n\t\tIProposal item = _targetProposal;\n\t\tuint index = _proposalsArray.length;\n\t\tfor(uint j=0; j<_proposalsArray.length; ++j) {\n\t\t\tif(_proposalsArray[j]==item) {\n\t\t\t\tindex = j;\n\t\t\t}\n\t\t}\n\t\trequire(index<_proposalsArray.length); // if member is not found -> exception\n\t\tif(index!=(_proposalsArray.length - 1)) { \n\t\t\t_proposalsArray[index] = _proposalsArray[_proposalsArray.length-1];\n\t\t}\n\t\tdelete _proposalsArray[_proposalsArray.length-1]; // delete last element\n\t\t_proposalsArray.length--;\n\t\t// return _proposalsArray;\n\t}\n\n\tfunction removeDaoObserverFromArray(IDaoObserver[] storage _daoObserversArray, IDaoObserver _targetDaoObserver) public {\n\t\t// IDaoObserver[] memory _daoObserversArray = _daoObserversArray;\n\t\tIDaoObserver item = _targetDaoObserver;\n\t\tuint index = _daoObserversArray.length;\n\t\tfor(uint j=0; j<_daoObserversArray.length; ++j) {\n\t\t\tif(_daoObserversArray[j]==item) {\n\t\t\t\tindex = j;\n\t\t\t}\n\t\t}\n\t\trequire(index<_daoObserversArray.length); // if member is not found -> exception\n\t\tif(index!=(_daoObserversArray.length - 1)) { \n\t\t\t_daoObserversArray[index] = _daoObserversArray[_daoObserversArray.length-1];\n\t\t}\n\t\tdelete _daoObserversArray[_daoObserversArray.length-1]; // delete last element\n\t\t_daoObserversArray.length--;\n\t}\n}\n",
  "sourcePath": "@thetta/core/contracts/utils/UtilsLib.sol",
  "compiler": {
    "name": "solc",
    "version": "0.4.24+commit.e67f0147.Emscripten.clang"
  },
  "schemaVersion": "2.0.1",
  "updatedAt": "2018-09-09T10:03:55.738Z"
}